:020000040800F2
:10000000C04801246103000803530008275000087A
:1000100001530008ED0800086F7700080000000099
:10002000000000000000000000000000D15800089F
:10003000131300080000000051560008F55800088E
:100040007F0300087F0300087F0300087F03000888
:100050007F0300087F0300087F0300087F03000878
:100060007F0300087F0300087F0300087F03000868
:100070007F0300087F0300087F0300087F03000858
:100080007F0300087F0300087F03000805160008AF
:10009000151600080D1600081D1600087F0300083D
:1000A0007F0300087F0300087F0300087F03000828
:1000B0007F0300087F0300087F0300087F03000818
:1000C0007F0300087F0300087F0300087F03000808
:1000D0007F0300087F0300087F0300087F030008F8
:1000E0007F0300087F030008000000007F03000872
:1000F0007F0300087F0300087F0300087F030008D8
:100100007F0300087F0300087F0300087F030008C7
:100110007F0300087F0300087F030008A55A00083A
:100120007F0300087F0300087F0300087F030008A7
:100130007F0300087F0300087F0300087F03000897
:1001400000000000000000000000000000000000AF
:100150007F0300087F0300087F0300087F03000877
:100160007F0300087F0300087F0300087F03000867
:100170007F0300087F0300087F03000800000000E1
:100180007F0300087F0300087F0300087F03000847
:100190007F0300087F0300087F0300087F03000837
:1001A0007F0300087F0300087F0300087F03000827
:1001B0007F0300087F0300087F0300087F03000817
:1001C0007F0300087F0300087F0300087F03000807
:1001D0007F030008055300087F0300087F03000821
:1001E0007F0300087F0300087F0300087F030008E7
:1001F0007F0300087F0300087F0300087F030008D7
:100200007F0300087F0300087F0300087F030008C6
:100210007F0300087F0300087F0300087F030008B6
:100220007F0300087F0300087F0300080000000030
:100230007F0300087F030008000000007F03000820
:100240007F0300087F0300087F0300087F03000886
:100250007F0300087F0300087F0300087F03000876
:100260007F0300087F0300087F0300087F03000866
:100270007F0300087F0300087F03000800000000E0
:100280007F0300087F0300087F03000800000000D0
:10029000000000007F03000800F002F800F050F8B2
:1002A0000AA090E8000C82448344AAF10107DA45D1
:1002B00001D100F045F8AFF2090EBAE80F0013F0D3
:1002C000010F18BFFB1A43F001031847E496000022
:1002D000049700000A4410F8014B14F00F0508BF02
:1002E00010F8015B240908BF10F8014B6D1E05D002
:1002F00010F8013B6D1E01F8013BF9D1641E03D0DB
:10030000641E01F8015BFBD19142E4D37047000009
:100310000023002400250026103A28BF78C1FBD80E
:10032000520728BF30C148BF0B6070471FB509F0A6
:100330004BF99DE8030000F0EBF91FBD10B510BDAF
:1003400000F052FA1146FFF7F1FF07F019FA00F03A
:1003500070FA03B4FFF7F2FF03BC00F0A1FA00004B
:100360000A4880470A4880470A480047FEE7FEE7F8
:10037000FEE7FEE7FEE7FEE7FEE7FEE7FEE7FEE755
:1003800005480649064A074B70470000ED1500086E
:10039000CD59000899020008C0F80024C048012483
:1003A000C0380124C038012470B5064600F094F925
:1003B000056806F10B0020F00704B4429CBF002042
:1003C00070BD2B466A68BAB11068A04210D304F120
:1003D000080188423CBF5068586007D35168101923
:1003E00041601168091B016058601460101D70BDE8
:1003F00013465268002AE7D12146284600F074F9D6
:100400000028DED170BD70B50446051F00F064F908
:100410000068002C14BF446870BD002C18BFAC42AB
:100420003CBF20466468F8D301680A18AA4218BF86
:10043000456003D12A6805461144016028684119C6
:10044000A1421CBF6C6070BD61686960216808448E
:10045000286070BD53EA020C00F069802DE9F04B72
:100460004FF00006002B1FBFB3FA83F503FA05F423
:1004700024FA05F65E4012BF1643B2FA82F502FA7C
:1004800005F4C5F120051EBF22FA05FC44EA0C0460
:10049000203556EA044C4FEA144418BF641C4FF050
:1004A00000084FF00009904271EB030C39D300298A
:1004B00019BFB1FA81F701FA07F6B0FA80F700FA2E
:1004C00007F6C7F120071EBF20FA07FC46EA0C0614
:1004D0002037B6FBF4FCA7EB0507103F07F01F0B16
:1004E000CBF120062CFA06F60CFA0BFB44BFB34600
:1004F0000026202FA4BF5E464FF0000B5BEA060CDF
:1005000008BF4FF0010B19EB0B0948EB0608ABFBDA
:10051000027C06FB02CC0BFB03CCC01B71EB0C0175
:10052000C1E70B46024641464846BDE8F08B13B58D
:100530004FF000004FF00001AFF30080BDE81C4019
:100540007047032A40F2308010F0030C00F0158051
:1005500011F8013BBCF1020F624498BF11F801CBC6
:1005600000F8013B38BF11F8013BA2F1040298BF2B
:1005700000F801CB38BF00F8013B11F0030300F095
:100580002580083AC0F0088051F8043B083A51F839
:1005900004CBA0E80810F5E7121D5CBF51F8043B3E
:1005A00040F8043BAFF30080D20724BF11F8013BB1
:1005B00011F801CB48BF11F8012B24BF00F8013B13
:1005C00000F801CB48BF00F8012B704710B5203A66
:1005D000C0F00B80B1E81850A0E81850B1E81850EE
:1005E000A0E81850203ABFF4F5AF5FEA027C24BFC0
:1005F000B1E81850A0E8185044BF18C918C0BDE8A9
:1006000010405FEA827C24BF51F8043B40F8043B71
:1006100008BF7047D20728BF31F8023B48BF11F826
:10062000012B28BF20F8023B48BF00F8012B704780
:1006300002F0FF0343EA032242EA024200F024B838
:100640004FF000020429C0F0128010F0030C00F0FB
:100650001B80CCF1040CBCF1020F18BF00F8012B79
:10066000A8BF20F8022BA1EB0C0100F00DB85FEA47
:10067000C17C24BF00F8012B00F8012B48BF00F813
:10068000012B70474FF0000200B513469446964682
:10069000203922BFA0E80C50A0E80C50B1F1200195
:1006A000BFF4F7AF090728BFA0E80C5048BF0CC043
:1006B0005DF804EB890028BF40F8042B08BF7047A1
:1006C00048BF20F8022B11F0804F18BF00F8012B13
:1006D0007047704770477047004870478801002492
:1006E000704770477047704738B504460A46002087
:1006F0006946AFF30080002808BF38BD0246009964
:10070000204600F04FF8012038BD012000F064B809
:10071000F8B5AFF30080054600200C46102000BF5E
:100720000646A819A0420DD9324669460020AFF30B
:100730000080070008BF00F04FF80098A04218BFE3
:100740000546C419FFF7C8FF05600746F01D20F0F5
:1007500007004619284600F00AF8B44208BFF8BD61
:10076000A21B31463868BDE8F84000F01BB80021F4
:100770000160C0E9011070471020704710B500F00B
:100780000DF8006810BD10B5044600F007F80460CD
:1007900010BD0000004870478001002400487047E9
:1007A00080010024034640688C46002818BF884218
:1007B0003CBF03464068F8D318681844884207D005
:1007C0000CF1030020F00700001D411A521A0146E7
:1007D000081D0A60FFF717BE10B500F039F8BDE834
:1007E000104000F02FB870477546FFF7D3FFAE46B4
:1007F00005006946534620F00700854618B020B52D
:10080000FFF7BEFDBDE820404FF000064FF00007A7
:100810004FF000084FF0000BAC46ACE8C009ACE864
:10082000C009ACE8C009ACE8C00921F007018D4659
:10083000704710B50446AFF300802046BDE8104075
:10084000FFF787BD002801D000F02AB870470000EC
:1008500010B5012805D0002103A000F027F80120E1
:1008600010BD09A1F8E7000053494752544D454DCA
:100870003A204F7574206F662068656170206D6541
:100880006D6F7279000000003A2048656170206D3C
:10089000656D6F727920636F727275707465640034
:1008A00001491820ABBEFEE72600020070B50546E0
:1008B0000C460A2000E06D1C00F011F835B12878D4
:1008C0000028F8D102E0641C00F009F814B1207887
:1008D0000028F8D1BDE870400A20AFF3008008B5C9
:1008E00069468DF800000320ABBE08BDFEE700207E
:1008F000704700207047000010B5214C09490022C4
:10090000204605F0EDFA0849204605F0DBFA0749D4
:100910002046002205F0E4FA0549204605F0D2FA07
:10092000002010BDF0100024F0080024000804305E
:1009300000000430B0B50968044606F0E1FD104D32
:100940002146284605F0BEFA284605F096FA002012
:10095000B0BD00BF002070470A4601460848D0F8E5
:10096000BC02D0F8140208B10120704710B5044C45
:10097000204605F0B5FA2046BDE8104005F023BB3F
:10098000E459002480B504F091FC00F01FF8012028
:1009900006F099FFF9E7000010B5B0B0094901A8C9
:1009A000BC22FFF713FE084C206848B94FF4C8700A
:1009B00000F020FC02202B9001A800F029FA206012
:1009C00030B010BDC8960008BC630024704738B131
:1009D00031B1002202E08B5C83540132082AFAD143
:1009E000704780B500F004F8012006F06CFFF9E7CD
:1009F0002DE9F84F2DED1A3BDFF8FC4302200021D2
:100A000007E0225C22B154F820200AB1C2E90B11A0
:100A100001300828F5D1DFF8A81BDFF8A0AB9FED67
:100A2000D6BA9FEDD6CA9FEDD6DA9FEDD6EA9FEDF6
:100A3000D6FA4FF000094FF001080026C8680130CF
:100A4000C86081F8299003E104EB8600076A002F53
:100A500000F0FD80D7F8C001002800F0F880C0E960
:100A60002EA7F88EB7F8D41110F0400F02D0BA8E2E
:100A7000402A03D0020709D4C2070DD097F8D72126
:100A8000002A00F0B1804FF0010B07E0C20704BF5D
:100A9000BA8E12F04802F1D14FF0000B97ED6E0ABA
:100AA00097F83810B1EE401A012901FE008A41067C
:100AB00041D5B98E40293ED197F83A00012804D19A
:100AC000D7F8A80190ED009A25E097F83C0097ED43
:100AD000099A012813D1B0EE490A00F01DFBB0EECF
:100AE00040AA28EE0B0A00F017FB30EE4A0AB4EEDB
:100AF000CC0AF1EE10FA05DD30EE0D0A09E028EE21
:100B00000B8A08E0B4EECE0AF1EE10FAB8BF30EE70
:100B10000F0A39EE008A97F83910B1EE490A07F149
:100B20004000F0EE480A012900FE090A04F0F0FB3B
:100B3000F88EB0EE408A000728D597F8340010F000
:100B4000480F23D097F83D0010F00A0F1EBFD7F8CA
:100B5000B40190ED000A38EE008A97F83B00F0EE01
:100B6000480A012814BF07F11000D7F8AC0197F824
:100B7000391090ED000A012907F1B800B1EE401AD2
:100B800001FE000A04F0C4FBB0EE408A97F83D0075
:100B9000C0071EBFD7F8B00190ED000A38EE008AFA
:100BA00097F83600C00714D0B7F91400F0EE480AE1
:100BB00000EE100A07F59870B8EEC00A97F83910E1
:100BC000B1EE401A012901FE000A04F0A1FBB0EECB
:100BD000408ABDEEC80ABBF1010F10EE101AA7F84B
:100BE000D41108BF87F8D79197F8C421052A2ED8C9
:100BF00004EB8200806850B397F8C531A64600F137
:100C00002C050C0ADFF8B8B948EA430C05F8134084
:100C100005F80C10D7F8B841CBF84440ABF84810B1
:100C20008BF827208BF8283005EB430205EB0C01ED
:100C300097F8C7310BB9A2F80090806A7446CBF8D8
:100C40004C001078097841EA0020ABF850000136DA
:100C500060788642FFF4F8AE684A01A800254FF09C
:100C6000000A10300090BEE002EB0A0B04EB0A0011
:100C70008BF85250807800287BD092F82910012000
:100C800000FA0AF0084382F8290004EB8A0086681B
:100C9000002E6ED03768002F6AD0D6F82880082042
:100CA0001421CDE90185039504900098FFF7EAFC33
:100CB00053484FF000098742524808BF81465248C6
:100CC0008742524808BF8146384601F03BF938B3A5
:100CD000374601A957F82C0B3A4600F0CDFF002803
:100CE00054D0B9F1000F43D0D9F818000130C9F839
:100CF00018000198C9F828000498C9F82C00079832
:100D0000C9F8300000F056FABCEEC00A012039469E
:100D100089ED0D0AC9F844003068D0F89C0021E044
:100D2000B9F1000F24D0D9F81C000130C9F81C001B
:100D3000D9F818000130C9F818000820C9F828802F
:100D4000C9F82C00C9F8305000F034FABCEEC00AE3
:100D5000032089ED0D0AC9F8440056F82C0BD0F891
:100D60009C003146C9F8480009F14C00FFF72FFEFE
:100D7000E04A0AF1010A36E0ACFF333D000034439B
:100D80000000B4C3000034C30000B443B9F1000F45
:100D90001FD0D9F814000130C9F814000198C9F81F
:100DA00028000498C9F82C000798C9F8300000F012
:100DB00001FABCEEC00A394689ED0D0AC9F8445063
:100DC0003068D0F89C00C9F8480009F14C00FFF7E2
:100DD000FEFDC84A01208BF8520002EB8A00816DAB
:100DE00001318165C5E7BAF1060F7FF43DAFBDEC77
:100DF0001A3B01B0BDE8F08F300200247459002482
:100E0000605D002480030024C05C002420000024D6
:100E10002DE9F04F89B08246BAF1000F36D0DFF8E5
:100E2000988798F8000038BBDFF8C4B200270DF1AE
:100E30000C0900251BE008EB8504A068B0B95BF83D
:100E4000350003900BEBC5004068CDE90407484628
:100E50008DF81870CDE9077700F0EAFC0646002E01
:100E600079D03046082100F021FEA6600135052D1D
:100E7000E1D9012088F8000098F801000C280BD374
:100E80009C48416801314160042113E1994841685F
:100E90000131416002210DE14FF4EC70FFF784FA5B
:100EA0000446002C51D020464FF4EC71FFF7EAFBCA
:100EB0009AF8A0000AF194028F4D04F1340384F8EB
:100EC000C60107CA07C304F598705146A84704F144
:100ED000B8000AF12C01A84704F140000AF15801BA
:100EE000A847DAF884000AF1A4070DF10C0CC4F845
:100EF000A801DAF88800C4F8AC01DAF88C00C4F86C
:100F0000B001DAF89000C4F8B4018FCFDAF8B86015
:100F10000896ACE88F00049B581E072800F2C28098
:100F20000398002800F0BE8094F8C61103F1FF0C6E
:100F30004A1E022A1AD271495FFA8CF7032F22D86F
:100F40000422884208BF012223E06A484168013137
:100F500041600521AEE0674800250121A56081764A
:100F600041680131416003218176A5E0032940F009
:100F7000998062495FFA8CF7032F2BD803228842AD
:100F800008BF00222CE00322884203F1FB0C08BFBB
:100F9000002247F400715FFA82FE4F1C08EB8E01BD
:100FA0008968059700297DD098F8016000250EE03A
:100FB00008EB8501096A49B1D1F8C01131B10B685C
:100FC000834203D1D1F8B010B9426BD00135B5429C
:100FD000EED324E00522884203F1FB0C08BF022275
:100FE0005FFA82FE07F2052708EB8E0105978968F4
:100FF000002957D098F8016000250EE008EB850124
:10100000096A49B1D1F8C01131B10B68834203D1EB
:10101000D1F8B010B94245D00135B542EED3384EC3
:1010200008EB0E000121002584F8C5C184F8C42115
:10103000817003A88DF81850CDE9076400F0F8FB23
:101040000028C4F8C0013BD0C0E92E640220ADF8EE
:1010500000002C48ADF80250CDE90104684600F0CC
:1010600031F90028C4F8C80133D00120254684F89E
:10107000C70198F80100411C08EB800088F80110B6
:1010800004621C48016801310160002181760499E5
:1010900001610599416194F8C411017694F8C51174
:1010A000417609E02046FFF7AEF912484168013168
:1010B0004160062181760025284609B0BDE8F08F01
:1010C0002046FFF7A0F90B48416801314160072134
:1010D000F0E7D4F8C0010025C0E92E552046FFF7FF
:1010E00092F9044841680131416008218176E3E7C3
:1010F000289900087459002415560008C05C002483
:10110000151300080911000828B1D0F8C01111B159
:10111000002180F8C711704780B52DED028B9FED3F
:10112000098AF0EE480A08F0A8F9B5EEC00A30EED8
:10113000081AF1EE10FAB8BFB0EE410ABDEC028B0E
:1011400080BD00BF0000B4435B48017801B1704727
:1011500081B00121017057490A680092009A4369E1
:101160009A4201B03EBF02690132026109684161E1
:1011700000210170704700BF80B52DED047B4D4903
:101180004D4A09680191019992ED010A0268891A94
:10119000B8EE400A019A01EE101A0260B8EE411A48
:1011A00081EE008AFFF7D0FFB0EE480ABDEC047B69
:1011B00080BD00BF80B500F045F80B480B494FF4E7
:1011C0007A729FED0B1A0088896901FB02003C4985
:1011D000098800EE101AB8EE402A00EE100AB8EEA8
:1011E000400A02EE010A80BDC8040024F001002478
:1011F0006F12833A0F494FF0000C0A6842F0807278
:101200000A600D490D4AC1F8B02FC1F804C04FF46F
:101210007A720B6843F001030B60274B084948437F
:10122000B0FBF2F2B0FBF1F1C3E90102C3E9031C28
:10123000FFF78ABFFCED00E0001000E055CEACC522
:1012400040420F00F8B51B4800680090FFF77CFF94
:10125000194F4FF0FF31002500233869009CE0FB57
:101260000145C7E90C45204629467E683246FFF70E
:10127000F1F8A0FB0623A41A01FB06324FF000038D
:10128000954107F1200233C2B86120462946BE6865
:101290003246FFF7DFF80949FA680023088080B278
:1012A0007043201A65F10001FFF7D4F80449088063
:1012B000F8BD00BF041000E0F0010024C8040024C1
:1012C000CC04002410B504461020FFF76DF800216F
:1012D0008160C0E90011A168C1602188002908BFB0
:1012E00064210180626842606288002A18BF11464A
:1012F000018104490A78531C0B70034941F822000C
:1013000010BD00BFB8630024F018002401880181DB
:10131000704770472DE9F8430446002C00F09A808E
:1013200094F8B400062807D894F8B500002840F0D7
:101330009180082084F8B400D4F8BC50002D6DD002
:101340009F4EB0680130B060D5F8C80108B1FFF712
:10135000DDFF05F5E670FFF70FFF85ED740A9FEDE1
:10136000992AB1EE083A6A882A8094F86D0094F8B8
:101370006E1041EA002901EE109AB8EE411AA5F864
:10138000029021EE024A85ED014A94F86F7094F8BC
:10139000700094F8713094F8721040EA07280FFA40
:1013A00088F701EE107A002FB8EEC15A9FED861A29
:1013B000A5F8088025EE033A00D57F42092F41EABF
:1013C000032C9FED825A9FED827A23FE013A0FFA99
:1013D0008CF085ED033A06EE100AB5F91400B8EE6C
:1013E000C66A26EE055A06EE100AB8EEC66A06EE82
:1013F000075ABDEEC55A15EE100AA88294F873E09C
:1014000085F816E095F8D60130B37249A9EB0202CF
:10141000B2F5805F58DD4FF0FF335CE06648002294
:10142000417815E000EB82031D6A85B1D5F8C03123
:101430006BB1A34200F0BC8027681E68BE4206D193
:10144000D4F8B070D3F8B060BE4200F0B180013281
:101450008A42E7D3BDE8F8830020A5F8009085ED27
:10146000043A40F201119FED5E2AE862C5E90609DF
:10147000C5F8209085ED0A4A95ED0C1A20EE020A77
:1014800034EE411A85ED091AA5F8D611D4F8B0103A
:10149000F161A6F82090A6F82280A6F824C086F86C
:1014A00026E095F8C41186F8271095F8C51186F83E
:1014B0002810F062306386ED0D0A86ED0E3AF06377
:1014C00086ED101ABDE8F88301F58050824206DAF5
:1014D00001234FF40051E86A0A441844E862B5EE6B
:1014E000C00AF1EE10FA0DDD002A114648BF514244
:1014F0000229A1BF01EE102AB8EEC11A21EE021A8C
:1015000081EE001A9FED344A95ED045A9FED336A3F
:10151000B5EE403AF1EE10FA25EE044A03EE064A23
:1015200014EE103A85ED044A07D1002A114648BF4F
:1015300051420129DCBF00232B61E86904EE102A27
:101540001044E861296A401A0121A86195ED0A3A20
:10155000B8EEC44A04EE023A85ED0A3A95ED0C2A3B
:1015600033EE422A9FED1E3A85ED092A85F8D71100
:10157000D4F8B01020EE030AF161A6F82090A6F886
:101580002280A6F824C086F826E095F8C41186F8D3
:10159000271095F8C51186F82810F262306386EDA1
:1015A0000D0AB36386ED0F1A86ED102ABDE8F883A5
:1015B0000248C3E92E05C3E63002002415130008D3
:1015C00074590024ACFF333D000000006666663F9E
:1015D000D0CCCC3D00E0FFFF6666263F3333B33E00
:1015E00000007A44EFF3108072B6FEE70448816889
:1015F00041F002018160016811F4005FFBD0704787
:1016000004480258814800F0A5BC00BF7F4800F0A4
:10161000A1BC00BF7B4800F09DBC00BF794800F032
:1016200099BC00BF80B5082A4FF0000C28BF0822E3
:1016300005E011F80E300CF1010C00F80E305FFAE5
:101640008CFE7245F5DC0021BEF1070F88BF80BD1E
:1016500000F80E100EF1010EF6E700002DE9F04F34
:101660009DB004466748694A0D4667490023DFF884
:10167000A0A1684FDFF8A4810DF10C0B844218BFC4
:101680001946944218BF8A468442634818BF1F46D1
:10169000944208BF00F1100707F12400029007F1FF
:1016A000540001909CE02046294613AA5B4600F0B6
:1016B00083FB002840F09C800CB3DDE9130151B995
:1016C0000021B1EBD02F06D1BAF1000F1CBF5AF8A0
:1016D0002060002E14D198F80010002200E00132A2
:1016E0008A420CD208EB82035E68002EF7D0336882
:1016F000A342F4D1D6F8B0309842F0D100E00026F1
:101700001698B0F5803F03D3C0F3034161B903E0FD
:10171000082801D881460AE01EB1F169B1F5001F21
:1017200012D110F00F014AD03DA010F8019036B34D
:101730005FEA09600AD1F0694FF00809B0F5001FAF
:1017400008BF4FF0000901E04FF008095FFA89F087
:10175000402828BF4FF0400919F0FF0F86F8B490D9
:1017600006D006F16D005FFA89F25946FEF7E9FEF0
:10177000D6F8B81019B130468847012600E0002697
:1017800077B31398B8631698F863FFF713FDBCEEB0
:10179000C00A00205FFA89F2594687ED100A786482
:1017A000D4F89C00B8640198FFF73CFF0298002E23
:1017B00018BF07F1200001680131016010E0A0F1BD
:1017C0000C014FF000094FEAB1010D29AFD80122F9
:1017D00002FA01F142F22F22114218BF8146A6E718
:1017E0002046294600F0DDFA00287FF45CAF05E0D2
:1017F00027B101207864D4F89C00B8641DB0BDE81E
:10180000F08F00BF605D002474390024C05C0024A8
:1018100074190024800300241000002420040024F4
:101820000001020304050607080C101418203040BC
:101830002DE9F04F8BB00546002D00F01A81D5F848
:101840000090B9F1000F00F01481DFF81CB3002004
:10185000ABF10806012800F20C8156F8081F013090
:101860004945F7D10024002E00F00481BC498E4F79
:101870008B48DFF830C28945BC4918BF20468945EE
:1018800018BF844638780F2800F2F480D5F8088015
:10189000B8F1000F18BFBCF1000F08D00021B1EB68
:1018A000D82F04D15CF82810002940F0E2800021F4
:1018B0000FE0B8F1000F0BD007EB810252683AB18C
:1018C00013684B4504D1D2F8B020424500F0D180D6
:1018D00001318142EDD3C020CDF808C0FEF764FD90
:1018E00004464FF0000A002C00F0C38004F12C00E5
:1018F0008C21FEF7C7FE68680821C4E9010AC4F814
:101900000CA0C4E9041A2A7B002A134618BF4FF41E
:101910008013A361134618BF4FF40013002AC4E9D3
:10192000073AC4F80090C4E909A0C4F8B08018BF11
:10193000012284F8B5202869C4F8B8006869C4F8A1
:10194000BC00204684F86C1000F0E6F803A82021C3
:10195000FEF798FE2068824A824D844BD4F8B0107E
:101960000BF11007904208BFAA46984208BFBA463A
:10197000F1B37279836B934278D90023CDE90332B6
:10198000022205920122CDE9062140F2FF71089161
:1019900003A900F0A6F998B1BAF1000F66D0DAF801
:1019A00010000130CAF810000120CAF84400206875
:1019B000D0F89C00CAF8480070798AF8010055E018
:1019C0007079674A694BBAF1000F00F1010070713C
:1019D0000ED0DAF80C100131CAF80C100021CAF848
:1019E00044102168D1F89C10CAF848108AF8010008
:1019F0003068DFF8B480904218BF0025984208BFD5
:101A00003D463179029F91B1D4F8B00030B12FB189
:101A10000021B1EBD02F08BF47F8204098F8000014
:101A2000411C08EB800088F80010446022E001218E
:101A3000022201230091022100F096F960B930687A
:101A400000F07DFE40B930681121002200F0DAF884
:101A5000A0B1306800F08CFE45B1A8680130A860E4
:101A6000012068643068D0F89C00A8642046FEF726
:101A7000CAFC002420460BB0BDE8F08F0120002DE9
:101A80003071C1D028707079687068680130686002
:101A9000002068643068D0F89C00A864B4E700BFF8
:101AA000743900247419002420040024B0B50446BD
:101AB0000D467CB3681EC0B23F282BD8204600F0EC
:101AC0002BF8E1692846B1F5001F18BF0820082D42
:101AD00098BF2846B1F5001F1AD1302801D94020FF
:101AE00016E0202801D9302012E0182801D9202042
:101AF0000EE0142801D918200AE0102801D914207A
:101B000006E00C2801D9102002E0082888BF0C202C
:101B100084F86C00B0BD000080B5C169DFF840C03A
:101B2000B1F50011B1FA81F14FEA511E0F4980F869
:101B3000B5E01ABF0022C0E906224FF40012036884
:101B400008486345DFF820C018BF00208B4208BF5B
:101B50000CF1100010B180F802E0026380BD00BFFC
:101B6000605D00248003002410000024C05C002479
:101B70002DE9F043D1E900CED1E90248D1E9046969
:101B8000D1E906573443BEF1000F4CEA040646F093
:101B9000804608BF44EA8C46846ED0F88400DFF8A3
:101BA000A0C363430C6A40F8236000EB830047EA5C
:101BB00004632B4343EA090343EA084343600830C4
:101BC0000023CF681CF80770BB4228BFBDE8F08334
:101BD000D758C7500433F4E770B505466E1C00F0C3
:101BE000E3FE04461EB106480078054401E04FF0CC
:101BF000FF3500F0D9FE001BA842FAD370BD00BF2C
:101C00007C00002490F89830013BDBB2012B0CD80B
:101C10000068836D0B420DD0836D0B408B4206BF75
:101C2000C36D43F00203032307E000F19C01012090
:101C3000022219E0C36D43F00103C3658B0542BF67
:101C4000D0F8E0301343C0F8E0304B0542BFD0F885
:101C5000E4301A43C0F8E420054A436D0A401A43B1
:101C600042658A0F002003490B681A430A607047D7
:101C7000FFFFCF3F14A80040B0B5044694F8980089
:101C800002281BD12068D0F8C03013F07C5F1AD036
:101C9000D0F8C43013F4001F1AD1D0F8C400C0F338
:101CA000044520462B46FFF763FF21680120A8402A
:101CB000C1F8D000C4F894000020B0BDD4F89C0056
:101CC00040F0080008E0D4F89C0040F0200003E059
:101CD000D4F89C0040F40070C4F89C000120B0BD12
:101CE000704790F89820013AD2B2012A09D80A68C0
:101CF000D1E9033C6AB14CEA4372072B15D18B69D9
:101D000018E0D0F89C1041F00201C0F89C100120AE
:101D1000704780B54FEA0C4C072B14D1CA6901F10A
:101D2000180E13024FF0605212E0D1F808C04B6950
:101D300043EA8C734968006F40F8312000EBC10022
:101D4000436000207047DA068B6801F1140E9B0790
:101D500042EA0C024968C06E1A43DEF800301A43AA
:101D600040F82120002080BD90F898C0BCF1010F00
:101D70000DD1DDF800C09200006842EA011141EA8D
:101D8000430141EA0C01C0F8801000207047D0F8F0
:101D90009C1041F00401C0F89C100120704770476E
:101DA00070470068402900F1B40208BF00F1A402A6
:101DB000106800F07F00704770B590F89860022EB0
:101DC00022D1402925D10468D4F8A06016F4FE0F72
:101DD00000F09F80D4F8A46016F07F0F00F0A78079
:101DE000D4F8A46016F0807F1ABFD4F8A060F60F74
:101DF0000026D4F8A45000F17404C5F3052505EBC2
:101E0000060E456CF44630E0D0F89C1041F0080115
:101E100091E041291FD10468D4F8B06016F4FE0F98
:101E200077D0D4F8B46016F07F0F00F08080D4F83B
:101E3000B46016F0807F1ABFD4F8B060F60F0026A9
:101E4000D4F8B45000F17804C5F3052505EB060E6F
:101E5000C56CF44609E0066D8E425AD9D0F854E0BC
:101E600000F17C044FF0000C0D4605FB0EF62568D2
:101E700055F8264014F08044546055F826E0CEF31F
:101E80008A4418BF2EF06044146055F8264004F0D0
:101E90000054946055F8264005EB860606F1080EBE
:101EA00004F000441461B588D561F58805F00F048D
:101EB000D460756805F480155561756805F40015E2
:101EC0009561F57905F07F05156275681C4EED0F7B
:101ED0005562002504E01EF805405C550135D468C4
:101EE000345DA542F7D30068402902BFC0F8A8C0FE
:101EF000002070BD412902BFC0F8B8C0002070BDED
:101F00001F290BD8012202FA01F1C0F89810002015
:101F100070BDD0F89C1041F020010CE001F01F01D1
:101F2000012202FA01F1C0F89C10002070BDD0F827
:101F30009C1041F48071C0F89C10012070BD00BF5E
:101F4000589900080068D0F8C40000F03F007047BE
:101F5000704700002DE9F04F87B0AA4E0446316863
:101F6000A94802682068056DD0F854B0036D02EAF4
:101F700001090093D0F85480036D0293436D0193DF
:101F8000036D0693436D0593036D0493436D0393B3
:101F9000436D076D03EA070A37465FEACA5307D560
:101FA0004FF480710165002038602046FFF7D0FFB4
:101FB00005EA0B064FEA89755FEA4A500DD520689D
:101FC0004FF48063D0F8DC10D0F8E42003650020E3
:101FD00038602046114000F00FFC009806F470466F
:101FE000002D08EA000809D020680021016509F0E9
:101FF0000300294638602046FFF772FEDDE9011034
:1020000008F00F05002E00EA010908D020683946C3
:102010000665002008602046314600F0EFFB09F01D
:10202000F0063DB12068294605650020386020464D
:1020300000F079FB3EB1206831460665002038602B
:10204000204600F076FB5FEA0A5008D520684FF47E
:102050000061016500203860204600F0D0FB5FEA97
:102060008A500DD520684FF40073D0F8D810D0F8FE
:10207000E0200365002038602046114000F0BDFBE1
:102080005FEA0A3008D520684FF40021016500207E
:102090003860204600F046FB5FEACA3008D5206869
:1020A0004FF48031016500203860204600F0A3FB2A
:1020B000DDE9031000EA01055FEA4A3008D520682F
:1020C0004FF48021016500203860204600F092FB2B
:1020D000DDE905105FEA8A3200EA010005F060716F
:1020E0000BD522684FF40033136500223A60D4F810
:1020F0009C2042F08002C4F89C2000F0715531B160
:1021000020680165002038602046FFF749FE2068FE
:102110003DB1002105653960D4F89C102943C4F80D
:102120009C10A7F50161884260D16068816811F058
:10213000030F5BD0016A426A1140026A436A066A71
:10214000D0F8249011F00F0102EA030202F03005EA
:10215000026A0492D0F824B0026A0692426A05929A
:10216000D0F82480D0F820A003D00162204600F0EF
:102170003EFB06EA09072DB1606829460562204644
:1021800000F037FB049807F4C07500EA0B0608EA74
:102190000A0040060AD560684023C16BC26B036227
:1021A0002046090C02F03F0200F022FBDDE9051099
:1021B00006F4FC46002D00EA010705D060682946B8
:1021C0000562204600F012FB07F4F02036B161688A
:1021D0000E62D4F89C103143C4F89C1030B1616891
:1021E0000862D4F89C100843C4F89C00D4F89C0002
:1021F00028B1204607B0BDE8F04FFFF7D0BD07B0CB
:10220000BDE8F08F10A8004014A800402DE9F04F61
:1022100085B00446E4B32068E94EB04204BF06F539
:102220008071616094F8981031B9002084F89900A9
:10223000204600F0CDF92068816921F0100181610C
:1022400000F0B2FB05462068816911F0080F05D047
:1022500000F0AAFB401B0B28F5D310E0816941F088
:102260000101816100F0A0FB05462068816911F041
:10227000010F11D100F098FB401B0B28F5D3D4F8C7
:102280009C0040F00100C4F89C00032084F89800F2
:10229000012005B0BDE8F08F8169B44641F002012C
:1022A0008161217C826942F04003012908BF22F04C
:1022B00040038361617C826922F48043012908BF65
:1022C00042F480438361A17C826942F480530129F6
:1022D00008BF22F4805383618269A16822F44072AE
:1022E0000A438261826922F0A4028261026922F0BB
:1022F00010020261E268AAB1012A03D1826942F0A8
:1023000004020EE08369022A09D043F08003032A05
:102310008361036943F01003036103D1836943F0D0
:1023200020028261D4E90532D4E907764FF07E4578
:10233000B1F5407F05EB42656FF0FF02A6F10106A3
:1023400002EB072747EA05079E4D47EA060705EB1C
:10235000034343EA0703C36111D104F124076FF07B
:102360000F058ACF266B02EB0722013B05EB061611
:102370001A43944B324303EB01411143C160216E78
:1023800029B1626ED0F8C0301A43C0F8C020E26DA7
:10239000CA4204920AD0D0F8C810A26E8A4B53F8F1
:1023A000222021F007011143C0F8C810266C56B155
:1023B000D0F8BC10626C844B53F8222021F0070146
:1023C0001143C0F8BC10D4F848E0BEF1000F0BD0A8
:1023D000D0F8BC10E26C7C4B53F8222021F0700145
:1023E00041EA0211C0F8BC10D4F850A0BAF1000FB5
:1023F0000BD0D0F8BC10626D734B53F8222021F43F
:10240000E06141EA0221C0F8BC106045CDF80CC083
:1024100004D161688A6822F003028A6000230121E6
:102420004FF6FC75C4F89430C4F89C3084F89810CA
:10243000616BD0F88420AA4342EA8102C0F884206C
:10244000D0F88420A76B22F47F020297394442EA35
:102450000742C0F88420D0F888206FF38F0242EA48
:102460008102C0F88820D0F88820E76B22F4FE02B1
:1024700001EB470142EA0742C0F88820D0F8A020CB
:102480006FF38F0242EA8102C0F8A020D0F8A020AA
:1024900022F4FE0242EA0642C0F8A020D4F844B07A
:1024A000D0F8B0200BFB06116FF38F0242EA8102D5
:1024B000C0F8B020D0F8B02022F4FE0242EA0E426A
:1024C000C0F8B0200196D4F84C90D0F8AC5009FB7D
:1024D0000E116FF38F0545EA8105C0F8AC50656DAC
:1024E00005FB0A16D0F8F0106FF38F0141EA860160
:1024F000C0F8F010D0F8F01021F47C1CA16D4CEA6B
:102500000142C0F8F02006EB4102D0F8C0606FF342
:102510008F0646EA8202C0F8C020D0F8C000DDF87D
:102520001080226820F47C1040EA0840C2F8C00005
:10253000D2F8C000266E20F07C5040EA0660C2F857
:10254000C0000198039A0BFB00FC606B02EB80005B
:10255000029A00F5406000EB8202C4E91B0202EB24
:10256000C70209FB0EF7626702EB8C02A26702EB5F
:10257000870205FB0AF7E26702EB870202EBC10163
:10258000C4F88020C4F88410A26E08FB02F77243DE
:1025900001EB8701C4F8881001EB8201C4F89010A8
:1025A0000A4A914207D9D4F89C0040F020006AE61C
:1025B00008C0D4F890108842FAD3002069E600BF22
:1025C00000A000400000FFFFDC980008FCD30040A2
:1025D000B0B5B8B0044633A81421FEF753F802A8EA
:1025E000C021FEF74FF82068494C4A4D4A498842BD
:1025F00046D04A49884240F08880002003904FF43A
:10260000004002904FF080501E9002A801F090F917
:1026100008B1FEF7E7FF424801684A1C0029026042
:1026200008D1E86840F48070E860E86800F48070E1
:10263000019001982868022140F00800286028686D
:1026400000F008000190019803203390349100219C
:10265000CDE93510092033A9379004F5006000F06A
:10266000CFF813200521002200F086FA132000F095
:1026700075FA15200521002200F07EFA152042E0AF
:10268000002003904FF4004002904FF080501E90C5
:1026900002A801F04DF908B1FEF7A4FF2048016837
:1026A0004A1C0029026008D1E86840F48070E860A4
:1026B000E86800F4807001900198286833A940F020
:1026C00002002860286800F00200019001984FF491
:1026D00040503390022034900020359003203690F3
:1026E00009203790204600F08BF8142005210022A5
:1026F00000F042FA142000F031FA162005210022E1
:1027000000F03AFA162000F029FA38B0B0BD00BF48
:1027100000040258E044025800A4004000A0004019
:10272000C00400247047C9071CBF4021FEF796BFB4
:102730007047C90644BF4121FEF790BF704790F82B
:10274000981001290BD1022180F8981001688A693C
:1027500022F001028A610021C0F89C1006E0D0F846
:102760009C1041F00401C0F89C10012108467047FC
:1027700090F8981002290ED101688A6942F001028E
:102780008A614FF0FF328B6913F0010F0AD10132D9
:10279000332AF8D313E0D0F89C1041F00801C0F8B8
:1027A0009C1015E08A6922F010028A614FF0FF3216
:1027B0008B6913F0080F0ED00132332AF8D3D0F80A
:1027C0009C1041F00101C0F89C10032180F8981082
:1027D0000121084670478A6942F002028A6100219D
:1027E0000122C0F8941080F89820F2E770477047F3
:1027F0007047704770477047704770477047704721
:102800002DE9FC4F5D4A0A274FF0000B4FF0010EF7
:102810004FF0030A4FF00F094FF0000C904208BF31
:102820000927574A02444FEAB223092B38BF4FEA1F
:10283000B227009700270A6832FA07F308BFBDE8FD
:10284000FC8F0EFA07F312EA030400F090804D6843
:1028500005F00302A2F10108B8F1010F18D8D0F871
:102860000890CE680AFA0CF829EA080806FA0CF66D
:102870004FF00F0946EA08068660C5F3001606FA0F
:1028800007F8466826EA030343EA0803436001E0C9
:10289000032A1DD0C6680AFA0CF3022A26EA0303AB
:1028A0008E6806FA0CF643EA0603C36010D1354D74
:1028B0000BF01C0209FA02F305EA570505442E6ADB
:1028C00026EA03030E6906FA02F21A432A624D68E9
:1028D000066805F003020AFA0CF315F4403F02FA09
:1028E0000CF226EA030342EA030202603FD09A4A4E
:1028F0000BF00C0609FA06F5136843F002031360A7
:10290000126802F002020192019A1F4B27F00302A3
:1029100052F8038028EA0508009D05FA06F648EA01
:102920000605D5504FF0B0452A684B68A24313F412
:10293000801F18BF224313F4001F2A60134A156832
:1029400025EA040518BF254313F4003F1560D2F8AB
:10295000805025EA040518BF254313F4803FC2F8D0
:102960008050D56F25EA040518BF2543D5670BF1C4
:10297000040B0CF1020C01375DE700BF0024025884
:102980000000FEA7FCFFFF7F080400580400005869
:10299000002A08BF090481617047000001480068EF
:1029A000000C70470010005C04488068704700BF4E
:1029B0000248017882681144816070477C000024DD
:1029C00080B5032000F004F901F0B4FD0F49104B6D
:1029D0000A68C2F3032209689A5C01F00F01595C8E
:1029E00002F01F02D0400B4A01F01F0120FA01F152
:1029F0001160094908600F2000F010F808B10120AB
:102A000080BD00F097F8002080BD00BF1844025838
:102A1000A89800080400002400000024B0B58AB083
:102A200004460F2C30D8372021460022002500F024
:102A3000A3F8372000F092F817480460174801689F
:102A400041F02001016001A9006800F0200002901F
:102A5000029802A801F014FD079C01F059FD1049ED
:102A6000104A002C0A6040F2E732CA6018BF012405
:102A70000D4A0D61A040B0FBF2F00138C1E901053B
:102A8000084602F0ACF908B1012002E0044802F067
:102A9000D7F90AB0B0BD00BF80000024E844025856
:102AA0006C6300240014004040420F0010B54278CF
:102AB00012490A608A6822F001028A6042684A600C
:102AC000C37A027B847A90F800C090F808E01B0675
:102AD00043EA0272437A42EAC442447B42EA8442B5
:102AE000847BC07B42EA444242EA004040EA032041
:102AF00040EA4E0040EA0C00886010BD98ED00E00E
:102B0000BFF35F8F0A48016821F480310160002122
:102B100001677047064940F001000867086840F403
:102B200080300860BFF34F8FBFF36F8F704700BFD7
:102B300024ED00E081B008480022016841F0020164
:102B400001600F21006800F00200009000986FF013
:102B5000010001B000F010B8F4440258002808DB6E
:102B600000F01F010122400902FA01F1014A42F876
:102B70002010704700E100E0B0B5144C1A4D00F091
:102B80000F03B0F1FF3FA3F104032B4403F10C0347
:102B9000C8BF03192868C0F30220051DC41E80F0B9
:102BA0000700072D4FF0010538BF0024042828BF77
:102BB000042005FA00F00138084005FA04F10F314D
:102BC000A0401140084300011870B0BD00E400E0CF
:102BD00005494FF6FF030A681A4060F30A220348CA
:102BE00010430860704700BF0CED00E00000FA05DC
:102BF00001680122C0F8D824002280F8CC2488691A
:102C000040F000608861486D024A1043486500202A
:102C1000704700BF03000010704700684162002049
:102C20007047D0F800C00029DCF824001BD080B524
:102C3000DCF82830A1F1010E00EB1343002006E080
:102C40000CEB81010130D1F8041103EB1143C1B247
:102C50008E45F5D80CEB8E0043EA0241C0F8041112
:102C6000BDE8804003E040EA0240CCF828000020A4
:102C70007047D0F8E00403F0B9BB01EBC10200EBF0
:102C80008202D0F8E004126A03F01ABB01EBC10221
:102C900000EB8202D0F8E004D2F8602203F068BBB7
:102CA000D0F8E00403F0A4BB01F00F0211F0800F94
:102CB00002EBC20200EB820303F1140208BF03F52A
:102CC00015720068114604F0CFBA10B50A460446E2
:102CD00002F00F0012F0800F00EBC00104EB810343
:102CE00003F1140108BF03F51571C2F3C0124A7055
:102CF000087094F89404012801D1022008E0012012
:102D000084F89404206804F047F8002084F89404C0
:102D1000C0B210BDB0B504460A46217902F00F00DA
:102D2000884201D901251FE000EBC00112F0800F9D
:102D30004FF0000504EB810303F1140108BF03F514
:102D40001571C2F3C0124A708D70087094F8940423
:102D5000012801D1022507E0012084F894042068AD
:102D600004F076F984F89454E8B2B0BD01F00F0194
:102D700001EBC10100EB8100D0F86802704770B52B
:102D80000C4606466FF3DF2204F00F0014F0800CAF
:102D900000EBC00106EB810505F1140108BF05F544
:102DA0001571C4F3C015BCF1000F4D7008708A6036
:102DB0000B7118BF4883022B04BF0020487196F89E
:102DC0009404012801D1022008E0012086F894042F
:102DD000306803F021FF002086F89404C0B270BD73
:102DE00080B501F00F0E0EEBCE0100EB810C00213F
:102DF000CCE99823CCF868128CF855128CF854E280
:102E00000CF515718379012B08BFCCF870221A4696
:102E1000006804F053F9002080BDB0B5044601F00D
:102E20000F050120227995422AD801EBC10211F049
:102E3000800F04EB820305EBC50204EB820202F172
:102E4000140208BF03F51572C1F3C01151709070E0
:102E5000157094F89404012801D1022010E001209B
:102E6000114684F89404206804F00BF92DB9A17977
:102E7000206804F29C4204F0BFF8002084F8940417
:102E8000C0B2B0BD80B501F00F0E0EEBCE0100EB6D
:102E9000810C0021CCE90823CCF8281001218CF802
:102EA0001510614601F814EF8379012B08BFCCF8A7
:102EB00030201A46006804F001F9002080BD0000AF
:102EC0002DE9F04F89B08146D9F80040204604F042
:102ED0006AFA10B109B0BDE8F08FD9F8000004F02B
:102EE000C2FA0028F6D0D4F80808C0F30D20C9F8BB
:102EF000D404D9F8000004F0B6FA0146D9F800006D
:102F000011F0020F1EBF416901F00201416104F599
:102F10000061049104F0A7FA0146D9F80000069474
:102F200011F0100F40D0816921F010018161246AF5
:102F3000C4F3434004F00F0506281DD002282CD10D
:102F400047F6F070044028D005EBC50009EB80057A
:102F5000D5F86012C4F30F12069804F088FAD5F879
:102F6000600200EB1410C5F86002D5F8680200EBAF
:102F70001410C5F8680210E0069809F29C41082276
:102F800004F075FA05EBC50009EB8000D0F8681273
:102F9000C4F30A121144C0F86812D9F8000081691C
:102FA00041F010018161069C04F05DFA10F4002FDD
:102FB000CDF8209000F0DA80D9F8000004F032FA61
:102FC000064609F29C4009F51D7A4FF430684FF02F
:102FD000000B0590C7E0F00700F0BA80D9F80000B8
:102FE0005FFA8BF1079104F036FA0746E24817F0D2
:102FF000010F814657D004EB080001218160089D34
:10300000286808EB0001036C8A68AD79012D24D192
:1030100010072DD4900644D412F0280F43D148460F
:10302000834202D312F4004028D1DAF80000096983
:10303000B8F5306F6FF3DF41A0EB01004AF80C0CDC
:103040002AD1089AD2F86412002900F08980D2F8B7
:1030500060120844C2F860021EE04D46FF35AB42E4
:103060000FD110040AD4900644BF2020886013E0DA
:103070004846834217D312F4004014D04FF4004066
:1030800010E0B8F5306F07D10899D1F8641219B97A
:103090000021059A03F0B0FFDDE90710FFF7F6FD08
:1030A00001E020208860380723D504EB08000821C0
:1030B000A9F1010481600898016808EB01000D6C1A
:1030C000816811F4004F04D0A54284BF4FF4004141
:1030D0008160089800F0BFFBA542069C09D90898BA
:1030E0008079012805D10898059A0121006803F02C
:1030F00083FFF80642BF04EB080010218160B80787
:1031000017D5606910F0800F1FBF0499486840F41C
:10311000806048601AF81D0C012806D100200AF8CA
:103120001D0CDDE9071000F0A0FA04EB08000221F5
:103130008160B80642BF04EB080020218160B8041A
:10314000DDF8209042BF04EB08004FF4005181608D
:103150000AF1240A08F1200876080BF1010B02E0BD
:103160001068012195E7002E7FF435AFD9F80000F3
:1031700004F079F9DDF810A010F4802F00F0D08071
:10318000D9F8000004F047F9054609F29C400023F5
:10319000029004F510600590BFE0E80700F0BA80E7
:1031A000D9F80000DFB20793394604F042F904462B
:1031B00014F0010F2AD0079BDAF83410012203F033
:1031C0000F0002FA00F021EA0000CAF83400059866
:1031D00000EB4310826099F80600012812D103EB3E
:1031E000C300002B09EB8000D0E9071211440162F3
:1031F00008D1D9F8240028B9D9F80000029A012191
:1032000003F0FAFE48463946FFF737FD079B2007D3
:1032100041BF059800EB431008218160E00641BFE3
:10322000059800EB431010218160600641BF0598AE
:1032300000EB431040218160A00718D5069819467D
:1032400004F07DF8079B03EBC30009EB800010F846
:10325000171F012906D1002101704846394600F0A8
:1032600000FA079B0598022100EB431081602006BD
:1032700050D503EBC30009EB800BD84658F8240F58
:10328000464656F8042F904244D30395851A5BF8BE
:103290001C1FD9F800408D420BF1040988BF0D4670
:1032A00004EB431101F5106A19E0089DDBF80030CA
:1032B000D9F80010AD790095851A20463A469D420E
:1032C00088BF1D46ABB204F03DFAD9F8000028448F
:1032D000C9F80000306842193260D8F80000DAF806
:1032E000181030B1904204D9EB1C89B29B08994266
:1032F000DBD2DDE9035ADDE9073990420AD803F051
:103300000F00012101FA00F0D4F8341821EA00007E
:10331000C4F83408069C6D080133002D7FF43DAFDE
:10332000D9F8000004F09FF8002802DBD9F800006B
:103330001AE0DAF8040020F00100CAF8040099F855
:10334000CC04012807D10020002189F8CC0448468C
:10335000FFF762FC02E0484600F061FAD9F800008D
:10336000416901F00041416104F07DF810F4006F03
:1033700004D1D9F800000FE00B30544FDAF8080000
:1033800010F0010F1CBF484600F08EFAD9F800007B
:10339000416901F40061416104F065F810F0006FCB
:1033A00018D0D9F80000416901F00061416199F835
:1033B000CC1419B1484600F077FA0BE0012189F8E6
:1033C000CC140121406DC0F38300C9F8D0044846F5
:1033D000FFF722FCD9F8000004F045F810F4805FF4
:1033E00002D1D9F800005BE0D4F80408102120F0E5
:1033F0000100C4F80408D9F8000003F0A0FF99F810
:10340000041004F510604FF67F3214E08260013939
:10341000036823F400130360C0F80822D0F80032D8
:1034200023F40013C0F80032D0F8003243F00063F8
:10343000C0F8003220300029E8D1DAF81C0040F052
:103440000110CAF81C0099F80F0040B1DAF88400A6
:1034500040F00B00CAF884000AF1440008E0DAF8F2
:10346000140042F22B010843CAF814000AF11000BC
:10347000016809F29C4241F00B010160DAF800009A
:1034800020F4FE60CAF8000099F80610D9F8000090
:1034900003F0B2FDD9F80000416901F480514161A7
:1034A00003F0E1FF0146D9F8000011F4005F1AD0E3
:1034B00003F0F0FBD9F8000003F066FF89F807007D
:1034C000D9F8004001F004F899F807200146204699
:1034D00004F080F8484600F08DF9D9F80000416901
:1034E00001F40051416103F0BEFF10F0080F02D15A
:1034F000D9F8000008E0484600F095F9D9F8000036
:10350000416901F00801416103F0ADFF10F0800F47
:1035100017D00698012440F27B250146886920F0E7
:103520008000886109E019F80500012803D1E1B2A3
:103530004846FFF7B9FB2435013499F8040084426A
:10354000F1D3D9F8000003F08EFF10F4801F02D1F0
:10355000D9F8000022E0069809F13B040126012772
:1035600000F5126510E02868B0F1FF3F09DC6078D3
:10357000012806D147F080002670C1B24846FFF707
:1035800093FB24342035013799F804008742EAD3AD
:10359000D9F80000416901F480114161069C03F0F3
:1035A00062FF10F4001F02D1D9F8000032E099F850
:1035B000042009F51F7004F53261012301271AE088
:1035C0000E68B6F1FF3F13DC0578012D02BFD9F874
:1035D000D45485EA16465FEAC67609D100F8013C64
:1035E000A66946F08006A661666916F0800F05D0D0
:1035F0002430203101379742E2D305E0DAF80400A5
:1036000040F40070CAF80400D9F80000416901F4E0
:103610000011416103F027FF10F0804F02D1D9F86B
:10362000000008E04846FFF724FBD9F80000416994
:1036300001F08041416103F016FF10F0040F3FF4E8
:1036400049ACD9F80000446814F0040F04D048468F
:10365000FFF726FBD9F80000416821434160FFF7DE
:1036600039BCD0F8E00402F01ABFD0F8E00402F050
:103670002EBFBCB50446002C4ED094F8950428B952
:10368000002084F89404204600F05AF8032084F8BF
:103690009504206803F0AAFC94E80F00257C0095AF
:1036A00003F008FBA8BB20680021002503F050FFB1
:1036B00078BB20794FF0010C00220DE0D90051FABF
:1036C00082F104EB810181F815C00A75CB850D7676
:1036D000C1E907554D620132D3B28342EED30021D6
:1036E000002200230CE0A518243285F8551285F835
:1036F000543285F85812C5E99711C5F864120133A0
:103700009842F0D194E80F00257C009503F0A2FBCD
:1037100028B1022084F89504012002B0B0BD002039
:103720006074012084F89504207B012804BF2046A2
:10373000FFF75EFA206803F07FFB0020EDE7000052
:10374000F0B5B7B0044632A81421FCF79BFF02A8DD
:10375000C021FCF797FF20682349884242D100240A
:103760004FF4802002260A250394029005200C9035
:1037700060200D904FF400600E96CDE90F56119029
:103780004FF400101394249002A800F0D1F808B16F
:10379000FDF728FF00F0C4F8144F32A9B86840F0D4
:1037A0000100B860B86800F00100019001984FF482
:1037B000C050CDE93206CDE9344436950C48FFF7C8
:1037C0001FF838680521002240F000603860386832
:1037D00000F00060019001986520FFF7CDF96520A9
:1037E000FFF7BCF937B0F0BD00000840D8440258DC
:1037F0000000025810B50446E07928B1022818BF2D
:10380000FDF7F0FE012100E00021D4F8E00402F011
:10381000E3FED4F8E004BDE8104002F093BED0F817
:10382000E00402F0C0BED0F8E00402F0C6BE10B55D
:10383000044694F89404012801D1022009E00120F3
:1038400084F894046174206803F0B3FE002084F8C7
:103850009404C0B210BDD0F8E02400F29C411046A0
:1038600002F0D0BE10B5044694F89404012801D1AA
:10387000022016E02068012184F89414C16811F038
:10388000400F06D0617B012902BF816B41F480317A
:10389000816303F02BFD206803F0C0FA002084F858
:1038A0009404C0B210BD000010B50446D4F8E00482
:1038B00002F0FAFE2068D0F8001E41F00101C0F8C5
:1038C000001EE07A20B10348016841F00601016062
:1038D00010BD00BF10ED00E0B0B5144D2A68296896
:1038E00012F0040F05D101F00701081A18BF0120DA
:1038F000B0BD21F0070108432860FFF755F80446E2
:1039000055F8080C10F4005F1CBF0020B0BDFFF795
:103910004BF8001BB0F57A7F84BF0120B0BDEFE704
:103920000248016841F08071016070470C480258FC
:103930002DE9F0470446E078A84F000722D5A06E95
:103940004FEA3051032908D8DFE801F002090F17C8
:10395000F96941F40031F9610FE0012613E004F147
:103960000800022101F0A6FE04E004F12800022173
:1039700001F026FF064636B9A06E396C21F44011DD
:103980000843386400266078BA46C00701D135463E
:1039900028E0A06D04280BD83546DFE800F0030CC2
:1039A00012181800F869354640F40030F8610EE04E
:1039B0000125012717E004F10800002101F07AFE3B
:1039C00004E004F12800002101F0FAFE0546002D74
:1039D0002F4608D152460025106CA16D20F007003B
:1039E0000843106437466078800729D5E06D4FEAB8
:1039F000B01004280AD8DFE800F0030C12181800F1
:103A00005146C86940F40030C8610EE00125012626
:103A100017E004F10800002101F04CFE04E004F17D
:103A20002800002101F0CCFE0546002D2E4608D1CD
:103A300052460025106CE16D20F4E07008431064DC
:103A40003E466078400702D4B04657462CE0D4F892
:103A5000A80057464FEA7050042809D8DFE800F064
:103A6000030C12181800F86940F40030F8610FE0F8
:103A700001254FF0010817E004F10800002101F0D2
:103A800019FE04E004F12800002101F099FE05462A
:103A9000002DA84608D1B86CD4F8A8100025B0466F
:103AA00020F460000843B864607800072AD5D4F891
:103AB000AC004FEA3060042809D8DFE800F0030BBF
:103AC00011171700F86940F40030F8610EE0012585
:103AD000012718E004F10800002101F0EBFD04E0EB
:103AE00004F12800002101F06BFE0546002D2F4651
:103AF00009D152460025906CD4F8AC1020F0E0605B
:103B0000084390644746E078800722D5E06C4FEA8E
:103B10003010032809D8DFE800F011020B115146DC
:103B2000C86940F40030C86108E00125012611E0B1
:103B300004F10800022101F0BDFD0546002D2E46CE
:103B400008D152460025D06BE16C20F030000843CC
:103B5000D0633E466078C00629D5206E4FEA3030EB
:103B600004280AD8DFE800F0030C121818005146A8
:103B7000C86940F40030C8610EE00125012717E054
:103B800004F10800002101F095FD04E004F1280093
:103B9000002101F015FE0546002D2F4608D15246A2
:103BA0000025106C216E20F4E04008431064374675
:103BB0006078800625D5606E4FEA304005280AD827
:103BC000DFE800F014030E14141404F108000121BE
:103BD00001F070FD09E00125012613E010440258B0
:103BE00004F12800012101F0EBFD0546002D2E46D1
:103BF00008D152460025106C616E20F4E020084385
:103C000010643E466078400625D5D4F8B0004FEAEF
:103C1000307005280AD8DFE800F012030C121212E7
:103C200004F10800012101F045FD07E0012501270D
:103C300012E004F12800012101F0C2FD0546002D2B
:103C40002F4609D152460025906CD4F8B01020F0D0
:103C5000E040084390643746607800061ED5206F28
:103C600088B1B0F1005F08D0B0F1805F2AD1514631
:103C7000C86940F40030C86105E004F10800012182
:103C800001F018FD0546002D2E4608D152460025AC
:103C9000106C216F20F04050084310643E46E078DD
:103CA000C00702D1B046574624E0A06C574603280F
:103CB0000BD8DFE800F014020E14F86940F400306D
:103CC000F8610CE001250126E9E701254FF0010824
:103CD00010E004F10800022101F0ECFC0546002D83
:103CE000A84607D1F86BA16C0025B04620F0030070
:103CF0000843F863A078400601D4474618E0D7F897
:103D0000F00340F48070C7F8F003FEF74DFE06465E
:103D1000D7F8F00310F4807F07D1FEF745FE801B33
:103D20006428F5D90325032702E0002D2F4612D081
:103D30002078C0074ED0E06F4FEAF000052835D854
:103D4000DFE800F03D03373D3D3D04F1080001216F
:103D500001F0B0FC32E05346196ED4F8B400414093
:103D600011F4407F0BD0196E1A6E42F4803221F4A8
:103D700040711A661A6E22F480321A661966B0F51E
:103D8000807F40F05A82FEF70FFE064641F28839E6
:103D9000032503275346186E10F0020F40F04B82A4
:103DA000FEF702FE801B4845F4D9C1E70125012634
:103DB00011E004F12800012101F002FD0546002D6B
:103DC0002E4608D152460025506CE16F20F0380095
:103DD000084350643E462078800721D5A06F05280F
:103DE0000AD8DFE800F012030C12121204F10800E6
:103DF000012101F05FFC07E00125012711E004F13A
:103E00002800012101F0DCFC0546002D2F4608D1D9
:103E100052460025506CA16F20F007000843506403
:103E200037462078400723D5D4F8940005280AD8CF
:103E3000DFE800F012030C12121204F10800012155
:103E400001F038FC07E00125012612E004F128000A
:103E5000012101F0B5FC0546002D2E4609D1524640
:103E60000025906CD4F8941020F00700084390646B
:103E70003E462078800625D5D4F890004FEA307071
:103E800005280AD8DFE800F012030C12121204F120
:103E90000800002101F00EFC07E00125012712E0D7
:103EA00004F12800022101F08BFC0546002D2F466D
:103EB00009D152460025506CD4F8901020F0E04013
:103EC0000843506437462078400625D5D4F89C0036
:103ED0004FEAB02005280AD8DFE800F012030C12E0
:103EE000121204F10800002101F0E4FB07E00125B3
:103EF000012612E004F12800022101F061FC0546D0
:103F0000002D2E4609D152460025906CD4F89C1005
:103F100020F4E050084390643E462078000625D502
:103F2000D4F8A0004FEA703005280AD8DFE800F086
:103F300012030C12121204F10800002101F0BAFB66
:103F400007E00125012712E004F12800022101F019
:103F500037FC0546002D2F4609D152460025906CAE
:103F6000D4F8A01020F460400843906437462068DD
:103F700010F0080F15D0D4F88410B1F5805F0AD185
:103F800004F12800022101F01BFC002818BF0127C2
:103F90002068D4F8841053465A6C22F440521143DE
:103FA0005964C10615D5D4F89810B1F5807F0AD1AF
:103FB00004F12800022101F003FC002818BF0127AA
:103FC0002068D4F8981053469A6C22F4407211433A
:103FD0009964000320D5D4F8A400B0F5003F0FD0B9
:103FE000B0F5803F06D068BB04F10800002101F065
:103FF00061FB04E004F12800022101F0E1FB054629
:10400000002D2E4609D152460025906CD4F8A410FC
:1040100020F44030084390643E46A078400726D5FF
:10402000D4F88800B0F5401F15D0B0F5001F0CD0B3
:10403000B0F5801F40F0FA805146C86940F4003066
:10404000C86108E001250126E7E704F12800012105
:1040500001F0B6FB0546002D2F4609D1524600253A
:10406000506CD4F8881020F4401008435064374650
:10407000A078C00701D13E461EE0206DB0F5803F1C
:1040800006D0B8B95146C86940F40030C86105E0AF
:1040900004F10800022101F00DFB0546002D2E461B
:1040A0000AD152460025D06B216D20F480300843A0
:1040B000D063E0E701250126216811F0005F01D1FE
:1040C000606809E004F12800022101F079FB002872
:1040D00018BF0126D4E900108A031BD5D4F880202C
:1040E0006FF0010303EB3223022B0BD34FEA322391
:1040F00043B1012B40F09D80DAF81C3043F40033CB
:10410000CAF81C303DB9DAF8443023F440731A433E
:10411000CAF844203546CA0207D5DAF84020636F52
:1041200022F000421A43CAF84020CA0008D5DAF843
:104130000020D4F8B83022F480421A43CAF8002094
:104140008A0207D5DAF84020E36E22F080721A4323
:10415000CAF840204A000CD5DAF8002022F40042C8
:10416000CAF80020D4F8BC20DAF800301A43CAF8A4
:104170000020B1F1FF3F07DCDAF83C20636D22F04C
:1041800040521A43CAF83C20090208D5DAF8441014
:10419000D4F88C2021F440011143CAF84410C1071F
:1041A00008D004F10800002101F084FA002818BFAB
:1041B00005466068810708D504F10800012101F077
:1041C00079FA002818BF05466068410708D504F150
:1041D0000800022101F06EFA002818BF0546606849
:1041E000010708D504F12800002101F0E9FA0028B0
:1041F00018BF05466068C10608D504F128000121F2
:1042000001F0DEFA002818BF05466068800607D571
:1042100004F12800022101F0D3FA002818BF054656
:10422000002D18BF01252846BDE8F087012501278C
:104230001EE701256FE7D4F8B400196800F4407256
:104240000025B2F5407F21F47C5102BF054A02EA05
:10425000101211436FF31F301960196E084318666E
:104260004BE500BFCFFFFF002DE9F8430446884629
:10427000002C00F0FE80954B186800F00F004045C0
:104280000BD2186820F00F0040EA08001860186888
:1042900000F00F00404540F0EC802068F04F10F037
:1042A000040F0AD02169BA6902F07002914281BFFD
:1042B000BA6922F070021143B96101070AD5616938
:1042C000FA6902F07002914281BFFA6922F070022D
:1042D0001143F961C1060AD5A169FA6902F4E062E5
:1042E000914281BFFA6922F4E0621143F9618106CB
:1042F0000AD5E1693A6A02F07002914281BF3A6AD6
:1043000022F070021143396281070AD5E168BA6967
:1043100002F00F02914281BFBA6922F00F021143ED
:10432000B961C10738D0B869A16820F4706008434A
:10433000B8616068032806D0022809D1396811F4F1
:10434000003F0ED195E0396811F0007F09D190E06F
:104350003968012802D1C90503D48AE0490740F130
:1043600088803969994621F0070108433861FEF7D2
:104370001BFB064641F288353869616800F0380059
:10438000B0EBC10F06D0FEF70FFB801BA842F3D99C
:1043900003206FE020684B4681070AD5E168BA69BF
:1043A00002F00F0291423FBFBA6922F00F0211439F
:1043B000B961196801F00F0141450AD9196821F066
:1043C0000F0141EA08011960196801F00F01414528
:1043D0004FD141070AD52169BA6902F070029142B2
:1043E0003FBFBA6922F070021143B96101070AD5D3
:1043F0006169FA6902F0700291423FBFFA6922F0E6
:1044000070021143F961C1060AD5A169FA6902F483
:10441000E06291423FBFFA6922F4E0621143F96120
:1044200080060AD5E069396A01F0700188423FBF11
:10443000396A21F070010843386200F07BF8B969ED
:104440003B4AC1F30321515C01F01F01C840B96927
:1044500001F00F01515C2C4A01F01F0120FA01F11B
:1044600011602A49086005480068BDE8F443FEF77A
:10447000D5BA0120C0B201B0BDE8F08380000024AD
:104480003F2202601F4A52F8083C03F007034360D2
:10449000136803F470638360136803F00F03C36051
:1044A000136803F070030361536803F07003436102
:1044B000536803F4E0638361926802F07002C261A2
:1044C0000248006800F00F000860704700200052AA
:1044D00080B500F02FF80B49154B0A68C2F3032290
:1044E0009A5C02F01F0220FA02F20868064900F006
:1044F0000F00185C00F01F0022FA00F0086003496A
:104500000A6080BD18440258040000240000002402
:1045100080B5FFF7DDFF0549054A0968C1F30211BF
:10452000515C01F01F01C84080BD00BF1C4402580F
:10453000A89800084A490869C0F3C20349484A4A92
:10454000032B10D0022B04BF4848704753B90868AA
:1045500010F0200F10461FBF0868C0F3C10022FAF8
:1045600000F07047704780B5D1F828C0D1F828E036
:10457000CB6A486B03F001035B4203EAD003CEF33E
:1045800005106FF35F33002800EE103AB8EE400AD2
:10459000BDE8804004BF002070470CF00303022BED
:1045A00020D0012B1AD0CBB902EE100A9FED311AA0
:1045B000B8EE422A086820EE010A10F0200F39D127
:1045C000086B9FED2E1A6FF35F2081EE022A03EE37
:1045D000100AB8EE433A30EE031A16E00A6B9FED6C
:1045E000262A02E00A6B9FED222A01EE100A6FF3E1
:1045F0005F229FED203AB8EE414A01EE102AB8EE54
:10460000411A82EE042A00EE031A086BB7EE000A84
:1046100031EE000A22EE000AC0F34620013001EE1E
:10462000100AB8EE411A80EE010ABCEEC00A10EE84
:10463000100A70470868C0F3C10022FA00F00A6B44
:1046400003EE100A6FF35F2201EE102AB8EE411A52
:10465000B8EE433A30EE011A83EE022AD5E700BFE6
:104660000044025800093D000090D00340787D01CD
:1046700020BCBE4B000000390024744A0024744C56
:10468000F8B50446002C00F09D812078CE4EC0077E
:104690004CD03169B06A01F03801102915D01829C1
:1046A00004BF00F0030002280FD06068A0B1B0F58D
:1046B000803F06D03168B0F5A02F23D141F480208F
:1046C0003060306840F4803022E0306810F4003F01
:1046D0002CD0606850BB75E1306820F480303060C9
:1046E000306820F480203060FEF75EF905463068BF
:1046F00010F4003F1AD0FEF757F9411B032064293C
:10470000F5D94BE221F480303060306820F480200D
:104710003060FEF749F90546306810F4003F05D1D6
:10472000FEF742F9401B6428F6D962E12078800741
:1047300060D53169B06A11F0380118D0182908BF66
:104740005FEA807013D0E0683168E0B321F01901AE
:1047500008433060FEF728F90546306810F0040F72
:1047600020D1FEF721F9401B0228F6D941E131683A
:10477000E06811F0040F02D0002800F023813168B6
:1047800021F0190108433060FEF70EF90546306844
:1047900010F0040F06D1FEF707F9411B0320022990
:1047A000F5D9FBE1FEF7FAF8216941F203029042E4
:1047B0001AD80803402908BF4FF40030716821F46B
:1047C0007C31084315E021F001003060FEF7ECF881
:1047D0000546306810F0040F0CD0FEF7E5F8411BD9
:1047E00003200229F5D9D9E1706820F0FE4040EAA3
:1047F000016070602078C00644D53169B06A01F06C
:10480000380108291BD0182904BF00F00300012833
:1048100015D0E1693068002900F01C8140F080006B
:104820003060FEF7C1F80546306810F4807F0ED185
:10483000FEF7BAF8411B03200229F5D9AEE1306832
:1048400010F4807F1CBFE069802840F0BB80FEF739
:10485000A5F8216A41F2030290420BD88A0620296A
:10486000304608BF4FF0804250F8041F21F0F84155
:10487000114306E0304650F80C2F22F07C5242EAF9
:10488000016101602078000723D56169706F79B1FB
:1048900040F001007067FEF787F80546706F10F072
:1048A000020F16D1FEF780F8401B0228F6D9A0E0CF
:1048B00020F001007067FEF777F80546706F10F082
:1048C000020F06D0FEF770F8411B03200229F5D92C
:1048D00064E12078800623D5A169306879B140F47D
:1048E00080503060FEF760F80546306810F4005FD5
:1048F00016D1FEF759F8401B0228F6D979E020F4CA
:1049000080503060FEF750F80546306810F4005FC4
:1049100006D0FEF749F8411B03200229F5D93DE1F5
:104920002078400752D4676A002F00F01E8130695A
:1049300000F0380018286DD1B16A306B012F41D0DA
:10494000A26A01F0030393423CD1E26AC1F305116C
:10495000914237D1226B01466FF35F21013A9142B8
:1049600030D1C0F34621626B013A91422AD1C0F3A3
:104970000641A26B013A914224D1C0F30660E16B7B
:10498000013988421ED1706BA16CC0F3CC0081420A
:1049900000F0EB80F06A20F00100F062FEF704F80E
:1049A0000546FEF701F8A842FBD0706B4FF6F87190
:1049B0008843A16C40EAC1007063F06A40F00100D6
:1049C000F062D2E00120E9E000440258D6F8000489
:1049D00040F48070C6F80004FDF7E6FF0546D6F8FF
:1049E000000410F4807F06D1FDF7DEFF401B642831
:1049F000F5D90320D2E0A068F0B3012806D0316FCA
:104A0000052840F0B48041F004003067306F40F07A
:104A10000100B2E0306820F080703060FDF7C4FF24
:104A20000546022F0AD1306810F0007F3DD0FDF717
:104A3000BBFF411B03200229F5D9AFE0306810F01D
:104A4000007F00F09280FDF7AFFF411B0320022999
:104A5000F4D9A3E020F080003060FDF7A5FF054603
:104A6000306810F4807F3FF40DAFFDF79DFF411BD0
:104A700003200229F4D991E0306F20F00100306763
:104A8000306F20F004003067FDF78EFF054641F2DD
:104A90008837306F10F0020F3FF445AFFDF784FF09
:104AA000411B0320B942F4D978E0B06A40F2F331F7
:104AB00004F130034FF47E478843D4E90A120843D7
:104AC00040EA0210B0620FCB07EB412100F2FF1069
:104AD00089B26FF35F2008434FF4FE0101EB0241FE
:104AE00001F4FE0108434FF0FE4101EB036101F0C8
:104AF000FE4108434FF6F8713063F06A20F0010080
:104B0000F062706B8843A16C40EAC1007063F06A88
:104B1000216C20F00C000843F062F06A616C20F018
:104B200002000843F062F06A40F48030F062F06AFC
:104B300040F40030F062F06A40F48020F062F06AE5
:104B400040F00100F062306840F080703060FDF7A6
:104B50002BFF0446306810F0007F06D1FDF724FFDC
:104B6000011B03200229F5D918E0002016E021F0EE
:104B700001003067306F20F004003067FDF714FF4C
:104B8000054641F28837306F10F0020F7FF4CBAE4C
:104B9000FDF70AFF411B0320B942F4D9C0B201B0AE
:104BA000F0BD0000F8B50446002C55D00020A062EE
:104BB00020686149884208D0604988421CBF7E490C
:104BC000884202D0E1680F2946D8E168E26B0123F0
:104BD000083103EB5212C9084A435849564B9842D0
:104BE00004D0754B984218BF884233D1524B98423B
:104BF0001CBF714B984202D1102A04D92CE0112A13
:104C000001D3884228D094F8811031B9002084F86B
:104C10008000204600F094F82068022184F881107A
:104C2000016821F0010101608368A269616803F4F1
:104C3000F81EB2F1806F19D181B1B1F5800F15D195
:104C4000A36B7BB101F48001012383EA915C4FF4F3
:104C5000800113E0082AC9D9012068E0A36BB3F1F1
:104C6000805F66D1036843F4805303604B0203D432
:104C7000E3684FF0010C0AE04FF0000CE368072BEB
:104C800005D30568266D25F48075354302E0056877
:104C900025F4807505600029E569A66AE76B45EA99
:104CA0000E0546EA050647EA060743EA070383605E
:104CB000636B676A43EA0703A76B43EA070342EAA9
:104CC0000302A368D4E90476256A42EA070242EAAD
:104CD0000602D4E9127642EA050242EA010242EAF9
:104CE000060242EA0302A36D42EA070242EA030215
:104CF000C26009D18168012262F3CC210222816065
:104D0000816862F34A218160016DBCF1000F21F0DE
:104D10000101016505D1C168626D21F000411143B7
:104D2000C16000200121C4F8840084F8811001B022
:104D3000F0BD00219CE700BF00380040003C00406F
:104D400010B5B8B0044633A81421FBF79BFC02A8A9
:104D5000C021FBF797FC2068174988422AD100241C
:104D60004FF480500394029002A81A94FEF7E0FDDD
:104D700008B1FCF737FC1148016941F48051016129
:104D8000016901F4805101910199016841F001012B
:104D9000016033A9006800F0010001900198E02053
:104DA00033900220CDE93404369005203790044832
:104DB000FDF726FD38B010BD00300140E044025838
:104DC00000000258034A136823EA000008431060F9
:104DD000704700BF0404005870477047704710B513
:104DE000044654B394F83D0028B9002084F83C00F0
:104DF000204600F024F80220211D84F83D002068A0
:104E000000F056FE012084F8480084F83E0084F843
:104E10003F0084F8400084F8410084F8420084F8A0
:104E2000430084F8440084F8450084F8460084F880
:104E3000470084F83D00002010BD012010BD7047E0
:104E400090F83D1001291CBF01207047022180F815
:104E50003D100168C868B1F1804F40F00100C860A2
:104E600014D0124881421CBF114881420ED0114813
:104E700081421CBF1048814208D0104881421CBFAB
:104E80000F48814202D00F48814208D188680E4AFB
:104E900002400020062A18BFB2F5803F04D00868FF
:104EA00040F0010008600020704700BF000400408F
:104EB00000080040000C00400018004000000140C5
:104EC000004001400004014007000100704700005D
:104ED000F8B504462068C768066907EA0605A90709
:104EE00014D56FF00201016101212177806910F072
:104EF000030F03D02046FFF7E9FF05E0204600F04E
:104F000085F8204600F083F800202077680715D543
:104F100020686FF00401016102212177806910F49B
:104F2000407F03D02046FFF7D1FF05E0204600F088
:104F30006DF8204600F06BF800202077280715D583
:104F400020686FF00801016104212177C06910F029
:104F5000030F03D02046FFF7B9FF05E0204600F01D
:104F600055F8204600F053F800202077E80615D5C4
:104F700020686FF01001016108212177C06910F4E9
:104F8000407F03D02046FFF7A1FF05E0204600F058
:104F90003DF8204600F03BF800202077E80706D0D7
:104FA00020686FF001010161204600F031F817F030
:104FB000800718BF16F4025005D02068114901611E
:104FC0002046FFF70AFF47B116F4807005D020682D
:104FD0000D4901612046FFF7FFFE680606D52068EF
:104FE0006FF040010161204600F01CF8A80658BF90
:104FF000F8BD20686FF0200101612046BDE8F8404F
:10500000FFF7ECBE7FDFFFFFFFFEFFFF704770473B
:1050100000680349884208BFFDF7CABC704700BF5B
:10502000001400407047FEE710B501314FF0300C1E
:105030004FF0370E00230DE00EEB1074B0F1204F4F
:10504000A2F1010238BF4CEA1074000101F8014CD2
:105050000B700231002AEFD110BD000010B51A48C4
:105060001A494FF0010E4FF0050C04230F220224C1
:1050700001600021C0E9021180F810E041748174E0
:10508000C0E905C300F11C0CACE81C40C0E90B23CF
:1050900008221823122400F13C0CC0E90D12ACE8E0
:1050A0001A00C0E9122420220165C0E91541C0E9B7
:1050B0001712C0E91914FDF7A9F818B1BDE810409E
:1050C000FCF790BA10BD00BFC05C002400A00040F7
:1050D00010B51B481B494FF0010E4FF0050C04237F
:1050E0000F22022401600021C0E9021180F810E0C3
:1050F00041748174C0E905C300F11C0CACE81C408C
:10510000C0E90B234FF4A06208231224C0E90D2349
:105110004FF0180C2022C0E90F1CC0E91143C0E970
:105120001341C0E91541C0E91712C0E91914FDF790
:105130006DF818B1BDE81040FCF754BA10BD00BFBF
:10514000605D002400A40040B0B50948094A0A4C3B
:105150000021A047094D0B4A002128600848A047BC
:1051600068600948094A0021A047A860B0BD00BF97
:1051700085090008849800083D790008E0010024B2
:10518000E3090008B8980008717700088C990008B6
:105190002DE9F04387B04FF0000900220726CDF833
:1051A00018902C48016841F080010160016801F00D
:1051B000800101910199016841F0040101600168D9
:1051C00001F0040101910199016841F001010160C0
:1051D000016801F0010101910199016841F00201AA
:1051E0000160016801F0020101910199016841F03B
:1051F000080101600721006800F008000190019893
:10520000154C04F500652846FDF7C2FB2046102129
:1052100001224FF010080127FDF7BAFB02A880E831
:10522000C00202AE2846CDF814903146FDF7E8FAE8
:105230000220CDE902870497314605902046FDF70C
:10524000DFFA4FF080600021FFF7BCFD07B0BDE83A
:10525000F08300BFE04402580000025810B5114C22
:1052600011484FF48001002207234FF0806C4FF06B
:10527000405E84E80F0004F134002821C4E90422D0
:10528000C4E906CEC4E90822C4E90A22FBF7FAF908
:105290002046FFF787FC18B1BDE81040FCF7A2B923
:1052A00010BD00BFE46200240030014080B510480A
:1052B0001049002200F0CFFF08B1FCF793F90C4829
:1052C0000D4901F025FA08B1FCF78CF908480B49A3
:1052D00000F0ECFD08B1FCF785F9054801F040FA53
:1052E00008B1FCF77FF9BDE88040FEF719BB00BFAD
:1052F000E459002488000024A8000024440100246C
:10530000FEE7FEE70148FDF7DBBD00BF005E0024BD
:1053100070B52DED108B0446B0EE60BAB0EE408A49
:105320006069B649084242D094ED140A04F09EF830
:105330009FEDB31A94ED032A22EE011AB4EEC10ACE
:10534000F1EE10FA33DB94ED17AAB0EE4A0A04F03E
:105350008DF8B0EE409A9FEDAB0AB4EEC09AF1EE34
:1053600010FA24DB94ED0B0A3AEE400A04F07EF8C2
:105370009FEDA51A80EE090A04F16800B4EEC10A97
:10538000F1EE10FA10DDD0E90012013142F1000215
:10539000C0E9001240F2F510081A72F1000024BFB3
:1053A000012084F8700002E00021C0E9001104F13E
:1053B0006000FBF7E1FE3BEE489AB0EE40AAB0EE8B
:1053C000490A84ED19AA84ED0B8A84ED17BA84ED9D
:1053D0000D9A04F04BF894ED041AB4EEC10AF1EE04
:1053E00010FA53DD94ED001A29EE01CA84ED10CABB
:1053F00094ED012A22EE091A21EE0ADA84ED13DA7D
:1054000094ED0E3A94ED021A39EE434A21EE044A25
:1054100084EE0ABA84ED12BA666916F0400F13D012
:1054200039EE033AB6EE004BB7EEC22AB7EEC33AF6
:1054300023EE043BB7EECA4A23EE022B22EE042BE6
:10544000B7EEC2DB84ED13DA1DEE105A300432D50C
:1054500094ED112A29EE022AB5EEC02AF1EE10FAD7
:1054600029DD94ED082AB4EEC20AF1EE10FA22DD2D
:1054700094ED073A32EE034AB4EEC40AF1EE10FAA4
:105480000DDD9FED62DA0025E56414E000259FED57
:105490005F0A04F13800C4E91355A16CA2E033EEB1
:1054A000400A32EE000A80EE030A20EE0DDA84EDA7
:1054B00013DA1DEE105A300709D594ED0C0A30EEC0
:1054C000480A21EE000A80EE0ABA84ED12BA70038F
:1054D00011D594ED0A0A94ED161A2BEE0A2A3AEE2B
:1054E000003A20EE010A82EE031A80EE030A31EE42
:1054F00000BA84ED12BA94ED11EAF0073AD04448AC
:105500003EEE0C0A3EEE0DFA30EE0B0A80ED00FA8C
:1055100003F0ACFF94ED031AB4EEC10AF1EE10FAF9
:105520000ADD2EEE090AB5EEC00AF1EE10FAC2BF8E
:1055300000259FED36DAE56494ED060AB4EEC0FA74
:10554000F1EE10FA07DD9FED31DA0025B0EE40EA0A
:10555000E56484ED110AB1EE400AB4EEC0FAF1EE52
:1055600010FA07DA9FED29DA0025B0EE40EAE5648B
:1055700084ED110A3DEE0E0AF00430EE0C1A84EDB3
:10558000110A31EE0B1A84ED141A11D594ED090AA3
:1055900094ED152A21EE0A1A3AEE003A20EE020A9C
:1055A00081EE031A80EE030A31EE001A84ED141A1C
:1055B00094ED030A04F138001BEE101AB4EEC01A81
:1055C000F1EE10FAC4BF84ED140AB0EE401AB1EE49
:1055D000400AB4EEC01AF1EE10FAB4BF84ED140A1A
:1055E000B0EE410A84ED0C8A84ED150AA16580EDC8
:1055F000009AE563BDEC108B70BD00BF80969800EB
:105600006F12833A17B7D1383333733F000000006D
:10561000701900240A6802604A6842608A688260E1
:10562000CA68C2600A6902614A6942618A69826124
:10563000CA69C2610A6A02624A6A4262896A81620E
:105640006030FBF799BD0000000000000000000082
:10565000EFF30980BFF36F8F154B1A681EF0100F20
:1056600008BF20ED108A20E9F04F10602DE90900F5
:105670004FF0500072B680F31188BFF34F8FBFF325
:105680006F8F62B603F04EF94FF0000080F311887F
:10569000BDE8090019680868B0E8F04F1EF0100F67
:1056A00008BFB0EC108A80F30988BFF36F8F704792
:1056B00060640024F8B5F44F05460C46B86A00F063
:1056C0000300032801D1012076E0386820F08060D3
:1056D0003860FDF769F90646386810F0006F05D0AC
:1056E000FDF762F9801B0228F6D962E0B86A2968E2
:1056F0002B1D4FF47E46002C20F47C3040EA013014
:10570000B8620FCB06EB412100F2FF1089B26FF3B4
:105710005F2040EA01004FF4FE0101EB024101F479
:10572000FE0140EA01004FF0FE4101EB036101F090
:10573000FE4140EA0100B863F86A696920F0C000E0
:1057400040EA0100F862F86AA96920F0200040EA06
:1057500001004FF6F871F862F86A20F01000F86264
:10576000F86B20EA0100E96940EAC100F863F86AD1
:1057700040F01000F86208D04FF40010012C08BF70
:105780004FF48010F96A084302E0F86A40F4002000
:10579000F862386840F080603860FDF705F904462B
:1057A000386810F0006F06D1FDF7FEF8001B0328E3
:1057B000F6D3032000E00020C0B201B0F0BD00BF6E
:1057C000F8B5B14F05460C46B86A00F0030003284F
:1057D00001D1012076E0386820F080503860FDF774
:1057E000E3F80646386810F0005F05D0FDF7DCF8F6
:1057F000801B0228F6D962E0B86A29682B1D4FF495
:105800007E46002C20F07C7040EA0150B8620FCB3D
:1058100006EB412100F2FF1089B26FF35F2040EAEE
:1058200001004FF4FE0101EB024101F4FE0140EAE8
:1058300001004FF0FE4101EB036101F0FE4140EA3F
:1058400001003864F86A696920F4406040EA0100A8
:10585000F862F86AA96920F4007040EA01004FF686
:10586000F871F862F86A20F48070F862786C20EAC7
:105870000100E96940EAC1007864F86A40F4807088
:10588000F86208D04FF08070012C08BF4FF4000080
:10589000F96A084302E0F86A40F48000F862386868
:1058A00040F080503860FDF77FF80446386810F00B
:1058B000005F06D1FDF778F8001B0328F6D303201C
:1058C00000E00020C0B201B0F0BD00BF0000000049
:1058D000074B19680868B0E8F04F80F30988BFF3F8
:1058E0006F8F4FF0000080F31188704700BF00BF3A
:1058F0006064002480B50548006803F0E9FB0128D6
:105900001CBFBDE8804003F09FB880BD10E000E000
:1059100070B59CB009A84C21FAF7B4FE01A820216B
:10592000FAF7B0FE0220FDF7D7FF002000902548CF
:10593000016821F001010160006800F001000090A1
:105940002148016841F440410160016801F440418F
:1059500000910099016811F4005FFBD00120402400
:105960000825002609904FF480300A900220CDE9E6
:1059700012001490CDE91540CDE917500C20199074
:1059800009A8CDE91A66FEF77BFE18B1EFF3108087
:1059900072B6FEE73F20022101900320CDE9020606
:1059A0004FF48060CDE904540694CDE9070401A8C2
:1059B000FEF75AFC18B1EFF3108072B6FEE71CB088
:1059C00070BD00BF2C040058184802582C480168CC
:1059D00041F4700101602B48016801F00F010629B4
:1059E0009FBF0168072262F30301016010B52649D9
:1059F0000A6842F001020A6000220A610B68234C27
:105A000023400B60036813F0080F1FBF03680724CF
:105A100064F3030303608A61CA610A621C4B8B62F0
:105A20001C4BCB621C4B0B634A638B63CA630B64D6
:105A30004A640B6823F480230B600A66174B1B68CB
:105A4000B2EB537FBDE8104002BF154A012313603B
:105A5000D1F8D42012F4805F18BF7047D1F8D42059
:105A600043F2D20342F48052C1F8D4204FF40052E2
:105A70008350D1F8D40020F48050C1F8D40070478E
:105A800088ED00E000200052004402587FEDF6EA65
:105A9000000202020000FF01800201010010005C10
:105AA000088100510148FFF713BA00BF6C6300245E
:105AB000D0F800C0B0F1804F0ED02A4B98421CBFE6
:105AC000294B984208D0294B98421CBF284B98423A
:105AD00002D0284B984204D14B682CF0700243EA64
