:020000040800F2
:10000000584F0124610300086120010849150108C7
:10001000C91C0108C9170008B98A010800000000BE
:100020000000000000000000000000008131010815
:10003000014A00080000000091260108D935010896
:100040007F0300087F0300087F0300087F03000888
:100050007F0300087F0300087F0300087F03000878
:100060007F0300087F0300087F030008A928000819
:10007000B9280008C92800087F0300087F0300088A
:100080007F0300087F0300087F0300083151000848
:100090005151000841510008615100087F030008D8
:1000A0007F0300087F0300087F0300087F03000828
:1000B0007F0300087F0300087F0300087F03000818
:1000C0007F0300087F0300087F0300087F03000808
:1000D0007F030008C14B01087F0300087F0300086D
:1000E0007F0300087F030008000000007F03000872
:1000F0007F0300087F0300087F0300087F030008D8
:100100007F0300087F0300087F0300087F030008C7
:100110007F0300087F0300087F030008713801088F
:100120007F0300087F0300087F0300087F030008A7
:100130007F0300087F0300087F0300087F03000897
:1001400000000000000000000000000000000000AF
:100150007F0300087F0300087F030008D14B0108DC
:100160007F0300087F0300087F0300087F03000867
:100170007F0300087F0300087F03000800000000E1
:100180007F0300087F0300087F0300087F03000847
:100190007F0300087F0300087F0300087F03000837
:1001A0007F0300087F0300087F0300087F03000827
:1001B0007F0300087F0300087F0300087F03000817
:1001C0007F0300087F0300087F0300087F03000807
:1001D0007F030008D92001087F0300087F0300087F
:1001E0007F0300087F0300087F0300087F030008E7
:1001F0007F0300087F0300087F0300087F030008D7
:100200007F0300087F0300087F0300087F030008C6
:100210007F0300087F0300087F0300087F030008B6
:100220007F0300087F0300087F0300080000000030
:100230007F0300087F030008000000007F03000820
:100240007F0300087F0300087F0300087F03000886
:100250007F0300087F0300087F0300087F03000876
:100260007F0300087F0300087F0300087F03000866
:100270007F0300087F0300087F03000800000000E0
:100280007F0300087F0300087F03000800000000D0
:10029000000000007F03000800F002F800F050F8B2
:1002A0000AA090E8000C82448344AAF10107DA45D1
:1002B00001D100F045F8AFF2090EBAE80F0013F0D3
:1002C000010F18BFFB1A43F00103184768D901005A
:1002D00088D901000A4410F8014B14F00F0508BF3B
:1002E00010F8015B240908BF10F8014B6D1E05D002
:1002F00010F8013B6D1E01F8013BF9D1641E03D0DB
:10030000641E01F8015BFBD19142E4D37047000009
:100310000023002400250026103A28BF78C1FBD80E
:10032000520728BF30C148BF0B6070471FB51DF092
:10033000AEF89DE8030000F0EDF91FBD10B510BD4B
:1003400000F054FA1146FFF7F1FF18F055FE00F0E7
:1003500072FA03B4FFF7F2FF03BC00F0A3FA000047
:100360000A4880470A4880470A480047FEE7FEE7F8
:10037000FEE7FEE7FEE7FEE7FEE7FEE7FEE7FEE755
:1003800005480649064A074B704700000951000816
:10039000E13601089902000858FF0024584F012453
:1003A000583F0124583F012470B5064600F096F9E5
:1003B000056806F10B0020F00704B4429CBF002042
:1003C00070BD2B466A68BAB11068A04210D304F120
:1003D000080188423CBF5068586007D35168101923
:1003E00041601168091B016058601460101D70BDE8
:1003F00013465268002AE7D12146284600F076F9D4
:100400000028DED170BD70B50446051F00F066F906
:100410000068002C14BF446870BD002C18BFAC42AB
:100420003CBF20466468F8D301680A18AA4218BF86
:10043000456003D12A6805461144016028684119C6
:10044000A1421CBF6C6070BD61686960216808448E
:10045000286070BD53EA020C00F069802DE9F04B72
:100460004FF00006002B1FBFB3FA83F503FA05F423
:1004700024FA05F65E4012BF1643B2FA82F502FA7C
:1004800005F4C5F120051EBF22FA05FC44EA0C0460
:10049000203556EA044C4FEA144418BF641C4FF050
:1004A00000084FF00009904271EB030C39D300298A
:1004B00019BFB1FA81F701FA07F6B0FA80F700FA2E
:1004C00007F6C7F120071EBF20FA07FC46EA0C0614
:1004D0002037B6FBF4FCA7EB0507103F07F01F0B16
:1004E000CBF120062CFA06F60CFA0BFB44BFB34600
:1004F0000026202FA4BF5E464FF0000B5BEA060CDF
:1005000008BF4FF0010B19EB0B0948EB0608ABFBDA
:10051000027C06FB02CC0BFB03CCC01B71EB0C0175
:10052000C1E70B46024641464846BDE8F08B13B58D
:10053000084318BF4FF0FF300146AFF30080BDE81D
:100540001C407047032A40F2308010F0030C00F08A
:10055000158011F8013BBCF1020F624498BF11F8FD
:1005600001CB00F8013B38BF11F8013BA2F10402B6
:1005700098BF00F801CB38BF00F8013B11F003032E
:1005800000F02580083AC0F0088051F8043B083A92
:1005900051F804CBA0E80810F5E7121D5CBF51F834
:1005A000043B40F8043BAFF30080D20724BF11F8AE
:1005B000013B11F801CB48BF11F8012B24BF00F813
:1005C000013B00F801CB48BF00F8012B704710B584
:1005D000203AC0F00B80B1E81850A0E81850B1E8FC
:1005E0001850A0E81850203ABFF4F5AF5FEA027C3B
:1005F00024BFB1E81850A0E8185044BF18C918C06B
:10060000BDE810405FEA827C24BF51F8043B40F80B
:10061000043B08BF7047D20728BF31F8023B48BFF0
:1006200011F8012B28BF20F8023B48BF00F8012B2E
:10063000704702F0FF0343EA032242EA024200F05D
:1006400024B84FF000020429C0F0128010F0030C0F
:1006500000F01B80CCF1040CBCF1020F18BF00F8B5
:10066000012BA8BF20F8022BA1EB0C0100F00DB864
:100670005FEAC17C24BF00F8012B00F8012B48BFC2
:1006800000F8012B70474FF0000200B51346944666
:100690009646203922BFA0E80C50A0E80C50B1F1DA
:1006A0002001BFF4F7AF090728BFA0E80C5048BFEE
:1006B0000CC05DF804EB890028BF40F8042B08BF8C
:1006C000704748BF20F8022B11F0804F18BF00F888
:1006D000012B704770477047704700000048704713
:1006E00048010024704770477047704738B504468A
:1006F0000A4600206946AFF30080002808BF38BDD5
:1007000002460099204600F04FF8012038BD012034
:1007100000F064B8F8B5AFF30080054600200C4641
:10072000102000BF0646A819A0420DD932466946DE
:100730000020AFF30080070008BF00F04FF80098DA
:10074000A04218BF0546C419FFF7C8FF0560074659
:10075000F01D20F007004619284600F00AF8B442C0
:1007600008BFF8BDA21B31463868BDE8F84000F06C
:100770001BB800210160C0E90110704710207047CC
:1007800010B500F00DF8006810BD10B5044600F07B
:1007900007F8046010BD00000048704740010024C5
:1007A0000048704740010024034640688C460028FA
:1007B00018BF88423CBF03464068F8D31868184405
:1007C000884207D00CF1030020F00700001D411AF9
:1007D000521A0146081D0A60FFF715BE10B500F059
:1007E00039F8BDE8104000F02FB870477546FFF7A4
:1007F000D3FFAE4605006946534620F00700854604
:1008000018B020B5FFF7BCFDBDE820404FF0000652
:100810004FF000074FF000084FF0000BAC46ACE87B
:10082000C009ACE8C009ACE8C009ACE8C00921F0D7
:1008300007018D46704710B50446AFF3008020468F
:10084000BDE81040FFF785BD002801D000F02AB8B0
:100850007047000010B5012805D0002103A000F06A
:1008600027F8012010BD09A1F8E7000053494752BD
:10087000544D454D3A204F7574206F662068656170
:1008800070206D656D6F7279000000003A20486538
:100890006170206D656D6F727920636F7272757013
:1008A0007465640001491820ABBEFEE72600020013
:1008B00070B505460C460A2000E06D1C00F011F8EA
:1008C00035B128780028F8D102E0641C00F009F85E
:1008D00014B120780028F8D1BDE870400A20AFF3A9
:1008E000008008B569468DF800000320ABBE08BD46
:1008F00084B08DED021ACDED010A8DED000A9DED5B
:10090000000A9FED271AB4EE410AF1EE10FA0ADB55
:10091000FFE79DED000A9FED231AB4EE410AF1EEC8
:1009200010FA04DDFFE700208DF80F0033E09DEDA5
:10093000010A9FED1B1AB4EE410AF1EE10FA0ADB30
:10094000FFE79DED010A9FED171AB4EE410AF1EEA3
:1009500010FA04DDFFE700208DF80F001BE09DED8D
:10096000020A9FED0F1AB4EE410AF1EE10FA0ADB0B
:10097000FFE79DED020A9FED0B1AB4EE410AF1EE7E
:1009800010FA04DDFFE700208DF80F0003E00120DE
:100990008DF80F00FFE79DF80F0004B0704700BF0F
:1009A000000034C30000344380B58CB08DED0B1AC9
:1009B000CDED0A0A8DED090A089007919DED090A0F
:1009C0009FED202A20EE020A8DED060A9DED060A13
:1009D0009DED0A1A01EE020A8DED050A9DED060A4B
:1009E0001CF04AFA8DED010A9DED050A1CF044FA4F
:1009F0009DED011A9FED142A8DED022A20EE020AC8
:100A00009FED122A8DED032A01EE020A089880ED6F
:100A1000000A9DED060A1CF02FFB8DED040A9DEDEA
:100A2000050A1CF029FB9DED023A9DED032A9DED80
:100A3000041A20EE030A01EE020A079880ED000A6C
:100A40000CB080BD35FA8E3C000091430000B443E9
:100A500080B592B08DED101ACDED0F0A8DED0E0A16
:100A60000D908DF833100D9820B9FFE700208DF818
:100A70004700B7E00E980B900F980A909DED0B1A67
:100A80009DED0A0A20EE000A01EE010A8DED090A29
:100A90009DED090A1CF0B8FB8DED080A9DED080AD2
:100AA0009FED521AB4EE410AF1EE10FA0ADCFFE7AC
:100AB0009DED080A9FED4E1AB4EE410AF1EE10FAD0
:100AC00004DAFFE700208DF847008BE09DED090A6E
:100AD0009FED481A30EE010A9FED471A30EE010AE9
:100AE0009FED461A80EE010A8DED070A9DED070A7B
:100AF000B7EE001AB4EE410AF1EE10FA04DDFFE79A
:100B00004FF07E500790FFE79DED070ABFEE001AF9
:100B1000B4EE410AF1EE10FA05DAFFE70020CBF659
:100B200080700790FFE79DF8330038B9FFE79DED2F
:100B3000070A1BF0BFFF8DED060A08E09DED070ACE
:100B40001BF0B8FFB1EE400A8DED060AFFE79DED00
:100B50000A0ADDED0B0A1CF039F88DED030A9DED54
:100B6000060A1CF089FA9FED261A8DED011A20EE77
:100B7000010A8DED020A9DED060A1CF07DF99DED3E
:100B8000012AB0EE401A9DED020ADFED1E0A41EE89
:100B9000020A1CF01BF8B0EE401A9DED030A30EE7D
:100BA000410A8DED050A9DED050A9FED171A8DEDA1
:100BB000041A20EE010A00F09BF89DED041A0D982E
:100BC00080ED000A9DED060A20EE010A00F090F883
:100BD0000D9880ED010A0D990020886001208DF8A4
:100BE0004700FFE79DF8470012B080BDA480224473
:100BF000E1FA8B420020FDC70042A4C700E84B4841
:100C0000000091430000B443E12E65420000000063
:100C100080B5EAB04DF2BC51C0F601013BA800908E
:100C2000BC220292FFF7D3FC009803F06DF8014656
:100C300046F2A470C2F2004001900160006803F027
:100C40000FFA01980068B2EE040ADFED260A03F0FD
:100C5000ABF9019800689FED240ADFED240A03F048
:100C6000BBF9029A4DF27861C0F601010CA803901D
:100C7000FFF7ADFC039801F06BFB014646F2A8704C
:100C8000C2F200400160006801F05AFB00200490AD
:100C900005F09AF9014604980B910B9905910421EE
:100CA0008DF8181001218DF81910ADF81A004FF4C5
:100CB000FA71ADF81C1014218DF81E1040F2DC51B1
:100CC000ADF820100021C3F6B45109918DF8280029
:100CD00005A805F039FA46F2AC71C2F2004108608D
:100CE0006AB080BDCDCCCC3D9A99993E9A99193F76
:100CF00080B582B08DED010A9DED010ADFED170A86
:100D00001CF062F98DED000A9DED000A9FED141AAA
:100D1000B4EE410AF1EE10FA09DDFFE79DED000A9D
:100D20009FED101A30EE010A8DED000AFFE79DEDF0
:100D3000000A9FED0D1AB4EE410AF1EE10FA09DA3D
:100D4000FFE79DED000A9FED051A30EE010A8DEDDB
:100D5000000AFFE79DED000A02B080BD0000B44329
:100D6000000034430000B4C3000034C3000000009E
:100D700081B0009046F2A470C2F200400068F0B169
:100D8000FFE746F2A470C2F20040006890F8FE014E
:100D9000A8B1FFE746F2A470C2F20040006890EDEF
:100DA000031A46F2A070C2F2004090ED000A9FEDD7
:100DB000192A11EE020A009880ED000AFFE746F2B8
:100DC000A870C2F20040006890B1FFE746F2A87038
:100DD000C2F20040006890F8D60148B1FFE746F241
:100DE000A870C2F200400068406A00994860FFE7BE
:100DF00046F2AC70C2F20040006848B1FFE746F22C
:100E0000AC70C2F200400068C06800998860FFE7DB
:100E100001B07047E12E654280B586B005A900910A
:100E200081ED001A41ED010A01ED020A46F2A470BB
:100E3000C2F20040006811ED020A46F2A071C2F24F
:100E4000004191ED001A30EE010A03F0F9F8009923
:100E500046F2A870C2F20040006811ED010A01F0EC
:100E6000DFFB009890ED000A9FED101A80EE010A5A
:100E7000BDEEC00A10EE100AADF80A0046F2AC70E2
:100E8000C2F2004001900068BDF90A1005F064FA52
:100E9000019800684FF4FA7105F06EFA0198006845
:100EA000142105F049FA06B080BD00BF0000B43D32
:100EB00080B582B00190FFE700F006F8012018F03D
:100EC0008BF9F9E70000000080B592B00BA80790FD
:100ED00046F64450C2F200400068C07B8DF84700DF
:100EE00041F2EC60C2F200400890FFF741FF089920
:100EF00008684A688B6841F22061C2F200418B6049
:100F00004A6008609DF8470081F83A0041F260604D
:100F1000C2F2004000780146099150B1FFE70998FC
:100F2000012800F0C380FFE70998022800F0EE8056
:100F3000AEE146F2A470C2F200400068002800F062
:100F4000B480FFE746F2A470C2F20040006890F857
:100F5000FE01002800F0A980FFE746F29F70C2F270
:100F600000400078C0B9FFE746F2A470C2F200402A
:100F7000006890ED030A9FEDCA1A20EE010A46F2BE
:100F8000A070C2F2004080ED000A46F29F71C2F2EA
:100F9000004101200870FFE741F2EC61C2F200411C
:100FA0000020086046F2A870C2F200400068A8B1B4
:100FB000FFE746F2A870C2F20040006890F8D60140
:100FC00060B1FFE746F2A870C2F200400068406AD4
:100FD00041F2EC61C2F200414860FFE746F2AC70BA
:100FE000C2F20040006860B1FFE746F2AC70C2F2A6
:100FF00000400068C06841F2EC61C2F200418860C4
:10100000FFE741F2EC60C2F2004001684268836889
:1010100046F22000C2F20040069083604260016008
:1010200090ED000AD0ED010A90ED021A46F22C0074
:10103000C2F20040049046F23001C2F20041059134
:10104000FFF7B2FC049A05990698136841F22062F2
:10105000C2F2004253620968916201684268836883
:1010600047F25070C2F2004083604260016090ED30
:10107000000AD0ED010A90ED021AFFF7CDFE46F20C
:10108000A470C2F20040006802F012FE03F074FB8C
:1010900047F24C70C2F2004080ED000A41F26061FC
:1010A000C2F2004101200870FFE7F1E046F22000A3
:1010B000C2F2004001684268836847F25070C2F291
:1010C000004083604260016090ED000AD0ED010AAB
:1010D00090ED021AFFF7A0FE03F04EFB47F24C70B2
:1010E000C2F2004090ED001A30EE410AB7EE001A4D
:1010F000B4EE410AF1EE10FA07DBFFE741F260615E
:10110000C2F2004102200870FFE7C1E09DF84700ED
:1011100001280FD1FFE746F22001C2F20041086822
:101120004A688B6847F25071C2F200418B604A6096
:10113000086094E09DF84700022840F08F80FFE7A8
:10114000079846F22C01C2F2004191ED000A9FED92
:10115000521A30EE010A80ED030A46F23001C2F263
:10116000004191ED000A9FED4D1A30EE010A80ED2D
:10117000040A0021029110910E9941F22062C2F2FC
:1011800000420392D1620F99116390ED031A90ED22
:10119000040A20EE000A01EE010A1CF035F8079857
:1011A0000299039A82ED0D0A90ED030AD0ED040A2C
:1011B00090ED051A0BA8FFF74BFC03998DF82B0057
:1011C0000B980C9A0D9B0B62CA6188619DF82B00ED
:1011D00081F838009DF82B0058B1FFE7079890ED93
:1011E000000AD0ED010A90ED021AFFF781FB019091
:1011F00002E000200190FFE701988DF82A009DF899
:101200002A0041F22061C2F2004181F839009DF8C4
:101210002B00D0B1FFE79DF82A00B0B1FFE70B9893
:1012200047F25071C2F2004108600C98486046F2E3
:101230002000C2F200408068886041F22061C2F262
:101240000041888F0130888707E041F22061C2F2B7
:101250000041C88F0130C887FFE7FFE7FFE747F28B
:101260005070C2F20040009090ED000AD0ED010AEB
:1012700090ED021AFFF7D0FD009908684A688B6864
:1012800041F22061C2F200414B610A61C860FFE790
:1012900002F076FB12B080BD0000C8420000484258
:1012A000E12E65420000000080B58CB08DF82E0064
:1012B0000A918DF827200020ADF8240008900790AF
:1012C000ADF81800059004900A9848B1FFE79DF822
:1012D000270028B1FFE79DF82700092804D3FFE77E
:1012E00004208DF82F0034E09DF82E0040F080009F
:1012F0008DF81C0000F034F841F20000C5F6020041
:1013000002900821019100220AF052F89DF827006E
:10131000821C07A804A900F033FA0199024602983A
:101320008DF80F2001220AF043F89DF80F0028B134
:10133000FFE79DF80F008DF82F000AE00A9804A936
:1013400002319DF82720FFF7FDF800208DF82F00CF
:10135000FFE79DF82F000CB080BD000000000000EA
:1013600080B582B041F20000C5F60200009008216D
:10137000012201920AF01CF80098019A10210AF04B
:1013800017F802B080BD000080B58CB08DF82E003B
:101390000A918DF8272000208DF8240008900790EE
:1013A0008DF81800059004900A9848B1FFE79DF861
:1013B000270028B1FFE79DF82700092804D3FFE79D
:1013C00004208DF82F0034E09DF82E0040F08000BE
:1013D0008DF81C00FFF7C4FF41F20000C5F60200C3
:1013E000029010210191002209F0E2FF9DF82700F0
:1013F000421C07A804A900F0C3F90199024602980B
:101400008DF80F20012209F0D3FF9DF80F0028B1BD
:10141000FFE79DF80F008DF82F000AE00A9804A955
:1014200001319DF82720FFF78DF800208DF82F005F
:10143000FFE79DF82F000CB080BD00000000000009
:1014400080B586B004900020ADF80C00029004989E
:1014500020B9FFE704208DF817002BE0122002A925
:101460000622FFF721FF8DF807009DF8070028B13D
:10147000FFE79DF807008DF817001BE09DF80800B6
:101480009DF8091040EA0120049908809DF80A009F
:101490009DF80B1040EA0120049948809DF80C004B
:1014A0009DF80D1040EA01200499888000208DF8F5
:1014B0001700FFE79DF8170006B080BD0000000090
:1014C00080B584B00290029820B9FFE704208DF81F
:1014D0000F007AE0029901F12800293100F080F82C
:1014E0008DF807009DF8070028B1FFE79DF8070079
:1014F0008DF80F0069E00298FFF7A2FF8DF8070052
:101500009DF8070028B1FFE79DF807008DF80F0050
:101510005BE00298063000F0A7F88DF807009DF810
:10152000070028B1FFE79DF807008DF80F004CE099
:101530000298B0F9001000EE101AB8EEC00A9FED44
:10154000251A20EE010A80ED030A0298B0F9021074
:1015500000EE101AB8EEC00A20EE010A80ED040A6F
:101560000298B0F9041000EE101AB8EEC00A20EE8E
:10157000010A80ED050A0298B0F9061000EE101A73
:10158000B8EEC00A9FED141A20EE010A80ED060A9B
:101590000298B0F9081000EE101AB8EEC00A20EE5A
:1015A000010A80ED070A0298B0F90A1000EE101A3D
:1015B000B8EEC00A20EE010A80ED080A0298243035
:1015C00000F092F88DF80F00FFE79DF80F0004B0CF
:1015D00080BD00BF0F5CEB3A58A08B3A00000000C2
:1015E00080B584B002900191029818B1FFE701988C
:1015F00020B9FFE704208DF80F0031E002990020A8
:101600000122FFF751FE8DF803009DF8030028B179
:10161000FFE79DF803008DF80F0021E001990020FD
:101620000122FFF7B1FE8DF803009DF8030028B1F9
:10163000FFE79DF803008DF80F0011E00298007895
:1016400045F6F001C2F2004108700198007845F6B5
:101650002011C2F20041087000208DF80F00FFE752
:101660009DF80F0004B080BD80B586B004900020C6
:10167000ADF80C000290049820B9FFE704208DF823
:1016800017002BE0022002A90622FFF77DFE8DF84D
:1016900007009DF8070028B1FFE79DF807008DF8C7
:1016A00017001BE09DF808009DF8091040EA012092
:1016B000049908809DF80A009DF80B1040EA01206B
:1016C000049948809DF80C009DF80D1040EA012017
:1016D0000499888000208DF81700FFE79DF8170017
:1016E00006B080BD0000000080B584B002900020EC
:1016F000ADF80600029820B9FFE704208DF80F002E
:1017000039E022200DF106010222FFF7CDFD8DF810
:1017100003009DF8030028B1FFE79DF803008DF852
:101720000F0028E09DF806009DF80710C00040EA71
:101730005110ADF80400BDF90400B0F5806F07DB6F
:10174000FFE7BDF80400A0F50060ADF80400FFE776
:10175000BDF9040000EE100AB8EEC01AB4EE002A7B
:10176000B3EE070A01EE020A029880ED000A00209B
:101770008DF80F00FFE79DF80F0004B080BD00005A
:1017800080B586B004900391ADF80A200499039ABD
:10179000BDF80A30EC466420CCF8000046F2A050B8
:1017A000C2F200400EF000F930B1FFE7FFF7D8FDBC
:1017B00001208DF8170003E000208DF81700FFE7E7
:1017C0009DF8170006B080BDFFE7FEE700000000AF
:1017D00084B08DF80F000291ADF806209DF80F003F
:1017E0000146009123281DD80099DFE801F012136B
:1017F0001415161B1B1B1B1B1B1B1B1B1B1B1B1B4B
:101800001B1B1B1B1B1B1B1B1B1B1B1B1B1B17182F
:10181000191A08E007E006E005E004E003E002E052
:1018200001E000E0FFE7002004B070470000000086
:10183000002070470000000080B582B045F69C2073
:10184000C2F20040009040F62061C2F20041002246
:10185000019213F06DFD009840F22061C2F2004148
:1018600013F046FD019A009840F60001C3F204010E
:1018700013F05EFD009840F20001C3F2040113F082
:1018800037FD019802B080BD80B584B0039002910D
:1018900003980299096816F0BBFD039945F69C2050
:1018A000C2F20040019013F023FD019813F0C4FC34
:1018B000002004B080BD000083B0029001918DF83B
:1018C000032000208DF802009DF9020003B070474C
:1018D00080B586B00490ADF80E1000208DF80D0094
:1018E00045F69C20C2F20040D0F8BC02029002985B
:1018F000D0F8140220B1FFE701208DF8170013E0A3
:101900000499BDF80E2045F69C20C2F200400190DB
:1019100013F00EFD019813F017FE8DF80D009DF8E1
:101920000D008DF81700FFE79DF8170006B080BD89
:1019300080B582B0019010F087F9FFE700F070F9F0
:10194000012017F049FCF9E780B582B08DED010A5E
:10195000CDED000A9DED010A9DED001A30EE410A21
:1019600000F022F802B080BD41F2E062C2F2004213
:1019700000201060506040F22811C2F200410B7844
:1019800053720978B1FA81F14909117240F20011DC
:10199000C2F200414A60137A0B7008721368CB6080
:1019A00012680A614861704781B08DED000AFFE757
:1019B0009DED000A9FED141AB4EE410AF1EE10FA03
:1019C00009DDFFE79DED000A9FED121A30EE010AD6
:1019D0008DED000AECE7FFE79DED000A9FED0B1A85
:1019E000B4EE410AF1EE10FA09DAFFE79DED000AC4
:1019F0009FED071A30EE010A8DED000AECE79DED30
:101A0000000A01B0704700BF00003443000034C337
:101A10000000B4430000B4C380B584B003A80190B3
:101A200080ED000A90ED000AB5EE400AF1EE10FAE2
:101A300001DCFFE73EE045F6F400C2F20040FFF7AC
:101A40003FFD8DF80B009DF80B0041F2E061C2F202
:101A5000004148729DF80B0060B1FFE741F2E06180
:101A6000C2F200410020087240F20011C2F20041AF
:101A700008701FE0019841F2E061C2F2004100915C
:101A800001220A7245F6F402C2F20042126A4A606A
:101A900091ED000A91ED011A90ED002A21EE021A53
:101AA0009FED052A01EE020AFFF77EFF009880ED08
:101AB000000AFFE704B080BDE12E6542000000008F
:101AC00010B5F0B04DF26071C0F6010141A8009070
:101AD000BC220192FEF77BFD0098042102916B91DC
:101AE000012103918DF89C1100F032FC039902460C
:101AF000009846F2B473C2F200431A606B918DF8FD
:101B00009C1100F025FC03990246009846F2BC7334
:101B1000C2F200431A60032204926B928DF89C116A
:101B200000F016FC03990246009846F2B073C2F228
:101B300000431A60022205926B924FF080424C9251
:101B40008DF89C1100F004FC019A46F2B871C2F2C3
:101B5000004108604DF61C01C0F6010112A8069074
:101B6000FEF735FD029906983C9100F0F1FB0399D0
:101B70000246069846F2C473C2F200431A603C91D2
:101B800000F0E6FB04990246069846F2CC73C2F2D6
:101B900000431A603C9100F0DBFB05990246069871
:101BA00046F2C073C2F200431A603C9100F0D0FBD1
:101BB00046F2C871C2F2004108604DF2347CC0F6B2
:101BC000010CDCF80000DCF80410DCF80820DCF87C
:101BD0000C30DCF810E0DCF814400C94CDF82CE06C
:101BE0000A93099208910790DCF81800DCF81C10A1
:101BF000DCF82020DCF82430DCF828C0CDF844C024
:101C000010930F920E910D9041F26860C2F2004065
:101C100007A910F001FDFFF7A7FE70B010BD00008E
:101C200080B584B000200390029001909FED330AAC
:101C3000FFF7F2FE46F64450C2F20040006800286A
:101C400052D0FFE746F64450C2F200400168B1F9B5
:101C5000061000EE101AB8EEC00A9FED292A80EE99
:101C6000020A9FED281A20EE010A8DED030A006892
:101C7000B0F9040000EE100AB8EEC00A80EE020AC5
:101C800020EE010A8DED020A002001909DED030A6D
:101C9000B0EEC00A9FED1C1AB4EE410AF1EE10FA44
:101CA00003DAFFE700200390FFE79DED020AB0EEA4
:101CB000C00A9FED151AB4EE410AF1EE10FA03DAEC
:101CC000FFE700200290FFE79DED010AB0EEC00A99
:101CD0009FED0D1AB4EE410AF1EE10FA03DAFFE7B8
:101CE00000200190FFE7FFE79DED030ADDED020A0A
:101CF0009DED011A11F084FA04B080BD6F12833A91
:101D00000000254400606A460000484200000000D0
:101D100081B000200090FFE70098052821D8FFE758
:101D2000009947F24470C2F20040405CA0B1FFE766
:101D3000009947F22C70C2F2004050F8210058B1CF
:101D4000FFE7009947F22C70C2F2004050F82110D2
:101D500000200863C862FFE7FFE7009801300090A9
:101D6000DAE701B07047000080B586B08DED050A56
:101D7000CDED040A9DED050A00F05EFC8DED030A31
:101D80009DED040A00F058FC8DED020A9DED020A5B
:101D90009DED031A30EE410A8DED010A9DED010A19
:101DA0009FED161AB4EE410AF1EE10FA09DDFFE7D5
:101DB0009DED010A9FED141A30EE010A8DED010A26
:101DC00013E09DED010A9FED0E1AB4EE410AF1EE0B
:101DD00010FA09DAFFE79DED010A9FED0A1A30EECD
:101DE000010A8DED010AFFE7FFE79DED050A9DED74
:101DF000011A30EE010A06B080BD00BF0000344376
:101E0000000034C30000B4430000B4C3000000006D
:101E100083B002900191029818B1FFE7019808B9C8
:101E2000FFE715E000208DF80300FFE79DF80300B1
:101E300007280DD8FFE701989DF80320805C0299E0
:101E40008854FFE79DF8030001308DF80300EDE7AB
:101E500003B070470000000082B00090009845F683
:101E6000E061C2F20041884206D1FFE745F6E41086
:101E7000C2F20040019010E0009845F68071C2F275
:101E80000041884206D1FFE745F64020C2F20040FB
:101E9000019002E000200190FFE7019802B0704736
:101EA00080B582B00190FFE700F006F804F004F975
:101EB000012017F091F9F7E780B58AB0FFF728FF06
:101EC00045F62411C2F20041C8680130C860002004
:101ED00081F829000790FFE7079846F29E71C2F249
:101EE00000410978884280F09381FFE7079941F625
:101EF0001000C2F2004050F821000690069828B168
:101F0000FFE70698D0F8C00108B9FFE77CE1069822
:101F100010F0C2FD069834300590069840300490C9
:101F2000069803900698B0F8D401ADF82200059801
:101F300000F0CAF98DF825009DF8250038B1FFE7BB
:101F4000069890F8D701002800F0E180FFE7049898
:101F5000D0F87801019005980079012807D1FFE7B2
:101F60009DED010AB1EE400A8DED010AFFE70598EB
:101F700040884006002839D5FFE7059800884028AA
:101F800034D1FFE705988079012806D1FFE704984E
:101F9000D0F868010068029012E00398406A02904D
:101FA0000598007A01280AD1FFE7039890ED090A05
:101FB000DDED010AFFF7D8FE8DED010AFFE7FFE72F
:101FC00005984079012807D1FFE79DED020AB1EE9F
:101FD000400A8DED020AFFE704989DED020ADDED4F
:101FE000010A10F049FA8DED010AFFE705984088D3
:101FF000000700283ED5FFE70598008810F0480F3D
:1020000038D0FFE70598407A10F00A0F0CD0FFE7B0
:102010000498D0F8740190ED001A9DED010A30EE9D
:10202000010A8DED010AFFE70598C079012806D164
:10203000FFE70498D0F86C010068029003E0039871
:1020400000690290FFE705984079012807D1FFE772
:102050009DED020AB1EE400A8DED020AFFE70498F9
:1020600078309DED020ADDED010A10F005FA8DEDE4
:10207000010AFFE70598407AC00760B1FFE70498BE
:10208000D0F8700190ED001A9DED010A30EE010AC2
:102090008DED010AFFE705984088C00700B3FFE710
:1020A0000398B0F9140000EE100AB8EEC00A8DEDE6
:1020B000020A05984079012807D1FFE79DED020A41
:1020C000B1EE400A8DED020AFFE70498F0309DED75
:1020D000020ADDED010A10F0CFF98DED010AFFE7EC
:1020E0009DED010ABDEEC00A10EE100AADF8220007
:1020F000BDF822000699A1F8D4019DF8250028B169
:10210000FFE70699002081F8D701FFE7FFE706986F
:1021100090F8C4018DF82700069890F8C5018DF855
:1021200026009DF8270005280ADCFFE79DF8271008
:1021300047F22C70C2F2004050F8210008B9FFE7C6
:1021400062E09DF823009DF8272047F22C71C2F22F
:10215000004151F822209DF8263002EB430282F81C
:102160002C00BDF822009DF8272051F822109DF880
:10217000262001EB420181F82D000498D0F8780167
:1021800045F62411C2F200414864BDF82200A1F8CE
:1021900048009DF8270081F827009DF8260081F867
:1021A0002800069890F8C70178B9FFE79DF8271036
:1021B00047F22C70C2F2004050F821009DF8261022
:1021C00000EB410100208885FFE79DF8271047F2CA
:1021D0002C70C2F2004050F821108A6A45F6241192
:1021E000C2F20041CA649DF8272050F822009DF8F1
:1021F000262000EB420090F82C2090F82D0040EAB9
:102200000220A1F85000FFE707980130079063E62D
:1022100000200790FFE70798052851D8FFE70799A6
:1022200045F62410C2F200400144002081F852001B
:10223000079947F24470C2F20040405C70B1FFE77A
:102240000799012000FA01F245F62411C2F200417B
:1022500091F82900104381F82900FFE7079947F218
:102260004470C2F20040405C28B3FFE7079947F290
:102270002C70C2F2004050F82100E0B1FFE707994E
:1022800047F22C70C2F2004050F8210000F028FA0A
:1022900080B1FFE7079945F62410C2F200404218CA
:1022A000012182F85210079900EB8101886D0130FD
:1022B0008865FFE7FFE7FFE7079801300790AAE787
:1022C0000AB080BD0000000082B00090009820B9E4
:1022D000FFE700208DF807002BE0009840884006BB
:1022E000002809D5FFE700980088402804D1FFE7BF
:1022F00001208DF807001CE00098408800070028A6
:102300000AD5FFE70098008810F0480F04D0FFE7D7
:1023100001208DF807000CE000984088C00720B12C
:10232000FFE701208DF8070003E000208DF807008B
:10233000FFE79DF8070002B07047000000000000B2
:1023400081B000900099012081F8C70101B0704769
:1023500080B58EB00C900C9860B9FFE745F624115B
:10236000C2F20041486801304860022088760020AF
:102370000D902CE147F24A70C2F20040007880B91B
:10238000FFE70FF0E5F860B9FFE745F62411C2F268
:1023900000414868013048600320887600200D9095
:1023A00015E146F29E70C2F2004000780C280CDB6A
:1023B000FFE745F62411C2F2004148680130486049
:1023C0000420887600200D9001E14FF4EC70FDF7B9
:1023D000EBFF0590059860B9FFE745F62411C2F2BE
:1023E00000414868013048600520887600200D9043
:1023F000EDE005984FF4EC71FEF745F90C9890F874
:10240000A000059981F8C60105990C9BD3F89400AA
:10241000D3F89820D3F89C30CB638A63486305983F
:1024200000F598700C9910F0F7F80598B8300C99F1
:102430002C3110F0F1F8059840300C99583110F01B
:10244000EBF80C98D0F884000599C1F8A8010C9815
:10245000D0F888000599C1F8AC010C98D0F88C0030
:102460000599C1F8B0010C98D0F890000599C1F811
:10247000B401DDF830E0DEF8A400DEF8A810DEF8E4
:10248000AC20DEF8B030DEF8B4C0DEF8B8E0CDF84D
:102490002CE0CDF828C00993089207910690059882
:1024A00006A90FF065FC78B9FFE70598FDF7ABFFCB
:1024B00045F62411C2F20041486801304860062008
:1024C000887600200D9082E000208DF8240044F6EC
:1024D0000920C0F600000A9005980B9006A803F0AA
:1024E000B3F80599C1F8C0010598D0F8C00178B9D2
:1024F000FFE70598FDF787FF45F62411C2F200417A
:102500004868013048600720887600200D905EE022
:10251000059810F0C1FA0220ADF808000020ADF8CF
:102520000A0042F2D950C0F60000039005980490CA
:1025300002A802F019FA0599C1F8C8010598D0F867
:10254000C801D8B9FFE70598D0F8C0110020019064
:10255000C1F8B8000599D1F8C011C1F8BC000598C0
:10256000FDF751FF019845F62412C2F2004251686E
:1025700001315160082191760D9028E00598FFF710
:10258000DFFE059846F29E73C2F200431A78511C92
:10259000197041F61001C2F2004141F8220045F6DF
:1025A0002411C2F2004108680130086000208876DA
:1025B0000798086108984861059890F8C401087662
:1025C000059890F8C501487605980D90FFE70D989D
:1025D0000EB080BD0000000083B002900298019010
:1025E000019828B1FFE70198D0F8C00108B9FFE7CA
:1025F00012E00199002081F8C7010198D0F8C001CC
:10260000016845F6E062C2F200420220914208BF32
:102610000120ADF80200FFE703B0704700000000A2
:1026200082B001908DED000A00980199C1F8B801BF
:1026300002B070470000000080B582B08DED010A45
:102640009DED010ADFED0D0A1AF0BEFC8DED010AC9
:102650009DED010AB5EE400AF1EE10FA09DAFFE746
:102660009DED010A9FED051A30EE010A8DED010A7C
:10267000FFE79DED010A02B080BD00BF0000B4433A
:1026800084B003A90191ADF80A00BDF90A00012840
:1026900004DBFFE7BDF90A00009004E0BDF90A0081
:1026A00040420090FFE70098082803DCFFE7002085
:1026B00003900DE00198BDF90A1000EE101AB8EE73
:1026C000C00AB1EE081A20EE010A80ED000AFFE709
:1026D000019890ED000A04B070470000000000006F
:1026E00080B58CB00A900A9820B1FFE70A9800687C
:1026F00020B9FFE700208DF82F00A4E00A98806A37
:10270000019000200290039008210491059006900A
:102710000790089009900A980068FFF79DFB0090C9
:102720000A98006807F07CFD78BBFFE7009840B38B
:10273000FFE70099C8690130C861009988690130D4
:10274000886101980099886204980099C862079886
:102750000099086301F0ECFF0098BCEEC00A80ED20
:102760000D0A0099032048640A980068D0F89C007C
:102770000099886400984C300A992C31FFF748FB87
:10278000FFE700208DF82F005DE00A9A52F82C0B2D
:1027900001A907F001FB58B3FFE7009820B3FFE75A
:1027A00000998869013088610198009988620498CD
:1027B0000099C86207980099086301F0B9FF009872
:1027C000BCEEC00A80ED0D0A0099012048640A9809
:1027D0000068D0F89C000099886400984C300A99F1
:1027E0002C31FFF715FBFFE700208DF82F002AE0C2
:1027F000009820B3FFE700994869013048610198CB
:102800000099886204980099C86207980099086343
:1028100001F08EFF0098BCEEC00A80ED0D0A009911
:10282000002048640A980068D0F89C0000998864E9
:1028300000984C300A992C31FFF7EAFAFFE70120A3
:102840008DF82F00FFE79DF82F000CB080BD000031
:1028500082B000900098102804D3FFE700208DF884
:10286000070008E000994DF6C420C0F60100405C66
:102870008DF80700FFE79DF8070002B070470000E1
:1028800082B00190BDF8060000F00F008DF8030043
:102890009DF803104DF6D420C0F60100405C02B054
:1028A000704700000000000080B545F66860C2F285
:1028B000004005F0B5F880BD80B545F67850C2F20D
:1028C000004005F0ADF880BD80B545F6F050C2F28D
:1028D000004005F0A5F880BD83B002900298016821
:1028E00001201022C4F202029142009000F0A38065
:1028F000FFE70298016801202822C4F202029142F7
:10290000009000F09880FFE70298016801204022C3
:10291000C4F202029142009000F08D80FFE702981D
:10292000016801205822C4F202029142009000F096
:102930008280FFE70298016801207022C4F202023F
:102940009142009077D0FFE7029801680120882229
:10295000C4F20202914200906DD0FFE70298016834
:102960000120A022C4F202029142009063D0FFE74E
:10297000029801680120B822C4F20202914200903C
:1029800059D0FFE702980168012040F21042C4F2DA
:102990000202914200904ED0FFE7029801680120A8
:1029A00040F22842C4F202029142009043D0FFE775
:1029B00002980168012040F24042C4F202029142B2
:1029C000009038D0FFE702980168012040F2584299
:1029D000C4F20202914200902DD0FFE702980168F4
:1029E000012040F27042C4F202029142009022D0D3
:1029F000FFE702980168012040F28842C4F2020217
:102A00009142009017D0FFE702980168012040F240
:102A1000A042C4F20202914200900CD0FFE702985B
:102A200000684FF64831CBF6FD710844B0FA80F0EB
:102A300040090090FFE70098C00740B3FFE7029805
:102A4000007810384AF6AB21CAF6AA21A0FB011083
:102A500000090190019800F007014DF6F420C0F63E
:102A60000100405C0299C8650198042807D3FFE77C
:102A700002990868042262F30900886506E0029959
:102A8000086840F2FF3290438865FFE705E002994D
:102A9000086820F0FF008865FFE70298806D03B0AA
:102AA000704700000000000084B0039003980068A5
:102AB000019003980168012045F20842C5F6020220
:102AC000914200904ED0FFE703980168012045F243
:102AD0001C42C5F602029142009043D0FFE70398E2
:102AE0000168012045F23042C5F602029142009091
:102AF00038D0FFE703980168012045F24442C5F64B
:102B00000202914200902DD0FFE703980168012056
:102B100045F25842C5F602029142009022D0FFE7EA
:102B200003980168012045F26C42C5F60202914209
:102B3000009017D0FFE703980168012045F280421A
:102B4000C5F60202914200900CD0FFE7039800689E
:102B50004AF66C31CAF2FD710844B0FA80F04009BF
:102B60000090FFE70098C00710B3FFE703980078D4
:102B700008384CF6CD41CCF6CC41A0FB0110000941
:102B80000290029945F60000C5F6020000EB8100B4
:102B900003990866039945F68000C5F60200486669
:102BA000029800F01F01012088400399886635E0F3
:102BB0000398007810384AF6AB21CAF6AA21A0FB88
:102BC000011000090290019840F2B841C4F20201DC
:102BD00088420CD8FFE7019840F21041C4F202018C
:102BE000884204D3FFE7029808300290FFE7029979
:102BF00040F60000C4F2020000EB81000399086671
:102C0000039940F68000C4F202004866029800F082
:102C10001F010120884003998866FFE704B07047D0
:102C200083B002900298007901900198002800F08A
:102C30008A80FFE70198082800F28580FFE7029864
:102C40000168012045F20842C5F602029142009057
:102C50004ED0FFE702980168012045F21C42C5F6FC
:102C600002029142009043D0FFE7029801680120E0
:102C700045F23042C5F602029142009038D0FFE79B
:102C800002980168012045F24442C5F602029142D1
:102C900000902DD0FFE702980168012045F25842CC
:102CA000C5F602029142009022D0FFE70298016827
:102CB000012045F26C42C5F602029142009017D005
:102CC000FFE702980168012045F28042C5F6020242
:102CD000914200900CD0FFE7029800684AF66C31F0
:102CE000CAF2FD710844B0FA80F040090090FFE795
:102CF0000098C00780B1FFE7019945F6FC00C5F6D2
:102D0000020000EB81000299C866029945F6401066
:102D1000C5F6020008670FE0019940F6FC00C4F216
:102D2000020000EB81000299C866029940F640104B
:102D3000C4F202000867FFE70198411E01208840A5
:102D400002994867FFE703B07047000000000000E9
:102D500085B0049000208DF80F000498806918BB9E
:102D6000FFE70498806A029003281BD80299DFE8E5
:102D700001F0020D0218049890F82F00C00720B14E
:102D8000FFE701208DF80F00FFE70CE00498C06A10
:102D9000B0F1C07F04D1FFE701208DF80F00FFE7FD
:102DA00001E000E0FFE747E004988069B0F5005FCC
:102DB00026D1FFE70498806A019003281ED8019964
:102DC000DFE801F00206021101208DF80F0016E085
:102DD000049890F82F00C00720B1FFE701208DF87C
:102DE0000F00FFE70BE00498C06AB0F1C07F04D188
:102DF000FFE701208DF80F00FFE700E0FFE71AE092
:102E00000498806A0090032804D3FFE70098032801
:102E100004D00EE001208DF80F000BE0049890F82C
:102E20002F00C00720B1FFE701208DF80F00FFE75A
:102E300000E0FFE7FFE7FFE79DF80F0005B07047F0
:102E400089B008900791069205930898806D0490C8
:102E50000898806D03900898016801201022C4F240
:102E600002029142029000F00381FFE70898016896
:102E700001202822C4F202029142029000F0F88060
:102E8000FFE70898016801204022C4F20202914243
:102E9000029000F0ED80FFE70898016801205822B9
:102EA000C4F202029142029000F0E280FFE708982B
:102EB000016801207022C4F202029142029000F0E7
:102EC000D780FFE70898016801208822C4F2020237
:102ED0009142029000F0CC80FFE708980168012041
:102EE000A022C4F202029142029000F0C180FFE7EA
:102EF000089801680120B822C4F2020291420290AF
:102F000000F0B680FFE708980168012040F2104207
:102F1000C4F202029142029000F0AA80FFE70898F2
:102F20000168012040F22842C4F20202914202905C
:102F300000F09E80FFE708980168012040F24042BF
:102F4000C4F202029142029000F09280FFE70898DA
:102F50000168012040F25842C4F2020291420290FC
:102F600000F08680FFE708980168012040F2704277
:102F7000C4F20202914202907AD0FFE708980168F9
:102F8000012040F28842C4F20202914202906FD0C6
:102F9000FFE708980168012040F2A042C4F2020253
:102FA0009142029064D0FFE708980168012040F246
:102FB000B842C4F202029142029059D0FFE7089849
:102FC0000168012045F20842C5F6020291420290D2
:102FD0004ED0FFE708980168012045F21C42C5F673
:102FE00002029142029043D0FFE708980168012055
:102FF00045F23042C5F602029142029038D0FFE716
:1030000008980168012045F24442C5F60202914247
:1030100002902DD0FFE708980168012045F2584240
:10302000C5F602029142029022D0FFE7089801689B
:10303000012045F26C42C5F602029142029017D07F
:10304000FFE708980168012045F28042C5F60202B8
:10305000914202900CD0FFE7089800684AF66C3164
:10306000CAF2FD710844B0FA80F040090290FFE70F
:103070000298C00770B1FFE70898416E806E486003
:103080000898C06E28B1FFE70898016F406F48604C
:10309000FFE7FFE70898016801201022C4F202024E
:1030A0009142019000F0A380FFE708980168012099
:1030B0002822C4F202029142019000F09880FFE7BA
:1030C0000898016801204022C4F202029142019056
:1030D00000F08D80FFE70898016801205822C4F2B3
:1030E00002029142019000F08280FFE70898016897
:1030F00001207022C4F202029142019077D0FFE7D2
:103100000898016801208822C4F2020291420190CD
:103110006DD0FFE7089801680120A022C4F20202E6
:103120009142019063D0FFE7089801680120B8221E
:10313000C4F202029142019059D0FFE70898016859
:10314000012040F21042C4F20202914201904ED09E
:10315000FFE708980168012040F22842C4F2020209
:103160009142019043D0FFE708980168012040F2A6
:103170004042C4F202029142019038D0FFE7089821
:103180000168012040F25842C4F2020291420190CB
:103190002DD0FFE708980168012040F27042C4F288
:1031A00002029142019022D0FFE7089801680120B5
:1031B00040F28842C4F202029142019017D0FFE728
:1031C00008980168012040F2A042C4F20202914234
:1031D00001900CD0FFE7089800684FF64831CBF615
:1031E000FD710844B0FA80F040090190FFE70198B2
:1031F000C00750B3FFE70898C06D00F01F013F20E3
:1032000088400499886008980168086820F4802044
:1032100008600598089909684860089880684028FF
:1032200009D1FFE706980899096888600798089906
:103230000968C86008E007980899096888600698D6
:1032400008990968C860FFE782E0089801680120D2
:1032500045F20842C5F60202914200904ED0FFE7C7
:1032600008980168012045F21C42C5F6020291420D
:10327000009043D0FFE708980168012045F23042F2
:10328000C5F602029142009038D0FFE70898016825
:10329000012045F24442C5F60202914200902DD031
:1032A000FFE708980168012045F25842C5F602027E
:1032B0009142009022D0FFE708980168012045F272
:1032C0006C42C5F602029142009017D0FFE70898C1
:1032D0000168012045F28042C5F602029142009049
:1032E0000CD0FFE7089800684AF66C31CAF2FD710D
:1032F0000844B0FA80F040090090FFE70098C0074A
:1033000020B3FFE70898C06D00F01F01012088403E
:10331000039948600598089909684860089880688A
:10332000402809D1FFE7069808990968886007983E
:1033300008990968C86008E00798089909688860D2
:10334000069808990968C860FFE700E0FFE7FFE713
:1033500009B070470000000080B586B08DED050A09
:10336000CDED040A9DED050A00F0A6FE8DED030AE1
:103370009DED040A00F0A0FE8DED020A9DED020A0B
:103380009DED031A30EE410A8DED010A9DED010A13
:103390009FED161AB4EE410AF1EE10FA09DDFFE7CF
:1033A0009DED010A9FED141A30EE010A8DED010A20
:1033B00013E09DED010A9FED0E1AB4EE410AF1EE05
:1033C00010FA09DAFFE79DED010A9FED0A1A30EEC7
:1033D000010A8DED010AFFE7FFE79DED050A9DED6E
:1033E000011A30EE010A06B080BD00BF0000344370
:1033F000000034C30000B4430000B4C30000000068
:1034000080B594B01390139808B9FFE706E21398BB
:1034100030301290139840301190139810901398F8
:1034200090F8FE0170B9FFE7139890ED732ADFED75
:10343000DE1AB0EE610AF0EE610AB0EE611A00F039
:103440007FFEEBE11198D0F878010F901298007987
:10345000012807D1FFE79DED0F0AB1EE400A8DED7F
:103460000F0AFFE79DED0F0A9FEDD01A20EE010A2B
:103470008DED0E0A9DED0E0ADFEDCD0A19F0A4FDCB
:103480008DED0E0A9DED0E0AB5EE400AF1EE10FA32
:1034900009DAFFE79DED0E0A9FEDC51A30EE010A2D
:1034A0008DED0E0AFFE79DED0E0A9FEDDE1A20EE70
:1034B000010A8DED0F0A1298007A01285AD1FFE710
:1034C000109890ED030A9FEDD71A20EE010A8DEDBA
:1034D0000D0A12984079012807D1FFE79DED0D0AEA
:1034E000B1EE400A8DED0D0AFFE79DED0D0ADDED11
:1034F0000F0AFFF731FF8DED0F0A9DED0F0A9FEDCB
:10350000C81A20EE010A8DED0E0A9DED0E0A1398E1
:1035100090ED741AB1EE411AB4EE410AF1EE10FAD0
:1035200008DCFFE7139890ED740AB1EE400A8DEDC8
:10353000030A1AE09DED0E0A139890ED741AB4EE8A
:10354000410AF1EE10FA06DBFFE7139890ED740ADA
:103550008DED020A04E09DED0E0A8DED020AFFE7F3
:103560009DED020A8DED030AFFE79DED030A8DED47
:103570000E0AFFE71398D0F8F80104909DED040AB5
:10358000B5EE400AF1EE10FA0ADDFFE79DED040A00
:103590009FEDA51AB4EE410AF1EE10FA06DDFFE741
:1035A00041F26F20C3F683200490FFE7139890F850
:1035B000EC01A0B9FFE71098C0681399C1F8E401C5
:1035C000109890ED080A9FED961A20EE010A1398C4
:1035D00080ED7A0A1399012081F8EC01FFE7139836
:1035E000D0F8E4010C901398D0F8E8010B901398F0
:1035F000D0F8DC0107901398D0F8E00106909DED1B
:10360000070AB5EE400AF1EE10FA07DAFFE79DED82
:10361000070AB1EE400A8DED070AFFE79DED060AA5
:10362000B5EE400AF1EE10FA07DAFFE79DED060A63
:10363000B1EE400A8DED060AFFE79DED060A9FED0B
:103640007B1AB4EE410AF1EE10FA06DAFFE743F214
:10365000BD70C3F286500690FFE79DED0E0A9DED0A
:103660000C1A30EE410A8DED0A0A9DED0A2ABFEED2
:10367000001AB7EE000AB5EE402AF1EE10FA20FE6D
:10368000010A8DED080A9DED0A0AB5EE400AF1EE39
:1036900010FA05DBFFE79DED0A0A8DED010A06E051
:1036A0009DED0A0AB1EE400A8DED010AFFE79DED9E
:1036B000010A8DED090A9DED0B0A20EE000A9DED31
:1036C000061A31EE011A80EE010A8DED050A9DED14
:1036D000090A9DED051AB4EE410AF1EE10FA0FDC6D
:1036E000FFE79DED080A9DED061A20EE011A9DEDFB
:1036F000042A9DED0B0A01EE420A8DED0B0A0EE045
:103700009DED080A9DED061A20EE011A9DED042A92
:103710009DED0B0A01EE020A8DED0B0AFFE79DED10
:103720000B0A9DED071AB4EE410AF1EE10FA03DD23
:10373000FFE707980B9013E09DED0B0A9DED071A2C
:10374000B1EE411AB4EE410AF1EE10FA07DAFFE7E2
:103750009DED070AB1EE400A8DED0B0AFFE7FFE78A
:103760009DED0B1A9DED042A9DED0C0A01EE020A57
:103770008DED0C0A9DED080AB5EE400AF1EE10FA47
:103780000ADDFFE79DED0C0A9DED0E1AB4EE410A2D
:10379000F1EE10FA18DCFFE79DED080AB5EE400ADD
:1037A000F1EE10FA15DA05E00000000035FA8E3C63
:1037B000DB0FC9409DED0C0A9DED0E1AB4EE410AD7
:1037C000F1EE10FA05DAFFE70E980C9000200B904E
:1037D000FFE70C981399C1F8E4010B981399C1F80D
:1037E000E80113989DED0C0ADDED0B0A9FED101A10
:1037F00000F086FC1198D0F8780145F69411C2F2D9
:103800000041C8629DED0B0A9FED061A20EE010AE9
:10381000BDEEC00A10EE100A0886FFE714B080BDA6
:1038200035FA8E3CE12E6542CDCCCC3DBD37863598
:10383000000000000000000082B00090009820B955
:10384000FFE700208DF807002DE000984088400633
:10385000002809D5FFE700980088402804D1FFE739
:1038600001208DF807001EE000984088000700281E
:103870000AD5FFE70098008810F0480F04D0FFE752
:1038800001208DF807000EE00098408840F2E931F1
:10389000084204D0FFE701208DF8070003E0002074
:1038A0008DF80700FFE79DF8070002B070470000A1
:1038B00086B08DED050ACDED040A8DED031A8DF865
:1038C0000B009DED030A9DED041A30EE410A8DEDCB
:1038D000010A049800909DED050A9DED041AB4EECE
:1038E000410AF1EE10FA03DAFFE704980590FFE7CA
:1038F0009DED050A9DED031AB4EE410AF1EE10FAB2
:1039000003DDFFE703980590FFE79DED050A9DEDB8
:10391000001A30EE410A9DF80B1001208840013852
:1039200001EE100AB8EEC11A20EE010A9DED011A4F
:1039300080EE010ABCEEC00A10EE100A06B0704715
:1039400081B00090009808B9FFE716E00099D1F81F
:10395000D401C1F8DC01009890ED750A30EE000A40
:1039600080ED780A00990020C1F8E4010099C1F8BF
:10397000E801009981F8EC01FFE701B07047000011
:1039800080B58EB004A8029045F69411C2F20041B1
:10399000C8680130C86000200D90FFE70D9841F61F
:1039A0004001C2F200410978884280F07D81FFE742
:1039B0000D9941F64400C2F2004050F821000C90ED
:1039C0000C9828B1FFE70C98D0F8C00108B9FFE7C0
:1039D00066E10C9830300B900C9840300A900C98AF
:1039E00009900B98FFF728FF8DF80F000C9890F8BE
:1039F000C60110BBFFE70C9890F8C50178B9FFE746
:103A00000C98D0F8C0114FF0FF30C1F82F00C862F9
:103A10000C98D0F8C011FD2081F8330003E00C9819
:103A2000FFF7EEFCFFE70C98D0F8C00100F0C8FCEF
:103A30000C99002081F8FF0132E10A98D0F8780152
:103A4000089000200690059004909DF80F0038B172
:103A5000FFE70C9890F8FF01002800F0D680FFE700
:103A60000B980079012808D1FFE7029890ED040A2D
:103A7000B1EE400A80ED040AFFE70B98408840064B
:103A800000282FD5FFE70B98008840282AD1FFE7B0
:103A90000B988079012806D1FFE70A98D0F86801D1
:103AA0000068079003E00998806A0790FFE70B9889
:103AB0004079012808D1FFE7029890ED030AB1EEA2
:103AC000400A80ED030AFFE702990A9891ED030A84
:103AD000D1ED040A0EF0D0FC029880ED020A06989F
:103AE0000890FFE70B9840880007002844D5FFE7BF
:103AF0000B98008810F0480F3ED0FFE70B98407AF3
:103B000010F00A0F0DD0FFE702980A99D1F874114E
:103B100091ED001A90ED040A30EE010A80ED040ADE
:103B2000FFE70B98C079012806D1FFE70A98D0F883
:103B30006C010068079003E00998006A0790FFE7AE
:103B40000B984079012808D1FFE7029890ED030A0D
:103B5000B1EE400A80ED030AFFE702990A98783037
:103B600091ED030AD1ED040A0EF086FC029880ED77
:103B7000010A05980890FFE70B98407AC00768B1E2
:103B8000FFE702980A99D1F8701191ED001A90EDB3
:103B9000040A30EE010A80ED040AFFE70B98408822
:103BA00040F2E93108421FD0FFE709988069079089
:103BB0000B984079012808D1FFE7029890ED030A9D
:103BC000B1EE400A80ED030AFFE702990A98F0304F
:103BD00091ED030AD1ED040A0EF04EFC029880ED3F
:103BE000000A04980890FFE702980A99D1F8782112
:103BF00045F69411C2F20041CA6290ED040ABDEE8E
:103C0000C00A10EE100A0886FFE70C9890F8C5016C
:103C100078B9FFE70C98D0F8C0114FF0FF30C1F829
:103C20002F00C8620C98D0F8C011FD2081F8330035
:103C300027E00C9890F8C60101460191012804D0B4
:103C4000FFE70198022809D00FE002990C9891ED46
:103C5000020AD1ED010A00F023FB11E002990C9851
:103C600091ED010A00F06CFB0AE002990C9891EDCD
:103C7000020AD1ED010A91ED001A00F041FAFFE7C6
:103C8000FFE70C98D0F8C00100F09AFB9DF80F00F8
:103C900028B1FFE70C99002081F8FF01FFE7FFE75B
:103CA0000D9801300D9079E60EB080BD0000000047
:103CB00080B582B00190019828B1FFE70198D0F853
:103CC000C00108B9FFE71DE00198D0F8C0010090DD
:103CD0000199012081F8C50100994FF0FF30C1F82A
:103CE0002F00C8620099FC2081F83300009800F092
:103CF00067FB00990020C1F82F00C862019800F00E
:103D0000CFFBFFE702B080BD10B58EB00C900C98D1
:103D100060B9FFE745F69411C2F2004148680130EE
:103D200048600120087400200D9024E141F6400015
:103D3000C2F20040007808280CDBFFE745F694113A
:103D4000C2F2004148680130486002200874002037
:103D50000D9010E14FF40070FCF726FB05900598DC
:103D600060B9FFE745F69411C2F20041486801309E
:103D700048600320087400200D90FCE005984FF483
:103D80000071FCF780FC0C9890F8A000059981F870
:103D9000C40105990C9BD3F89400D3F89820D3F86C
:103DA0009C308B634A63086305990020019081F879
:103DB000C601059981F8C501059800F598700C9920
:103DC0000EF02AFC0598B8300C992C310EF024FC2A
:103DD000059840300C9958310EF01EFC0C98D0F824
:103DE00084000599C1F8A8010C98D0F888000599BD
:103DF000C1F8AC010C98D0F88C000599C1F8B0015D
:103E00000C98D0F890000599C1F8B401059800F01D
:103E10008FFB0598FFF794FD01980C9CD4F8A41033
:103E2000D4F8A820D4F8AC30D4F8B0C0D4F8B4E0BA
:103E3000D4F8B8400B94CDF828E0CDF824C008930E
:103E4000079206918DF8240044F6D950C0F6000080
:103E50000A9005980B9045F69411C2F20041042097
:103E6000087406A801F0F0FB0599C1F8C001059897
:103E7000D0F8C00178B9FFE70598FCF7C4FA45F619
:103E80009411C2F20041486801304860052008746E
:103E900000200D906FE00598D0F8C01144F6D9507D
:103EA000C0F60000C1F8B8000598D0F8C011C1F8FC
:103EB000BC000598D0F8C001082101F045FD0020A4
:103EC00004900390029043F68170C0F600000390C6
:103ED000059804900320ADF8080002A800F044FD06
:103EE0000599C1F8F0010598D0F8F001D8B9FFE7BD
:103EF0000598D0F8C01100200090C1F8B8000599CD
:103F0000D1F8C011C1F8BC000598FCF77CFA009804
:103F100045F69412C2F20042516801315160062107
:103F200011740D9027E00598FFF7C2FE059800F088
:103F3000B7FA059841F64003C2F200431A78511CC3
:103F4000197041F64401C2F2004141F8220045F6E1
:103F50009411C2F200410868013008600020087422
:103F60000798888208984882059890F8C601487496
:103F700005980D90FFE70D980EB010BD00000000F1
:103F800082B0019001980090009828B1FFE7009856
:103F9000D0F8C00108B9FFE704E00099002081F8DB
:103FA000C501FFE702B0704783B002908DED010AB2
:103FB000CDED000A029808B9FFE708E001980299E0
:103FC000C1F8C80100980299C1F8CC01FFE703B01D
:103FD000704700000000000083B002908DED010AE0
:103FE000CDED000A029808B9FFE726E09DED010A31
:103FF000B5EE400AF1EE10FA07DAFFE79DED010A8F
:10400000B1EE400A8DED010AFFE79DED000AB5EE25
:10401000400AF1EE10FA07DAFFE79DED000AB1EE73
:10402000400A8DED000AFFE701980299C1F8DC0112
:1040300000980299C1F8E001FFE703B07047000063
:1040400082B001908DED000A019808B9FFE704E005
:1040500000980199C1F8B801FFE702B0704700006D
:1040600080B584B00390039828B1FFE70398D0F897
:10407000C00108B9FFE71BE00398D0F8C001029027
:1040800003990020019081F8C50102994FF0FF309B
:10409000C1F82F00C8620299FD2081F83300029810
:1040A00000F08EF901980299C1F82F00C862FFE76D
:1040B00004B080BD0000000080B582B08DED010A23
:1040C0009DED010ADFED0D0A18F07EFF8DED000A6F
:1040D0009DED000AB5EE400AF1EE10FA09DAFFE7AD
:1040E0009DED000A9FED051A30EE010A8DED000AE4
:1040F000FFE79DED000A02B080BD00BF0000B443A1
:1041000080B586B005908DED040ACDED030A8DEDE6
:10411000021A059800F5E470019005989DED040AD7
:10412000DDED030A9DED021A0199D1ED001A91ED22
:10413000012A00F005F806B080BD00000000000074
:1041400080B590B00F908DED0E0ACDED0D0A8DED7E
:104150000C1ACDED0B1A8DED0A2A0F9800F5E470BC
:1041600009900F98D0F8C00108909DED0E0ADFED80
:10417000480A18F029FF8DED040A9DED040AB5EEFA
:10418000400AF1EE10FA09DAFFE79DED040A9FED0F
:10419000401A30EE010A8DED040AFFE79DED040A96
:1041A0009FED3B1A80EE010A9FED3A1A20EE010ABC
:1041B000BCEEC00A10EE100AADF81E009DED0D0A0F
:1041C000099890ED031AF1EE410A0C200390FFF7D5
:1041D0006FFB01460398ADF81C109DED0B0ADFED57
:1041E0002E0ACDED010A9FED2D1A8DED021AFFF773
:1041F0005FFBDDED010A9DED021A01460398ADF863
:104200001A109DED0A0AFFF753FB01460398ADF81B
:1042100018109DED0C0A099991ED041AF1EE410A6E
:10422000FFF746FBADF816009DF81F00089981F8CE
:104230002C00BDF81E00089981F82D00BDF81C0067
:104240000009089981F82E00BDF81C109DF81B008C
:1042500040EA0110089981F82F00BDF81A0008996A
:1042600081F83000BDF818000009089981F8310084
:10427000BDF818109DF8170040EA0110089981F860
:104280003200BDF81600089981F8330010B080BDE7
:10429000DB0FC94000008047000000000000FA4327
:1042A00080B588B007908DED060ACDED050A079818
:1042B00000F5E47004900798D0F8C00103909DEDDC
:1042C000060A049890ED021AF1EE410A10200190BE
:1042D000FFF7EEFA01460198ADF80A109DED050AC8
:1042E000049991ED031AF1EE410AFFF7E1FAADF8F6
:1042F00008009DF80B00039981F82C00BDF80A0016
:10430000039981F82D009DF80900039981F82E008A
:10431000BDF80800039981F82F000399002081F867
:104320003000039981F83100039981F83200039934
:10433000FC2081F8330008B080BD000000000000C0
:1043400080B586B004A9009101460098059180EDE2
:10435000000A059901F5E47103910599D1F8C0119E
:10436000029190ED000A039890ED031AF1EE410AD4
:104370001020FFF79DFAADF806009DF8070002999E
:1043800081F82C00BDF80600029981F82D000299F1
:10439000002081F82E00029981F82F00029981F8FF
:1043A0003000029981F83100029981F832000299B7
:1043B000FC2081F8330006B080BD00000000000042
:1043C00080B58CB00A900A9820B1FFE70A9800687F
:1043D00020B9FFE700208DF82F005AE00A98806A84
:1043E000019000200290039008210491059006900E
:1043F0000790089009900A9A52F82C0B01A905F031
:10440000CBFC68B1FFE745F69411C2F20041C86BDE
:104410000130C863002081F834008DF82F0038E0A7
:1044200045F69412C2F200420092906B0130906304
:10443000012082F834000A99896A51860A9991F814
:104440002C1082F840100A9991F82D1082F8411032
:104450000A9991F82E1082F842100A9991F82F10BB
:1044600082F843100A9991F8301082F844100A99A2
:1044700091F8311082F845100A9991F8321082F8BB
:1044800046100A9991F8331082F847108DF82F00E2
:10449000FFE79DF82F000CB080BD00000000000079
:1044A00080B584B00390039828B1FFE70398D0F853
:1044B000C00108B9FFE739E00398D0F8C0010290C5
:1044C0000298806A0190029940F2FF708862019818
:1044D000029981F82C000198C0F30220029981F81A
:1044E0002D000299552081F82E0002990A2081F8AA
:1044F0002F00039890F8C6010130029981F830002E
:1045000002990020009081F83100029981F8320070
:10451000029981F833000298FFF752FF0098019941
:10452000029A916202990863C862FFE704B080BDF5
:1045300083B00290029800F5E470019001994FF069
:104540007E50086001994CF6CD40C3F64C6048603F
:10455000029890F8C401043801460091032844D819
:104560000099DFE801F00212223201990020C4F222
:104570004810886001990020C4F2F010C8600199C9
:104580000020C4F2201008613FE001990020C4F22D
:104590004810886001990020C4F2F010C8600199A9
:1045A0000020C4F2201008612FE001990020C4F21D
:1045B0004810886001990020C4F2F010C860019989
:1045C0000020C4F2201008611FE001990020C4F20D
:1045D0004810886001990020C4F2A010C8600199B9
:1045E0000020C4F2201008610FE001990020C4F2FD
:1045F0004810886001990020C4F2F010C860019949
:104600000020C4F220100861FFE703B070470000EB
:1046100086B0ADF816008DED040ACDED030A8DF8D5
:104620000B109DED030A9DED041A30EE410A8DED4D
:10463000010A04980090BDF8160000EE100AB8EECA
:10464000400A9DED011A20EE010A9DF80B10012091
:104650008840013801EE100AB8EEC11A80EE010A56
:104660009DED001A30EE010A06B070470000000010
:1046700081B040F2CC10C2F20040007870BBFFE77E
:1046800040F2CC11C2F200410120087041F2040056
:10469000CEF2000000680090009840F2B811C2F21B
:1046A00000410968884208D2FFE740F2BC11C2F21B
:1046B0000041086801300860FFE741F20400CEF2D3
:1046C0000000006840F2B811C2F20041086040F2F8
:1046D000CC11C2F2004100200870FFE701B0704722
:1046E00080B584B0039041F20400CEF2000000686F
:1046F0000290029803990968401A00EE100AB8EE79
:10470000400A40F2A410C2F2004090ED001AB8EE48
:10471000411A80EE010A8DED010A029803990860A2
:10472000FFF7A6FF9DED010A04B080BD0000000068
:1047300080B582B000F098F840F2F410C2F2004068
:10474000016883884FF47A7201FB023100EE101A7F
:10475000B8EE400AC08801EE100AB8EEC11A9FED0B
:10476000052A01EE020A8DED010A9DED010A02B053
:1047700080BD00BF6F12833A80B582B000F074F83C
:1047800040F2F410C2F2004090ED000AB8EE400A88
:10479000818801EE101AB8EEC11A9FED092A01EEC8
:1047A000020AC08801EE100AB8EEC11A9FED052A70
:1047B00001EE020A8DED010A9DED010A02B080BDF5
:1047C0006F12833ABD37863580B582B001904EF6C0
:1047D000FC51CEF20001086840F08070086041F69C
:1047E000B071CEF200014CF65560CCF2AC500860CE
:1047F00041F20401CEF200010020086041F2000203
:10480000CEF20002116841F001011160019944F2F9
:104810004022C0F20F024A4340F2A411C2F200410A
:104820000A600A6844F6D353C1F26203A2FB033262
:10483000920940F2A813C2F200431A6009684DF6CB
:104840008362C4F21B32A1FB0221890C40F2AC123C
:10485000C2F20042116040F2BC11C2F20041086095
:10486000FFF706FF02B080BDB0B586B041F204008C
:10487000CEF2000000680590FFF7FAFE40F2BC108F
:10488000C2F2004001680598002302934FF0FF3CFC
:104890001A46E1FB0C0240F2B011C2F20041009155
:1048A0004A6008600868496840F2A414C2F20044F3
:1048B0002268FBF7CFFD029B02468C46009940F22E
:1048C000D010C2F20040C0F804C00260D1F800C0AD
:1048D0004968D0F800E042682468AEFB04E502FBBA
:1048E0000452BCEB0E0C61EB020240F2D811C2F292
:1048F00000410391C1F800C04A60006840F2F41220
:10490000C2F20042049210600868496840F2A8129E
:10491000C2F2004201921268FBF79CFDDDF804C070
:10492000029B049A0146039891800168406892882E
:10493000DCF800C002FB0CF28A1A60F1000040F2C1
:10494000E011C2F200410A6048600868496840F21C
:10495000AC12C2F200421268FBF77CFD0499C880D9
:1049600006B0B0BD0000000080B584B003901020F8
:10497000FBF71AFD029002990020C8608860486029
:104980000860039880680299C8600398008818B985
:10499000FFE76420019003E0039800880190FFE79F
:1049A000019802990880039840680299486003982A
:1049B000408820B9FFE702980088009003E0039840
:1049C00040880090FFE7009802990881029846F21B
:1049D0009D73C2F200431A78511C197041F2F861BC
:1049E000C2F2004141F82200029804B080BD0000EC
:1049F00081B0009000990888088101B070470000DC
:104A0000704700000000000080B58EB00D900D983A
:104A100008B9FFE7D1E10D9890F8B40006280CD84A
:104A2000FFE70D9890F8B50028B9FFE70D99082029
:104A300081F8B40000E0C0E1FFE70D986D300C9004
:104A40000D98D0F8BC000B900B9860B9FFE70D985B
:104A500001F046FF0B900B9820B1FFE70B980EF08A
:104A60001BF8FFE7FFE70B9808B9FFE7A5E145F65C
:104A70002411C2F200418868013088600B980A90C6
:104A80000B98D0F8C80130B1FFE70B98D0F8C801F7
:104A9000FFF7AEFFFFE70B9800F5E670FFF720FE8B
:104AA0000B9880ED740A0A99488808800C98017860
:104AB000407840EA01200A9948800A98418800EE2F
:104AC000101AB8EE400A9FEDBE1A20EE010A80EDE2
:104AD000010A0C988178C07840EA0120ADF82200E4
:104AE0000C980179407940EA0120ADF82000BDF929
:104AF0002200FDF7C5FD8DED070ABDF822000A99D9
:104B0000088107980A99C8600A99B1F9140000EE63
:104B1000100AB8EEC01ABDF9200000EE100AB8EE77
:104B2000C00A9FEDA82A20EE020A9FEDA72A01EEF7
:104B3000020ABDEEC00A10EE100A88820C98807935
:104B40000A9988750B9890F8D601002859D1FFE78B
:104B50000A994888088007980A9908610A990020EC
:104B6000C8620A9A5188D1610A9AD16911620A9978
:104B700088610A9A516891620A9991ED0A0A91ED49
:104B80000C1A30EE410A81ED090A0B9A012182F8D4
:104B9000D6110B9A82F8D7110D99D1F8B02045F6AD
:104BA0002411C2F200410491CA610A9A52880A840F
:104BB000BDF822204A84BDF820208A840A9A927D7A
:104BC00081F826200B9A92F8C42181F827200B9AAD
:104BD00092F8C52181F82820C8620A9A92690A636E
:104BE0000B9A92ED740A9FED7B1A20EE010A81ED7B
:104BF0000D0A0A9A12698A63C8630A98406A0864AF
:104C0000DBE00A9948880988401A09900998B0F5AC
:104C1000805F09DDFFE70998A0F5005009900A9927
:104C2000C86A0138C8620EE0099810F5805F09DA99
:104C3000FFE7099800F5005009900A99C86A013009
:104C4000C862FFE7FFE70B9890ED740AB5EE400AE3
:104C5000F1EE10FA23DDFFE70998012803DBFFE7F7
:104C60000998039003E0099840420390FFE70398F6
:104C7000012803DCFFE7002006900FE09DED090A04
:104C8000B8EEC00A9FED4E1A20EE010A0B9890ED87
:104C9000741A80EE010A8DED060AFFE702E000209B
:104CA0000690FFE70A9890ED041A9DED070A9FED24
:104CB000472A20EE020A9FED462A01EE020A80ED05
:104CC000040A9DED070AB5EE400AF1EE10FA13D181
:104CD000FFE70998012803DBFFE70998029003E04A
:104CE000099840420290FFE70298012804DCFFE7A0
:104CF0000A9900200861FFE79DED090AB8EEC00A95
:104D00009FED2F1A20EE010A8DED050A099A0A99E6
:104D1000C8691044C8610A99C8690A6A801A88611A
:104D20009DED051A0A9890ED0A0A30EE010A80ED11
:104D30000A0A0A9890ED0A0A90ED0C1A30EE410A20
:104D400080ED090A0B99012081F8D7010D98D0F860
:104D5000B00045F62411C2F200410191C8610A98E1
:104D600040880884BDF822004884BDF8200088846B
:104D70000A98807D81F826000B9890F8C40181F88C
:104D800027000B9890F8C50181F828000998C8629F
:104D90000A98806908630B9890ED740A9FED0D1ACC
:104DA00020EE010A81ED0D0A0A98006988630698D1
:104DB000C8630A98406A0864FFE70EB080BD00BF70
:104DC000ACFF333D6666663FD0CCCC3D3333B33E5B
:104DD0006666263F00007A4480B590B00F900F9829
:104DE00008B9FFE770E10F9890F8B40006280CD8D6
:104DF000FFE70F9890F8B50028B9FFE70F99082052
:104E000081F8B40000E05FE1FFE70F986D300E908D
:104E10000F98D0F8BC000D900D9808B9FFE753E14A
:104E200045F69411C2F200418868013088600D98FF
:104E30000C900D9800F5E4700B900D98D0F8F001EF
:104E400030B1FFE70D98D0F8F001FFF7D1FDFFE793
:104E50000D9800F5FA70FFF743FC0D9880ED7E0A7F
:104E60000E98007800F00F000C9908720E980078E8
:104E700000090C9948720E984178807840EA012028
:104E8000ADF82A000E99C8780979000140EA11109E
:104E9000ADF828000E980179407901F00F0140EA41
:104EA0000120ADF82600BDF82A000C990880BDF855
:104EB00028000C994880BDF826000C9988800C9930
:104EC000C8680861BDF82A0000EE100AB8EE400A72
:104ED0009FED7E1A20EE010A9FED7D1A80EE010AF9
:104EE0008DED080ABDF828000B99D1ED030AB1EE4B
:104EF000600A0C210391FFF78BFB03998DED070AE4
:104F0000BDF826000B9AD2ED040AB1EE600AFFF755
:104F10007FFB8DED060A08980C99C86007980C99DC
:104F200048610C98806905909DED051A9DED060A73
:104F30009FED682A20EE020A9FED672A01EE020A21
:104F40000C9880ED060A0E9880790C9988710E985D
:104F5000C0790C99C8719DED080A9FED601A20EE8A
:104F6000010A0C9880ED070A9DED070A20EE010A60
:104F70008DED040A0C9890ED081A9DED040A9FED42
:104F8000582A20EE020A9FED572A01EE020A80ED10
:104F9000080A0D9890F8FE01D8BBFFE708980C9915
:104FA00008619DED070A9FED4D1A20EE010A0C984D
:104FB00080ED080A0C99002048620C99C869886243
:104FC0000C98C0690D99C1F8B8010D99012081F8BC
:104FD000FE010D9981F8FF01BDF82A0045F69411F4
:104FE000C2F200410291C882BDF828000883BDF8D2
:104FF000260048830C9880790877089808620798FB
:1050000048620C98806A88620F98D0F8B000488295
:105010005AE09DED080A0C9890ED041A30EE410A12
:105020009FED311AB4EE410AF1EE10FA05DDFFE70B
:105030000C99486A0138486214E09DED080A0C9802
:1050400090ED041A30EE410A9FED281AB4EE410AA1
:10505000F1EE10FA05DAFFE70C99486A0130486270
:10506000FFE7FFE70C9890ED070A90ED092A90ED15
:105070000B1AB8EEC22A9FED1E3A02EE030A30EE7A
:10508000410A80ED0A0A0D99012081F8FF01BDF85F
:105090002A0045F69411C2F200410191C882BDF880
:1050A00028000883BDF8260048830C98807908778B
:1050B00008980862079848620C98806A88620F987E
:1050C000D0F8B0004882FFE710B080BDDB0FC940C8
:1050D000000080476666663FD0CCCC3DE12E65423D
:1050E0003333B33E6666263FDB0F4940DB0F49C0D2
:1050F0000000B4430000000081B0EFF3108072B6EE
:105100000090FFE7FEE7000044F60C01C5F602013F
:10511000086840F002000860FFE744F60400C5F6A6
:10512000020000688004002801D4FFE7F5E770471B
:1051300080B545F6E060C2F2004005F081F880BD20
:1051400080B545F6E060C2F2004005F079F880BD18
:1051500080B545F68070C2F2004005F071F880BD60
:1051600080B545F68070C2F2004005F069F880BD58
:1051700084B0039002918DF807209DF8070009285C
:1051800003D3FFE70820009003E09DF8070000909C
:10519000FFE700988DF8050000208DF80600FFE776
:1051A0009DF806009DF8051088420DDAFFE7029889
:1051B0009DF80620805C03998854FFE79DF806005F
:1051C00001308DF80600EBE7FFE79DF806000728A1
:1051D0000CD8FFE703999DF8062000208854FFE7CC
:1051E0009DF8060001308DF80600EEE704B0704728
:1051F00080B586B00490049818B9FFE700200290AB
:1052000003E0049800680290FFE7029800F0C8F9F4
:105210000390049820B9FFE701208DF817007EE085
:105220000498007920B1FFE700208DF8170076E0A0
:1052300004980068694601230B600021022204F0F3
:105240001BFEA8B1FFE7039870B1FFE703998868D8
:105250000130886003990120486404980068D0F800
:105260009C0003998864FFE701208DF8170056E041
:105270000498006805F0D4FDA8B1FFE7039870B169
:10528000FFE703998868013088600399012048642A
:1052900004980068D0F89C0003998864FFE7012017
:1052A0008DF817003BE0049800681121002204F0FB
:1052B000F3FCC8B1FFE70498006805F0D9FD039836
:1052C00070B1FFE703998868013088600399012075
:1052D000486404980068D0F89C0003998864FFE74C
:1052E00001208DF817001AE0049901200871039835
:1052F00088B1FFE7039901200870039948680130DD
:10530000486003990020486404980068D0F89C0025
:1053100003998864FFE700208DF81700FFE79DF8E8
:10532000170006B080BD000080B5A0B01F901E9190
:105330001F9800F035F90190FFE71F981E9904F0BF
:10534000D7FD002800F08B80FFE71F981E9914AA54
:1053500004AB04F0E9FD68B1FFE7019848B1FFE74D
:105360000199012048641F98D0F89C000199886435
:10537000FFE774E01F9814A900F076F803900398F3
:10538000179900F071FA8DF80B0000208DF80A00D3
:105390000398A8B3FFE79DF80B0048B9FFE703980F
:1053A00000F046F920B9FFE708208DF80B00FFE771
:1053B0009DF80B00412804DBFFE740208DF80B002F
:1053C000FFE79DF80B00039981F8B4009DF80B00EE
:1053D00040B1FFE703986D309DF80B2004A9FBF75F
:1053E000B1F8FFE70398D0F8B80040B1FFE70398A1
:1053F000D0F8B810884701208DF80A00FFE7FFE7D2
:10540000019858B3FFE71498019988631798019998
:10541000C863FFF78DF90198BCEEC00A80ED100A51
:105420000199002048641F98D0F89C000199886475
:10543000019854309DF80B2004A9FFF799FE9DF8C0
:105440000A0028B1FFE70199086A0130086204E008
:105450000199486A01304862FFE7FFE76DE720B035
:1054600080BD00000000000080B586B0049003916C
:10547000049818B1FFE7039818B9FFE700200590DA
:1054800061E003984068E8B9FFE7039801680020ED
:10549000B0EBD12F16D1FFE7049800F0A5F80290E9
:1054A000029870B1FFE702980399096850F821004B
:1054B00038B1FFE702980399096850F82100059078
:1054C00041E0FFE700200190FFE7019846F29C7160
:1054D000C2F200410978884232D2FFE7019945F6CD
:1054E0006C00C2F2004050F8210008B9FFE723E049
:1054F0000498019A45F66C01C2F2004151F822105D
:105500000968884217D1FFE703980068019A45F6B9
:105510006C01C2F2004151F82210D1F8B01088425B
:1055200009D1FFE7019945F66C00C2F2004050F83E
:105530002100059007E0FFE7019801300190C4E7E2
:1055400000200590FFE7059806B080BD0000000030
:1055500083B0019000200090FFE70098012819D83F
:10556000FFE7009940F21810C2F2004050F83100F5
:105570000199884209D1FFE7009940F21810C2F260
:10558000004000EBC100029007E0FFE70098013007
:105590000090E2E700200290FFE7029803B0704716
:1055A00082B00090009845F6E061C2F20041884266
:1055B00006D1FFE745F6E410C2F20040019010E08A
:1055C000009845F68071C2F20041884206D1FFE79B
:1055D00045F64020C2F20040019002E00020019018
:1055E000FFE7019802B0704782B00090009845F63E
:1055F000E061C2F20041884206D1FFE741F66C004B
:10560000C2F20040019010E0009845F68071C2F2AD
:105610000041884206D1FFE743F66C00C2F2004029
:10562000019002E000200190FFE7019802B070476E
:1056300081B000900098C069A0F50010B0FA80F029
:10564000400901B07047000080B586B0049004980E
:1056500020B1FFE70498006818B9FFE70020059023
:10566000FDE004980068FFF773FF0390039818B9F2
:10567000FFE700200590F2E004980068FFF7B4FF10
:10568000019046F29C70C2F200400078102803DBC3
:10569000FFE700200590E2E004988068A0B1FFE7F2
:1056A000049881680020B0EBD12F0DD1FFE701985D
:1056B00050B1FFE701980499896850F8210018B1AA
:1056C000FFE700200590CAE000208DF80300FFE707
:1056D0009DF8030046F29C71C2F2004109788842AD
:1056E00035DAFFE70498806850B3FFE79DF80310B0
:1056F00045F66C00C2F2004050F8210000B3FFE70D
:105700009DF8031045F66C00C2F2004050F82100ED
:10571000006804990968884212D1FFE79DF80310D8
:1057200045F66C00C2F2004050F82100D0F8B000FD
:1057300004998968884203D1FFE7002005908EE034
:10574000FFE79DF8030001308DF80300C0E7C0209B
:10575000FAF72AFE0290029818B9FFE70020059098
:105760007DE00298C021FAF78EFF04984068029904
:1057700048600298002181600298C160029A082066
:105780001061029A5161049A127B002A18BF01220B
:105790001205029B9A61049A127B002A18BF01220B
:1057A0005205029BDA61029A1162029A51620499CF
:1057B0000968029A116004994968029A91620499F1
:1057C0008968029AC2F8B0100499097B002918BFB1
:1057D0000121029A82F8B51004990969029AC2F867
:1057E000B81004994969029AC2F8BC10029981F86C
:1057F0006C00029800F024F90398FFF7F9FC30B12F
:10580000FFE70298FAF7FFFD0020059027E00298D5
:10581000D0F8B00090B1FFE70298D0F8B0100020A7
:10582000B0EBD12F0AD1FFE7019838B1FFE702981A
:105830000199D0F8B02041F82200FFE7029846F223
:105840009C73C2F200431A78511C197045F66C0122
:10585000C2F2004141F8220002980590FFE7059846
:1058600006B080BD0000000080B586B004900391B2
:10587000BDF80E0090B1FFE70398FDF701F88DF831
:1058800007009DF8070018B9FFE7039828B9FFE75C
:105890009DF807008DF8170052E0FFE703980828ED
:1058A00004D8FFE703988DF8170049E0049848B141
:1058B000FFE70498FFF7BCFE20B9FFE708208DF84A
:1058C00017003DE0039800F00F0002900298FCF7EB
:1058D000BFFF8DF807009DF8070028B1FFE79DF88E
:1058E00007008DF817002BE003980C380146009153
:1058F000342821D80099DFE801F01B1F1F1F1B1F50
:105900001F1F1B1F1F1F1B1F1F1F1F1F1F1F1B1FB3
:105910001F1F1F1F1F1F1F1F1F1F1F1F1F1F1B1F9B
:105920001F1F1F1F1F1F1F1F1F1F1F1F1F1F1B00AA
:1059300003988DF8170003E000208DF81700FFE7AB
:105940009DF8170006B080BD80B582B001908DF83B
:105950000310019808B9FFE76FE09DF8030028B134
:10596000FFE79DF80300412801DBFFE765E00198B0
:1059700000F066F80198FFF75BFE8DF802009DF8D5
:10598000020048B9FFE79DF80300092804D3FFE7A8
:1059900008208DF80300FFE79DF80200002846D09C
:1059A000FFE79DF80300312804D3FFE740208DF87E
:1059B00003003BE09DF80300212804D3FFE73020DB
:1059C0008DF8030031E09DF80300192804D3FFE7A8
:1059D00020208DF8030027E09DF80300152804D34C
:1059E000FFE718208DF803001DE09DF80300112843
:1059F00004D3FFE714208DF8030013E09DF80300A3
:105A00000D2804D3FFE710208DF8030009E09DF86E
:105A10000300092804D3FFE70C208DF80300FFE7FB
:105A2000FFE7FFE7FFE7FFE7FFE7FFE7FFE79DF897
:105A30000300019981F86C00FFE702B080BD00000F
:105A400080B582B001900198FFF7F2FD019981F8CD
:105A5000B500019890F8B50030B9FFE70199002032
:105A600088610199C861FFE701980068FFF798FD18
:105A70000090009850B1FFE7019890F8B5000099A8
:105A800088700198C06900990863FFE702B080BD83
:105A900084B002900298406B009002980068D0F8A1
:105AA00084004FF6FC718843009940EA8100029916
:105AB0000968C1F8840002980068D0F8840020F4D6
:105AC0007F00029A1168926B40EA0240C1F884009C
:105AD0000298816B00980844009002980068D0F802
