:020000040800F2
:10000000684E01246103000849A50008619D0008AD
:1000100071A30008090D000879E000080000000045
:1000200000000000000000000000000091AF000888
:10003000F12B000800000000E1A8000801B300084F
:100040007F0300087F0300087F0300087F03000888
:100050007F0300087F0300087F0300087F03000878
:100060007F0300087F0300087F03000831180008A1
:1000700041180008511800087F0300087F0300089A
:100080007F0300087F0300087F030008E1300008B9
:1000900001310008F1300008113100087F03000829
:1000A0007F0300087F0300087F0300087F03000828
:1000B0007F0300087F0300087F0300087F03000818
:1000C0007F0300087F0300087F0300087F03000808
:1000D0007F030008D9C000087F0300087F030008E1
:1000E0007F0300087F030008000000007F03000872
:1000F0007F0300087F0300087F0300087F030008D8
:100100007F0300087F0300087F0300087F030008C7
:100110007F0300087F0300087F030008D1B40008B4
:100120007F0300087F0300087F0300087F030008A7
:100130007F0300087F0300087F0300087F03000897
:1001400000000000000000000000000000000000AF
:100150007F0300087F0300087F030008E9C0000850
:100160007F0300087F0300087F0300087F03000867
:100170007F0300087F0300087F03000800000000E1
:100180007F0300087F0300087F0300087F03000847
:100190007F0300087F0300087F0300087F03000837
:1001A0007F0300087F0300087F0300087F03000827
:1001B0007F0300087F0300087F0300087F03000817
:1001C0007F0300087F0300087F0300087F03000807
:1001D0007F03000881A500087F0300087F03000853
:1001E0007F0300087F0300087F0300087F030008E7
:1001F0007F0300087F0300087F0300087F030008D7
:100200007F0300087F0300087F0300087F030008C6
:100210007F0300087F0300087F0300087F030008B6
:100220007F0300087F0300087F0300080000000030
:100230007F0300087F030008000000007F03000820
:100240007F0300087F0300087F0300087F03000886
:100250007F0300087F0300087F0300087F03000876
:100260007F0300087F0300087F0300087F03000866
:100270007F0300087F0300087F03000800000000E0
:100280007F0300087F0300087F03000800000000D0
:10029000000000007F03000800F002F800F050F8B2
:1002A0000AA090E8000C82448344AAF10107DA45D1
:1002B00001D100F045F8AFF2090EBAE80F0013F0D3
:1002C000010F18BFFB1A43F0010318476016010025
:1002D000801601000A4410F8014B14F00F0508BF06
:1002E00010F8015B240908BF10F8014B6D1E05D002
:1002F00010F8013B6D1E01F8013BF9D1641E03D0DB
:10030000641E01F8015BFBD19142E4D37047000009
:100310000023002400250026103A28BF78C1FBD80E
:10032000520728BF30C148BF0B6070471FB510F09F
:10033000C5FF9DE8030000F0EDF91FBD10B510BD2D
:1003400000F054FA1146FFF7F1FF0EF031F800F01B
:1003500072FA03B4FFF7F2FF03BC00F0A3FA000047
:100360000A4880470A4880470A480047FEE7FEE7F8
:10037000FEE7FEE7FEE7FEE7FEE7FEE7FEE7FEE755
:1003800005480649064A074B70470000C13000087F
:10039000E1B300089902000868FE0024684E0124B9
:1003A000683E0124683E012470B5064600F096F9C7
:1003B000056806F10B0020F00704B4429CBF002042
:1003C00070BD2B466A68BAB11068A04210D304F120
:1003D000080188423CBF5068586007D35168101923
:1003E00041601168091B016058601460101D70BDE8
:1003F00013465268002AE7D12146284600F076F9D4
:100400000028DED170BD70B50446051F00F066F906
:100410000068002C14BF446870BD002C18BFAC42AB
:100420003CBF20466468F8D301680A18AA4218BF86
:10043000456003D12A6805461144016028684119C6
:10044000A1421CBF6C6070BD61686960216808448E
:10045000286070BD53EA020C00F069802DE9F04B72
:100460004FF00006002B1FBFB3FA83F503FA05F423
:1004700024FA05F65E4012BF1643B2FA82F502FA7C
:1004800005F4C5F120051EBF22FA05FC44EA0C0460
:10049000203556EA044C4FEA144418BF641C4FF050
:1004A00000084FF00009904271EB030C39D300298A
:1004B00019BFB1FA81F701FA07F6B0FA80F700FA2E
:1004C00007F6C7F120071EBF20FA07FC46EA0C0614
:1004D0002037B6FBF4FCA7EB0507103F07F01F0B16
:1004E000CBF120062CFA06F60CFA0BFB44BFB34600
:1004F0000026202FA4BF5E464FF0000B5BEA060CDF
:1005000008BF4FF0010B19EB0B0948EB0608ABFBDA
:10051000027C06FB02CC0BFB03CCC01B71EB0C0175
:10052000C1E70B46024641464846BDE8F08B13B58D
:10053000084318BF4FF0FF300146AFF30080BDE81D
:100540001C407047032A40F2308010F0030C00F08A
:10055000158011F8013BBCF1020F624498BF11F8FD
:1005600001CB00F8013B38BF11F8013BA2F10402B6
:1005700098BF00F801CB38BF00F8013B11F003032E
:1005800000F02580083AC0F0088051F8043B083A92
:1005900051F804CBA0E80810F5E7121D5CBF51F834
:1005A000043B40F8043BAFF30080D20724BF11F8AE
:1005B000013B11F801CB48BF11F8012B24BF00F813
:1005C000013B00F801CB48BF00F8012B704710B584
:1005D000203AC0F00B80B1E81850A0E81850B1E8FC
:1005E0001850A0E81850203ABFF4F5AF5FEA027C3B
:1005F00024BFB1E81850A0E8185044BF18C918C06B
:10060000BDE810405FEA827C24BF51F8043B40F80B
:10061000043B08BF7047D20728BF31F8023B48BFF0
:1006200011F8012B28BF20F8023B48BF00F8012B2E
:10063000704702F0FF0343EA032242EA024200F05D
:1006400024B84FF000020429C0F0128010F0030C0F
:1006500000F01B80CCF1040CBCF1020F18BF00F8B5
:10066000012BA8BF20F8022BA1EB0C0100F00DB864
:100670005FEAC17C24BF00F8012B00F8012B48BFC2
:1006800000F8012B70474FF0000200B51346944666
:100690009646203922BFA0E80C50A0E80C50B1F1DA
:1006A0002001BFF4F7AF090728BFA0E80C5048BFEE
:1006B0000CC05DF804EB890028BF40F8042B08BF8C
:1006C000704748BF20F8022B11F0804F18BF00F888
:1006D000012B704770477047704700000048704713
:1006E00048010024704770477047704738B504468A
:1006F0000A4600206946AFF30080002808BF38BDD5
:1007000002460099204600F04FF8012038BD012034
:1007100000F064B8F8B5AFF30080054600200C4641
:10072000102000BF0646A819A0420DD932466946DE
:100730000020AFF30080070008BF00F04FF80098DA
:10074000A04218BF0546C419FFF7C8FF0560074659
:10075000F01D20F007004619284600F00AF8B442C0
:1007600008BFF8BDA21B31463868BDE8F84000F06C
:100770001BB800210160C0E90110704710207047CC
:1007800010B500F00DF8006810BD10B5044600F07B
:1007900007F8046010BD00000048704740010024C5
:1007A0000048704740010024034640688C460028FA
:1007B00018BF88423CBF03464068F8D31868184405
:1007C000884207D00CF1030020F00700001D411AF9
:1007D000521A0146081D0A60FFF715BE10B500F059
:1007E00039F8BDE8104000F02FB870477546FFF7A4
:1007F000D3FFAE4605006946534620F00700854604
:1008000018B020B5FFF7BCFDBDE820404FF0000652
:100810004FF000074FF000084FF0000BAC46ACE87B
:10082000C009ACE8C009ACE8C009ACE8C00921F0D7
:1008300007018D46704710B50446AFF3008020468F
:10084000BDE81040FFF785BD002801D000F02AB8B0
:100850007047000010B5012805D0002103A000F06A
:1008600027F8012010BD09A1F8E7000053494752BD
:10087000544D454D3A204F7574206F662068656170
:1008800070206D656D6F7279000000003A20486538
:100890006170206D656D6F727920636F7272757013
:1008A0007465640001491820ABBEFEE72600020013
:1008B00070B505460C460A2000E06D1C00F011F8EA
:1008C00035B128780028F8D102E0641C00F009F85E
:1008D00014B120780028F8D1BDE870400A20AFF3A9
:1008E000008008B569468DF800000320ABBE08BD46
:1008F00010B5B0B041F2EC3101ACC0F60101BC2240
:100900002046FFF764FE204601F076FD46F2D861EE
:100910009FED050AC2F20041DFED040A086001F014
:1009200057FE30B010BD00BF00002042CDCC4C3D82
:1009300000F006F801200DF0F7FDF9E700000000D7
:1009400080B52DED028B41F20860C2F200400178C3
:10095000A9B946F2D861C2F20041096891F8FF21B5
:100960006AB191ED030A41F204619FED161AC2F2D9
:10097000004120EE010A81ED000A0121017000789A
:1009800001281AD102F04CF89FED0F1A41F20460D1
:1009900020EE010AC2F2004090ED008A10F0A2FAA7
:1009A000B1EE041A46F2D860C2F2004000EE018AAD
:1009B0000068B0EE480A01F013FE01F0DDFBBDEC6B
:1009C000028B80BDE12E65427CD9A03F0000000073
:1009D0002DE9F04186B04FF00003ADF81430CDE9B9
:1009E0000333ADF808300193009329B30C46154644
:1009F00040F080008DF80C0000F026F841F200076E
:100A00000821C5F602070022384605F045FDE846F4
:100A1000AA1C03A8414600F05FF9064608210122FE
:100A2000384605F039FD46B908F1020120462A464C
:100A3000FFF788FD002600E00426304606B0BDE83A
:100A4000F08100000000000010B541F20004082110
:100A5000C5F602040122204605F01EFD10210122E8
:100A6000204605F019FD10BD2DE9F04186B04FF08C
:100A700000038DF81430CDE903338DF8083001936D
:100A8000009329B30C46154640F080008DF80C0009
:100A9000FFF7DAFF41F200071021C5F60207002236
:100AA000384605F0F9FCE8466A1C03A8414600F008
:100AB00013F9064610210122384605F0EDFC46B92F
:100AC00008F1010120462A46FFF73CFD002600E020
:100AD0000426304606B0BDE8F081000000000000AA
:100AE00010B582B004460020ADF8040000903CB17F
:100AF000694612200622FFF76BFF20B102B010BD3D
:100B0000042002B010BDBDF800002080DDF8020016
:100B1000C4F80200002002B010BD00000000000078
:100B200010B538B10446283004F1290100F058F816
:100B300010B110BD042010BD2046FFF7D1FF0028E2
:100B4000F7D1A01D00F074F8002818BF10BDB4F94B
:100B50000000B4F90420B4F902109FED1F2A00EE42
:100B6000100A03EE102A01EE101AB4F90600B4F9C7
:100B70000A10B8EEC00AB8EEC11A04EE101AB8EEA8
:100B8000C33A20EE020A84ED030A21EE020A23EEA4
:100B9000021A02EE100AB4F9080084ED040AB8EE55
:100BA000C44A9FED0E3A00EE100AB8EEC22A84ED58
:100BB000051A04F12400B8EEC00A22EE031A84EDEF
:100BC000061A20EE030A84ED070A24EE030A84EDD8
:100BD000080A00F04DF810BD0F5CEB3A58A08B3AB4
:100BE000B0B5044600284FF0040007D00D4629B1E7
:100BF000002001222146FFF7EBFE00B1B0BD00202E
:100C000001222946FFF730FF002818BFB0BD45F686
:100C10003C012078C2F20041087045F66C01C2F236
:100C20000041287808700020B0BD000000000000DE
:100C300010B582B004460020ADF8040000903CB12D
:100C4000694602200622FFF70FFF20B102B010BD57
:100C5000042002B010BDBDF800002080DDF80200C5
:100C6000C4F80200002002B010BD00000000000027
:100C700010B582B0044600284FF00000ADF8060021
:100C800008D00DF1060122200222FFF7A1FE20B1BB
:100C900002B010BD042002B010BD9DF806004FF652
:100CA00000029DF80710CFF6FF72C000B4EE001AE4
:100CB000B3EE072A40EA51110020B0EB912F18BF84
:100CC000114300EE101AB8EEC00A00EE012A84EDBE
:100CD000002A02B010BD000080B582B094460A46DA
:100CE000014646F2D840C2F20040642300936346B6
:100CF00008F042F820B1FFF7A7FE012002B080BD46
:100D0000002002B080BD0000FEE7000000000000EF
:100D10000020704700000000002070470000000025
:100D200010B545F6E81440F60461C2F20044C2F280
:100D30000041002220460BF0B7FB40F20461204640
:100D4000C2F200410BF0A0FB40F600010022C3F20A
:100D5000040120460BF0A8FB40F200012046C3F23C
:100D600004010BF091FB002010BD0000000000000A
:100D7000B0B5096804460CF0A3FF45F6E815214616
:100D8000C2F2004528460BF07FFB28460BF058FBCB
:100D90000020B0BD000000000020704700000000EF
:100DA00010B545F6E812C2F20042D2F8BC22D2F8E1
:100DB0001422002A1CBF012010BD45F6E8140A4683
:100DC000C2F20044014620460BF06EFB20460BF0B9
:100DD0000BFC10BD0000000009F092FA00F020F9B1
:100DE00001200DF0A1FBF9E780B530EE600A00F0BC
:100DF00023F880BD0000000041F2886040F220121C
:100E0000C2F20040C2F200420021C0E90011137892
:100E1000437240F2F8031278C2F20043B2FA82F24F
:100E20005860520902721A701972C3E903115961AC
:100E300070470000000000009FED111AB4EE410A57
:100E4000F1EE10FA09DD9FED0F2A00BF30EE020A25
:100E5000B4EE410AF1EE10FAF8DC9FED0B1AB4EE95
:100E6000410AF1EE10FAA8BF70479FED082A00BFB3
:100E700030EE020AB4EE410AF1EE10FAF8DB7047E8
:100E8000000034430000B4C3000034C30000B44386
:100E9000B0B545F64004C2F200442046FFF740FEDC
:100EA00041F28865C2F20045687238B140F2F8013B
:100EB0000020C2F2004128720870B0BD94ED081AFB
:100EC0009FED090A21EE002A95ED000A9FED073AF1
:100ED0000120287202EE030A85ED011AFFF7ACFF2C
:100EE00085ED000AB0BD00BF6F12833AE12E654266
:100EF0002DE9F041EAB041F2D4413BACC0F601012A
:100F0000BC222046FFF763FB20464FF00408CDF8D3
:100F1000948101258DF8845100F09AFA46F2E0613F
:100F20006595C2F200418DF884510860204600F0BA
:100F30008FFA46F2E8610327C2F2004165978DF807
:100F400084510860204600F083FA46F2DC610226F4
:100F5000C2F2004165968DF8845108604FF08040E0
:100F60004690204600F074FA46F2E4610CACC2F2FE
:100F70000041BC22086041F29051C0F601012046B8
:100F8000FFF725FB2046CDF8D88000F061FA46F245
:100F9000F0613695C2F200410860204600F058FA30
:100FA00046F2F8613697C2F200410860204600F030
:100FB0004FFA46F2EC613696C2F2004108602046D4
:100FC00000F046FA46F2F461C2F20041086041F2D4
:100FD000A840C0F601000168019141680291816852
:100FE0000391C16804910169059141690691816984
:100FF0000791C1690891016A0991416A0A91806A61
:101000000B9041F2106001A9C2F2004009F048FCC7
:10101000FFF7F2FE6AB0BDE8F081000000000000BA
:1010200080B5FFF735FF46F67040C2F20040006819
:1010300060B3B0F906109FED1B1AB0F904009FEDE4
:101040001A2A00EE101A9FED164A03EE100AB8EEA7
:10105000C00AB8EEC33A80EE010A83EE011A20EE10
:10106000020A21EE021A9FED112AB0EEC03AB4EE48
:10107000432AB0EEC13AF1EE10FA34FE000AB4EEA3
:10108000432AF1EE10FA74FE010A03E09FED040A10
:10109000F0EE400A9FED021A09F09AFF80BD00BFF2
:1010A000000000000000254400606A46000048423D
:1010B00047F2646147F24C6C0020C2F20041C2F278
:1010C000004C002303E000BF0133062B09D0CA5CAB
:1010D000002AF9D05CF82320002A18BFC2E90B00CF
:1010E000F2E770470000000080B52DED068BB0EEF2
:1010F000609AB0EE408A00F0C3FAB0EE40AAB0EEBB
:10110000490A00F0BDFA30EE4A0A9FED0E1AB4EE1D
:10111000410AF1EE10FA04DD9FED0D1A30EE010ADE
:101120000AE09FED091AB4EE410AF1EE10FA03DA73
:101130009FED061A30EE010A30EE080ABDEC068B70
:1011400080BD00BF00003443000034C30000B4433E
:101150000000B4C300000000002818BF00290CD014
:1011600001394FF0FF3200BF00EB020C013211F8E1
:10117000013F072A8CF80130F6D1704700000000CB
:1011800045F62C61C2F2004188420CD045F6CC6293
:1011900045F68C11C2F20042C2F20041904218BFE3
:1011A00000210846704745F63010C2F200407047F3
:1011B00000F006F801200DF0B7F9F9E70000000093
:1011C0002DE9F04F81B02DED028BFFF771FF45F651
:1011D000700946F2D66AC2F20049C2F2004A4FF0E4
:1011E0000008D9F80C000130C9F80C0089F82980F2
:1011F0009AF80000002800F0E28041F2A8774FF052
:10120000000BC2F2004706E09AF800000BF1010B58
:10121000834580F0D48057F82B40002CF4D0D4F8CC
:10122000C0010028F0D0204609F0AEFC04F13406DD
:10123000304600F0F5F8054610B194F8D701B8B182
:1012400094ED6E0A94F83800B1EE401A0128E08E51
:1012500041FE000A400627D53088402824D194F862
:101260003A00012807D1D4F8A80190ED008A0EE0D9
:10127000B4F8D4016CE094F83C0094ED098A01289C
:1012800005D1B0EE480AFFF72FFFF0EE400A94F8C0
:101290003900B1EE480A012804F1400000FE080AB6
:1012A00009F06EFAF0EE400AE08E000726D530888D
:1012B00010F0480F22D094F83D0010F00A0F05D02E
:1012C000D4F8B40190ED000A70EE800A94F83B0067
:1012D000012802D1D4F8AC0101E004F1100090ED36
:1012E000000A94F83900B1EE401A012804F1B80060
:1012F00001FE000A09F044FAF0EE400A94F83D00BD
:10130000C00705D0D4F8B00190ED000A70EE800A55
:10131000E08EC00712D0B4F9140000EE100A94F861
:101320003900012804F59870B8EEC00AB1EE401AF1
:1013300001FE000A09F024FAF0EE400ABDEEE00AD0
:10134000002D10EE100AA4F8D40118BF84F8D7813C
:1013500094F8C421052A3FF657AF47F24C61C2F218
:10136000004151F8221000293FF44EAF94F8C561B6
:10137000BC4601F12C03050A7700013703F816502B
:10138000D855D4F8B851C9F84450A9F8480089F89C
:101390002720DA1989F82860674694F8C7010028E1
:1013A00003EB460008BFA0F80080896AC9F84C101A
:1013B0000078117841EA0020A9F8500024E747F2AC
:1013C000646447F24C6AC2F2004401250026C2F26E
:1013D000004A02E00136062E1DD009EB060787F809
:1013E0005280A05D0028F5D099F8290005FA06F191
:1013F000084389F829005AF826000028EAD000F0AE
:101400006FF90028E6D009EB860087F85250816D0D
:1014100001318165DEE7BDEC028B01B0BDE8F08FE4
:1014200068B141884A0602D50288402A05D00A07D9
:1014300007D5008810F0480F03D001207047002026
:10144000704701F001007047012180F8C711704713
:10145000F0B589B0E8B1054647F26A60C2F20040D3
:10146000007820B908F080FC002800F0B38046F234
:10147000D667C2F2004738780C2815D345F67000BD
:101480000025C2F2004041680131416004218176AB
:10149000E3E045F670000025C2F2004041680131EA
:1014A000416002218176D8E04FF4EC70FEF77CFFBA
:1014B000002800F09A804FF4EC710446FFF7E3F83F
:1014C00095F8A000294684F8C601D5F89400606319
:1014D000D5F89800A063D5F89C00E06304F59870F7
:1014E00004F1400609F0DCF904F1B80005F12C0123
:1014F00009F0D6F905F15801304609F0D1F9D5F8CF
:101500008400C4F8A801D5F88800C4F8AC01D5F867
:101510008C00C4F8B001D5F89000C4F8B401D5F837
:10152000A4000390D5F8A8000490D5F8AC0005906D
:10153000D5F8B0000690D5F8B4000790D5F8B800FB
:10154000089003A9204608F047FF002858D0002043
:101550008DF8180042F6F930C0F60000CDE9070416
:1015600003A801F099FF0028C4F8C00156D0204616
:1015700009F00AFB0220009041F26160C0F6000011
:10158000CDE90104684601F00BFB0028C4F8C8014E
:1015900052D02046FFF758FF38782546411C397055
:1015A00041F2A871C2F2004141F8204045F67000B6
:1015B000C2F2004001680131016000218176DDE95D
:1015C00004120161426194F8C41194F8C5210176B6
:1015D000427642E045F670000025C2F200404168C4
:1015E000013141600321817637E045F67000002526
:1015F000C2F20040416801314160052181762CE052
:101600002046FEF700FF45F670000025C2F20040BC
:10161000416801314160062181761EE02046FEF7D7
:10162000F2FE45F670000025C2F20040416801312B
:1016300041600721817610E0D4F8C0010025C0E99F
:101640002E552046FEF7DFFE45F67000C2F2004040
:1016500041680131416008218176284609B0F0BD1A
:10166000002808BF7047D0F8C01100291CBF002116
:1016700080F8C7117047000080ED6E0A70470000C7
:1016800080B52DED028B9FED098AF0EE480A0FF030
:10169000D1FB30EE081AB5EE400AF1EE10FAB8BFF1
:1016A000B0EE410ABDEC028B80BD00BF0000B44328
:1016B00000EE100AB1EE081A00EBE03181EAE030EA
:1016C00080B2B8EEC00A092820EE010A9FED021A86
:1016D00038BFB0EE410A7047000000000000000073
:1016E000F0B589B000283ED0076804464FF00006E8
:1016F000D7B3A06A0296CDE90006082003903846C9
:10170000FFF73EFD05463846CDE90466CDE906669D
:10171000089604F015FA50B32646694656F82C0B85
:10172000324604F095F8002843D0002D5ED0A86919
:101730000130A86100980399069AA862E9622A63B9
:1017400001F046F9BCEEC00A012085ED0D0A3146D4
:1017500068642068D0F89C00A86405F14C00FFF78D
:10176000FBFC002600E00026304609B0F0BD002D4D
:101770003ED0E8690130E861A8690130A8610098AD
:101780000399069AA862E9622A6301F021F9BCEE86
:10179000C00A032085ED0D0A686454F82C0B21461D
:1017A000D0F89C00A86405F14C00FFF7D5FC00269A
:1017B000DAE7FDB168690130686100980399069A1B
:1017C000A862E9622A6301F003F9BCEEC00A0020B6
:1017D00085ED0D0A314668642068D0F89C00A86445
:1017E00005F14C00FFF7B8FC0126BDE70026BBE77A
:1017F0000026B9E70126B7E701A1085C704700BFE2
:101800000001020304050607080C101418203040DC
:10181000C0F3034001A1085C704700BF0001020350
:1018200004050607080C10141820304000000000C2
:1018300080B545F6B450C2F2004002F009FD80BD0B
:1018400080B545F6C440C2F2004002F001FD80BD03
:1018500080B545F63C50C2F2004002F0F9FC80BD74
:1018600040F20F420168C4F20202914210DC6F2282
:10187000C4F20202914220DC3F22C4F202029142F1
:1018800036DC1022C4F20202914254D028224EE0EB
:1018900040F26F42C4F2020291421ADC40F23F422F
:1018A000C4F2020291422ADC40F21042C4F2020267
:1018B000914240D040F2284239E09F22C4F2020215
:1018C000914225DC7022C4F20202914233D0882278
:1018D0002DE040F29F42C4F2020291421FDC40F22E
:1018E0007042C4F20202914225D040F288421EE0CA
:1018F0004022C4F2020291421DD0582217E040F269
:101900004042C4F20202914215D040F258420EE029
:10191000A022C4F2020291420DD0B82207E040F2A8
:10192000B842C4F20202914205D040F2A042C4F291
:10193000020291421AD1D0F800C06FF00F024AF6AD
:10194000AB2352FA8CF2CAF6AA23A2FB033109A3F5
:101950005F2AC1F302115B5C40F2FF312CEA010106
:10196000C36588BF0431816508467047016821F06E
:10197000FF01F8E700061016000610160000000030
:1019800010B545F257420168C5F6020291420EDCDD
:1019900045F22F42C5F60202914217DC45F2084299
:1019A000C5F60202914226D045F21C421FE045F2E4
:1019B0007F42C5F60202914211DC45F25842C5F65B
:1019C0000202914217D045F26C4210E045F23042DB
:1019D000C5F6020291420ED045F2444207E045F2BC
:1019E0009442C5F60202914205D045F28042C5F606
:1019F0000202914219D101784CF6CD42CCF6CC428C
:101A000045F600030839C5F60203A1FB021203F1F3
:101A10008001120903EB820302F01F020366012317
:101A2000416603FA02F1816610BD02784AF6AB23E3
:101A3000CAF6AA234FF0080E103AA2FB032340F285
:101A40000F42C4F202024FEA131C914202F1AA04AF
:101A5000624688BF0EEB131240F60003A142C4F2A7
:101A6000020303F1800128BF6246D3E700000000B3
:101A700010B50279511E072988BF10BD45F2574C99
:101A800045F6FC0E0368C5F6020CC5F6020E63456A
:101A90000EF1440C0EDC45F22F44C5F60204A342BD
:101AA00017DC45F20844C5F60204A34226D045F2ED
:101AB0001C441FE045F27F44C5F60204A34211DC3A
:101AC00045F25844C5F60204A34217D045F26C44CF
:101AD00010E045F23044C5F60204A3420ED045F2B0
:101AE000444407E045F28044C5F60204A34205D011
:101AF00045F29444C5F60204A34209D10EEB8202DA
:101B0000C2660122C0F870C002FA01F1416710BD3F
:101B100040F6FC0EC4F2020E0EF1440CEEE700009B
:101B20008169B1F5005F07D079B9816A022912D0C5
:101B3000012916D079B112E0816A03290FD8DFE8B4
:101B400001F0020A021001207047816A03293CBF9C
:101B50000120704703D1C06AC0F3006070470020C5
:101B60007047C06AA0F1C070B0FA80F040097047B9
:101B700070B540F26F44D0F800E0C4F20204D0F82F
:101B800058C0A64519DC9F25C4F20205AE4531DCDC
:101B90005725C4F20205AE4556DC1025C4F20205F5
:101BA000AE4500F092802825C4F20205AE4500F053
:101BB0008C804025C4F2020584E045F22F45C5F62D
:101BC0000205AE452BDC40F2B745C4F20205AE4536
:101BD00048DC40F27045C4F20205AE4575D040F2D3
:101BE0008845C4F20205AE456FD040F2A045C4F26C
:101BF000020567E040F22745C4F20205AE4540DC2D
:101C0000A025C4F20205AE455FD0B825C4F2020596
:101C1000AE455AD040F21045C4F2020552E045F2FA
:101C20006B45C5F60205AE453CDC45F23045C5F6D0
:101C30000205AE4549D045F24445C5F60205AE451C
:101C400043D045F258453BE05825C4F20205AE4565
:101C50003BD07025C4F20205AE4536D08825C4F2CB
:101C600002052FE040F2B845C4F20205AE452CD083
:101C700045F20845C5F60205AE4526D045F21C459D
:101C80001EE040F22845C4F20205AE451DD040F2E8
:101C90004045C4F20205AE4517D040F25845C4F2A3
:101CA00002050FE045F26C45C5F60205AE450CD0C5
:101CB00045F29445C5F60205AE4506D045F280458D
:101CC000C5F60205AE4540F0C980456EC66E002ED1
:101CD000866E6E601CBFD0E91C566E60A64515DC92
:101CE0009F24C4F20204A6452BDC5724C4F202044C
:101CF000A6454EDC1024C4F20204A64576D0282462
:101D0000C4F20204A64571D040246BE045F22F4492
:101D1000C5F60204A64527DC40F2B744C4F202042B
:101D2000A64542DC40F27044C4F20204A6455DD0F0
:101D300040F28844C4F20204A64557D040F2A044C1
:101D400050E040F22744C4F20204A6453CDCA02443
:101D5000C4F20204A64549D0B824C4F20204A64540
:101D600044D040F210443DE045F26B44C5F6020415
:101D7000A6454FDC45F23044C5F60204A6455BD0CB
:101D800045F24444C5F60204A64555D045F25844F0
:101D90004EE05824C4F20204A64527D07024C4F2B1
:101DA0000204A64522D088241CE040F2B844C4F2C4
:101DB0000204A6451AD045F20844C5F60204A64519
:101DC0003AD045F21C4433E040F22844C4F2020405
:101DD000A6450BD040F24044C4F20204A64505D00B
:101DE00040F25844C4F20204A64537D104683F25A6
:101DF0008668C06D00F01F00402E05FA00F0CCF898
:101E00000800206820F480202060636021D0A16059
:101E1000E26070BD45F26C44C5F60204A6450BD0E5
:101E200045F28044C5F60204A64505D045F2944427
:101E3000C5F60204A64511D10468C66D806806F097
:101E40001F060125402805FA06F6CCF804606360F9
:101E500002D1A260E16070BDA160E26070BD0000CF
:101E600080B52DED068BB0EE609AB0EE408A00F0A2
:101E7000BFFBB0EE40AAB0EE490A00F0B9FB30EE6D
:101E80004A0A9FED0E1AB4EE410AF1EE10FA04DD93
:101E90009FED0D1A30EE010A0AE09FED091AB4EE2B
:101EA000410AF1EE10FA03DA9FED061A30EE010A4C
:101EB00030EE080ABDEC068B80BD00BF0000344345
:101EC000000034C30000B4430000B4C300000000AD
:101ED00010B52DED048B002800F0E480044690F846
:101EE000FE01002800F0E18094ED6E0A94F83400C1
:101EF000B1EE401A9FED759A01289FED758AF0EEBC
:101F0000480A01FE000A20EE090A0EF093FF94F839
:101F1000380030EE081AB5EE400AF1EE10FAB8BFFC
:101F2000B0EE410A012824D19FED6A1A94ED032AEC
:101F300094F8350022EE013A22EE412A012860EEA3
:101F4000010A02FE030AFFF78BFF94ED742A20EECC
:101F5000091AB1EE420AB4EE401AF1EE10FA08DDA9
:101F6000B0EE420AB4EE421AF1EE10FA01DAB0EE27
:101F7000410A94ED7E2A9FED581AB4EE412A9FED56
:101F8000573AF1EE10FA94F8EC01B5EE402A33FE20
:101F9000021AF1EE10FAD8BFB0EE431A58B994ED18
:101FA000082AE06822EE092AC4F8E40184ED7A2ABE
:101FB000012084F8EC0194ED792A94ED783A30EE22
:101FC000424A9FED475AB0EEC33ABFEE006AB7EE01
:101FD000007AD4ED7A0AB5EE404AF0EEC41AF1EE7A
:101FE00010FA83FE055A27FE063A20EEA06A35EE67
:101FF000057A23EE055A86EE076A21EE057A21EE70
:10200000455AF4EE461AF1EE10FA37FE056A94EDE1
:10201000775AB0EEC55A30EE868AB4EE458AF1EEB4
:1020200010FA06DCB1EE455AB4EE458AF1EE10FA2C
:1020300001DAB0EE458A01EE082AB5EE404AF1EE2B
:1020400010FA04DBB4EE402AF1EE10FA09DCB5EE2A
:10205000403AF1EE10FA08DAB4EE402AF1EE10FA46
:1020600003DAB0EE402A9FED1F8AB0EE420AF0EE8E
:10207000480A9FED1C1A204684ED792A84ED7A8A5D
:1020800000F0CEFA9FED130A45F6E00028EE000AB4
:10209000C2F20040D4F8B811C162BDEEC00A10EE21
:1020A000101A0186BDEC048B10BD9FED0E0A94ED55
:1020B000732AF0EE400AB0EE401AF0EE401A2046C5
:1020C00000F0B6FABDEC048B10BD00BF35FA8E3CB3
:1020D000DB0FC940E12E6542CDCCCC3D6F12833A77
:1020E000BD3786350000000068B141884A0602D538
:1020F0000288402A05D00A0707D5008810F0480F4B
:1021000003D0012070470020704740F2E9300840BA
:1021100018BF01207047000080FE200A4FF0FF31F9
:1021200001FA00F0C04380FE410A02EE100A31EECF
:10213000601A30EE600AB8EEC22A20EE020A80EE83
:10214000010ABCEEC00A10EE100A70470000000041
:10215000002808BF704790ED750A80ED770A30EED1
:10216000001A002180ED781AC0E9791180F8EC118D
:1021700070470000000000002DE9F04F81B02DED08
:10218000068B45F6E00841F2D877C2F20048C2F269
:102190000047D8F80C000130C8F80C003878002847
:1021A00000F0038141F2DC7A4FF00009C2F2004AEC
:1021B0009FED80AA4FF0000B19E0D4F8C0014FF05A
:1021C000FF31C0F82F10C162FD21D4F8C00180F8A2
:1021D0003310D4F8C00100F0EBFA002D18BF84F8DA
:1021E000FF9138780BF1010B834580F0DE805AF8BF
:1021F0002B40002CF5D0D4F8C0010028F1D094F881
:10220000C61139B304F130063046FFF76DFF0546BD
:1022100094ED6E0A50B194F8FF01B0EE4A8AB0EE28
:102220004A9AB0EE4A1A002800F09E8094F83400D2
:10223000B1EE401A0128608E41FE000A400610D51A
:10224000308840280DD194F8360001281DD1D4F8EB
:10225000A8011CE094F8C51131B12046FFF738FE03
:102260000CE0B0EE4A8A23E04FF0FF31C0F82F10A7
:10227000C162FD21D4F8C00180F83310D4F8C00148
:1022800000F096FA84F8FF91ABE704F1280090ED96
:10229000000A94F83500B1EE401A012804F140001C
:1022A00001FE000A08F06CFAF0EE400AB0EE408A37
:1022B000608E000715D5308810F0480F11D094F8C3
:1022C000390010F00A0F05D0D4F8B40190ED000ADF
:1022D00070EE800A94F83700012805D1D4F8AC01DB
:1022E00004E0B0EE4A9A12E004F1200090ED000AFA
:1022F00094F83500B1EE401A012804F1B80001FE4F
:10230000000A08F03DFAF0EE400AB0EE409A94F868
:102310003900C00705D0D4F8B00190ED000A70EE86
:10232000800A608E40F2E931084211D094ED060A2D
:1023300094F83500B1EE401A012804F5987001FEBA
:10234000000A08F01DFAF0EE400AB0EE401A01E073
:10235000B0EE4A1ABDEEE00AD4F8B801C8F82C0075
:1023600010EE100AA8F8300094F8C50100283FF4D8
:1023700024AF94F8C601022809D001280DD1B0EE8F
:10238000480AF0EE490A204600F0CEF921E7B0EE07
:10239000490A204600F0F4F91BE7B0EE480AF0EED7
:1023A000490A204600F03CF913E7BDEC068B01B06A
:1023B000BDE8F08F00000000B0B5D0B1D0F8C0513A
:1023C0000446002D08BFB0BD012084F8C5014FF0C0
:1023D000FF30C5F82F00E862FC2085F8330028465E
:1023E00000F0E6F90020C5F82F00E862204600F072
:1023F00033FAB0BD000000002DE9F0418AB090B181
:1024000041F2D8770546C2F200473878082815D33C
:1024100045F6E0000025C2F200404168013141600C
:1024200002210174C4E045F6E0000025C2F200403C
:1024300041680131416001210174B9E04FF400703D
:10244000FDF7B2FF002800F091804FF400710446C0
:10245000FEF719F995F8A000294684F8C401D5F8CB
:1024600094002063D5F898006063D5F89C00A063C1
:1024700004F598704FF00008A4F8C58104F14006F7
:1024800008F00EFA04F1B80005F12C0108F008FA82
:1024900005F15801304608F003FAD5F88400C4F875
:1024A000A801D5F88800C4F8AC01D5F88C00C4F8B0
:1024B000B001D5F89000C4F8B401204600F0F4F95A
:1024C0002046FFF745FE45F6E006D5F8B000C2F21B
:1024D00000460790D5F8A4000490D5F8A800059010
:1024E000D5F8AC0042F691650690C0F600058DF86F
:1024F0001C800420CDE90854307404A800F0CCFFFF
:10250000C4F8C001E8B30821C0E92E5401F09CF8DA
:1025100042F2B950CDF80480C0F60000CDE90204C3
:102520000320ADF8040001A800F03AFBC4F8F00164
:1025300088B32046FFF740FF204600F08DF9387839
:102540002546411C397041F2DC71C2F2004141F86C
:10255000204030680130306000203074DDE9050132
:10256000B082718294F8C601707421E045F6E000F3
:102570000025C2F20040416801314160032101742D
:1025800016E02046FDF73FFF7068002501307060BF
:10259000052030740CE0D4F8C0010025C0E92E55A8
:1025A0002046FDF730FF70680130706006203074FF
:1025B00028460AB0BDE8F081002808BF7047D0F86F
:1025C000C01100291CBF002180F8C5117047000010
:1025D00000281CBF80ED720AC0ED730A704700002E
:1025E000002818BF80ED6E0A704700000000000050
:1025F00080B52DED028B9FED098AF0EE480A0EF0B2
:1026000019FC30EE081AB5EE400AF1EE10FAB8BF28
:10261000B0EE410ABDEC028B80BD00BF0000B443A8
:1026200080B5D0ED721A90ED732A00F001F880BDEC
:102630002DE9F0412DED0A8B9FED36CAB0EE60BA60
:10264000F0EE4C0AB0EE428AB0EE619AB0EE41AACA
:102650000446D0F8C0710EF0EDFB30EE0C1AB5EE6A
:10266000400AF1EE10FAB8BFB0EE410A9FED2A1A07
:102670000C2080EE0C0A20EE010A94ED751AF1EEA2
:10268000410ABCEEC00A10EE108AB0EE4B0AFFF70A
:1026900043FD9FED22BAB0EE490A9FED21CAF0EE4C
:1026A0004B0AB0EE4C1A05460C20FFF735FDB0EE94
:1026B000480AF0EE4B0AB0EE4C1A06460C20FFF723
:1026C0002BFD94ED761AB0EE4A0AF1EE410A04466B
:1026D0000C20FFF721FD4FEA182187F82C1029095B
:1026E00087F82E10310A87F82D8041EA051187F806
:1026F0002F10210987F83110010A87F8306041EA6C
:10270000041187F8321087F83300BDEC0A8BBDE85E
:10271000F08100BFDB0FC9400000804700000000CF
:102720000000FA4300000000B0B52DED028B90EDE3
:10273000741AB0EE608AB1EE412A0446D0F8C05156
:102740001020F0EE420AFFF7E7FC94ED751AB0EEA8
:10275000480AF1EE410A04461020FFF7DDFC210A89
:1027600085F82C1085F82D40010A85F82E1085F883
:102770002F004FF07C402863BDEC028BB0BD000001
:1027800010B590ED751AD0F8C041F1EE410A102055
:10279000FFF7C2FC010A84F82C1084F82D000020F9
:1027A000C4F82E004FF47C40608610BD000000008D
:1027B000B0B58AB000284CD004460068002848D044
:1027C000A16A019100250821CDE9041504F12C022C
:1027D00001A9CDE90255CDE906550895099503F003
:1027E00037F850B145F6E000C2F20040C16B01314C
:1027F000C16380F834500AB0B0BD45F6E000C2F2C3
:102800000040816B01318163012180F83410A16A9D
:10281000418694F82C1080F8401094F82D1080F820
:10282000411094F82E1080F8421094F82F1080F880
:10283000431094F8301080F8441094F8311080F868
:10284000451094F8321080F8461094F8331080F850
:1028500047100AB0B0BD000070B508B3D0F8C04151
:10286000002C08BF70BDA56A84F82C500026C5F363
:10287000022184F82D1040F65521E18590F8C6011B
:1028800040F2FF71A162013084F830002046A4F8C4
:10289000316084F83360FFF78BFFC4E90A56266382
:1028A00070BD00000000000090F8C4114FF07E528F
:1028B000C0F8C8210439CAB2032A4CF6CD42C3F687
:1028C0004C62C0F8CC2106D849B20AA202EB8101C1
:1028D00091ED000A01E0B3EE0E0A002180ED750AC9
:1028E000C4F24811C0F8D0110021C4F22011C0F880
:1028F000D81170470000F0410000F0410000F041A5
:102900000000A0410000000002EE100A30EEC01AE4
:10291000B8EE422A21EE021A9FED032A81EE021A36
:1029200031EE000A704700BF00F07F450000000054
:1029300081B040F2C410C2F20040017809B101B088
:10294000704741F2040C0122CEF2000C0270DCF858
:102950000020009240F2B012009BC2F200421168C7
:102960008B4206D240F2B411C2F200410B6801332F
:102970000B60DCF8001011600021017001B070479D
:1029800080B52DED028B82B041F20401CEF2000140
:102990000968019101990268891A00EE101A40F243
:1029A000A411C2F2004191ED001AB8EE400AB8EE4F
:1029B000411A0199016080EE018AFFF7B9FFB0EE7C
:1029C000480A02B0BDEC028B80BD00000000000090
:1029D00080B500F095F840F2D81040F2DC11C2F258
:1029E0000040C2F200414FF47A729FED0B2A00685A
:1029F000098800FB021040F2E011C2F2004100EE33
:102A0000100A098801EE101AB8EE400AB8EE411A11
:102A100001EE020A80BD00BF6F12833A0000000081
:102A200080B500F06DF840F2D81040F2DC11C2F22F
:102A30000040C2F200419FED0D2A90ED000A088887
:102A4000B8EE400A01EE100A40F2E010C2F2004077
:102A5000B8EE411A008801EE020A01EE100A9FED5D
:102A6000042AB8EE411A01EE020A80BD6F12833AC1
:102A7000BD3786350000000080B54EF6FC51CEF221
:102A800000010A6842F080720A6041F200014CF6CF
:102A90005562CEF20001CCF2AC52C1F8B02F002248
:102AA0004A600B6843F001030B6044F24021C0F21E
:102AB0000F01484340F2A411C2F20041086044F6FD
:102AC000D351C1F26201A0FB01134DF68361C4F240
:102AD0001B31A0FB010140F2A810C2F200409B098B
:102AE0000360880C40F2AC11C2F20041086040F271
:102AF000B410C2F200400260FFF71AFF80BD000070
:102B000070B582B041F20400CEF20000006801907E
:102B1000FFF70EFF40F2B4104FF0FF31C2F2004059
:102B2000002500230068019CE0FB014540F2A41051
:102B3000C2F200402946066820463246FDF78AFC6C
:102B4000A0FB062301FB06310023A41A40F2A812C1
:102B50008D4140F2D811C2F20042C2F20041166823
:102B60000860204629463246FDF774FC81B240F2E7
:102B7000DC12C2F2004271430023108040F2AC121A
:102B8000C2F20042601A65F100011268FDF762FCB2
:102B900040F2E011C2F20041088002B070BD0000B6
:102BA00010B504461020FDF7FFFB00210160816095
:102BB0002188D4E90123C360002908BF6421426051
:102BC00046F2D5626388C2F200420180002B14787D
:102BD00018BF19460181611C117041F29461C2F263
:102BE000004141F8240010BD0188018170470000B8
:102BF00070470000000000002DE9F04F81B02DED7E
:102C0000068B002800F02981044690F8B4000628BD
:102C100007D894F8B500002840F01F81082084F8F8
:102C2000B400D4F8BC5045B9204600F085FE002819
:102C300000F01881054607F0A7FF002D00F00D8178
:102C400045F67006C2F20046B0680130B060D5F8B3
:102C5000C80108B1FFF7C8FF05F5E670FFF790FE61
:102C6000B5F802B085ED740AA5F800B0B0EE408A60
:102C7000B4F86D009FED7E9A00BA4FEA104AA5F8AD
:102C800002A000EE10AAB8EE400A20EE09AA85EDD7
:102C900001AAB4F86F00B4F8711002BA4FEA1249F1
:102CA0000ABA4FEA1248CFBAC0BAFEF701FDB5F929
:102CB00014009FED702A9FED703AA5F8089001EE80
:102CC000100A85ED030A95F8D611B8EEC11A21EE67
:102CD000021A02EE107AB8EEC22A02EE031ABDEE14
:102CE000C11A11EE100AA88294F87300A87559B1A0
:102CF000AAEB0B014EF20002B1F5805FCFF6FF7236
:102D000039DD4FF0FF333DE095ED0C1A40F2011232
:102D10003AEE411AA5F8D621A5F800A0002185EDCC
:102D2000040AD4F8B020E9629FED572AC5E9061AD3
:102D3000C5F820A028EE022A85ED091A85ED0AAA19
:102D4000F261A6F820A0A6F82290A6F8248086F8C2
:102D5000260095F8C40186F8270095F8C50186F885
:102D60002800F162316386ED0D2A86ED0E0AF163CB
:102D700086ED101A71E002F58052914206DA0123C5
:102D80004FF400521144EA6A1A44EA620A460029E2
:102D900048BF4A4201EE101A95ED042A9FED383AD9
:102DA000022A22EE032A9FED373AB8EEC11A9FEDB0
:102DB000334AB5EE408A00EE032A21EE091A81EE6D
:102DC000083A38BFB0EE443AB0EE425AF1EE10FA8B
:102DD000D8BFB0EE443A022AB5EE400A38BFB0EE92
:102DE000445A95ED0A0AEA69F1EE10FA31EE000A4A
:102DF00095ED0C4A05FE022A0A4485ED042A2B6A49
:102E000030EE441AD31AC5E9063285ED091A0122BB
:102E100085ED0A0A9FED1C0A85F8D721D4F8B02069
:102E2000F26128EE000AA6F820A0A6F82290A6F8E3
:102E3000248086F8260095F8C40186F8270095F8C6
:102E4000C50186F82800F162336386ED0D0A86ED30
:102E50000E2A86ED0F3A86ED101ABDEC068B01B0F6
:102E6000BDE8F08F0025002D7FF4EAAEF5E700BF46
:102E7000ACFF333DD0CCCC3D6666663F0000000021
:102E80006666263F3333B33E00007A4400000000FC
:102E90002DE9F04381B02DED068B002800F0ED8088
:102EA000044690F8B400062807D894F8B500002826
:102EB00040F0E380082084F8B400D4F8BC70002F00
:102EC00000F0DB8045F6E008C2F20048D8F80800C0
:102ED0000130C8F80800D7F8F00108B1FFF784FE08
:102EE00007F5FA70FFF74CFD87ED7E0A9FED651A36
:102EF00094F86D00D7ED750A97ED03AA00F00F0066
:102F0000387294F86D0000097872B4F86E0094F885
:102F1000711094F8722000BA4FEA104994F87000CA
:102F200000EE109AA7F80090000187ED04AA40EA8D
:102F3000111501F00F00B8EE400A7D8042EA00262C
:102F40002846BE8020EE010A9FED4F1A20EE019A1E
:102F5000B1EE600AFFF7D8FCD7ED760AB0EE408AF2
:102F6000B1EE601A3046B0EE410AFFF7CDFC97EDA6
:102F7000061A9FED462A21EE022A9FED451A9FED83
:102F8000453A87ED039A87ED058A97F8FE2100EE12
:102F9000012A97ED080A9FED401A20EE014A9FEDA5
:102FA0003F0A28EE031A87ED062A94F8730001EE13
:102FB000004AB87129EE030A94F87410F97187ED8C
:102FC000070A87ED084A5AB139EE4A1A9FED342AAA
:102FD000B4EE421AF1EE10FA21DD4FF0FF3126E097
:102FE00087ED049A002187ED081A796240F20111F9
:102FF00087ED0A0AA7F8FE11A8F81690A8F818504D
:10300000A8F81A6088F81C0088ED089A88ED098AEB
:1030100088ED0A0AD4F8B000A8F812002DE09FED60
:10302000212AB4EE421AF1EE10FA03DA01217A6A8B
:103030001144796297ED091A9FED1B2AB8EEC11A67
:10304000012187F8FF1101EE020A97ED0B1A30EE0D
:10305000410A87ED0A0AA8F81690A8F81850A8F8AF
:103060001A6088F81C0088ED089A88ED098A88EDB6
:103070000A0AD4F8B000A8F81200BDEC068B01B023
:10308000BDE8F083DB0FC94000008037D0CCCC3DD9
:103090006666663FE12E65426666263F3333B33E81
:1030A000DB0F4940DB0F49C00000B44300000000C3
:1030B000EFF3108072B600BFFEE7000000000000D2
:1030C00044F60C00C5F60200016841F002010160FF
:1030D00050F8081C8904FBD5704700000000000070
:1030E00080B545F62C60C2F2004002F035FD80BD8F
:1030F00080B545F62C60C2F2004002F02DFD80BD87
:1031000080B545F6CC60C2F2004002F025FD80BDDE
:1031100080B545F6CC60C2F2004002F01DFD80BDD6
:10312000F0B589B000220892CDE90622CDE904224B
:1031300004460192CDE9022200280D4618BF2268FC
:10314000104600F071F907460120002C18BF002D31
:1031500001D109B0F0BDD4F8B01011B9D4F8B8005D
:10316000B0B322686B79906B98424FF00100F0D9B0
:1031700000260591CDE90163022301A9CDE90330C1
:1031800040F2FF700690104602F09AFB68B1002FE3
:103190004FF00100DDD0396901313961786421686F
:1031A000D1F89C10B96469790FE06879002F00F1BB
:1031B00001014FF000006971CBD0FA680132FA606A
:1031C00078642268D2F89C20BA64797009B0F0BDA6
:1031D000002009B0F0BD000010B5082A28BF082261
:1031E00092B10139C2F1000C4FF0FF3200EB020E38
:1031F00001320CEB020311F8014F01338EF801404C
:10320000F4D1511CC9B200E00021072988BF10BDCC
:103210000844083901380022013100F8012FFBD39E
:1032200010BD00000000000070B582B0044608B177
:10323000206800E0002000F0F7F82CB10646207965
:1032400028B1002002B070BD012002B070BD20681E
:103250000221022201230125009502F075FB60B9CD
:10326000206802F0C5FF40B920681121002202F059
:10327000B3FA78B1206802F0D7FF4FF00100AEB189
:10328000B1680131B16070642168D1F89C10B164FB
:1032900002B070BD01214FF00000217136B13170D4
:1032A00061797170716801317160ECE702B070BDD5
:1032B0002DE9F04F9BB08B46044600F0B5F805466B
:1032C0002046594602F064FB00285ED005F1540800
:1032D0000DF144090DF1040A22E000BF0126D5B129
:1032E00011981499A863E963FFF772FBBCEEC00A5A
:1032F000002085ED100A514668643A46D4F89C00D7
:10330000A8644046FFF768FF2020002E18BF242045
:103310002958013129502046594602F039FBA0B303
:10332000204659464A46534602F03EFB38BB2046EB
:10333000494600F02DF81499064600F055F9002E84
:103340000746CBD02FB9304600F09EF8002808BFC2
:103350000827402F28BF402786F8B4702FB106F108
:103360006D0051463A46FDF7EDF8D6F8B810002941
:10337000B4D0304688470026002DB1D1CBE725B127
:1033800001206864D4F89C00A8641BB0BDE8F08FED
:1033900070B5044600284FF0000030D00D4671B3E0
:1033A000686868B92E680020B0EBD62F08D1204697
:1033B00000F052F820B150F82600002818BF70BD68
:1033C00046F2D460C2F200400178C9B1017845F2FA
:1033D000FC72C2F20042012998BF012104E000BF43
:1033E000013902F104020BD010680028F8D00368FC
:1033F000A342F5D12B68D0F8B060B342F0D170BDD4
:10340000002070BD0000000040F210120021C2F246
:10341000004200BF5358834204D008311029F9D12B
:10342000002070475018704745F62C61C2F20041E9
:1034300088420CD045F6CC6245F68C11C2F20042AF
:10344000C2F20041904218BF00210846704745F67D
:103450003010C2F20040704745F62C61C2F20041C4
:1034600088420CD045F6CC6243F2FC71C2F20042B5
:10347000C2F20041904218BF00210846704741F255
:10348000FC70C2F200407047C069A0F50010B0FAAD
:1034900080F04009704700002DE9F04F81B0A0B1E5
:1034A000046806469CB12046FFF7AEFF88B182460D
:1034B0002046FFF7D1FF46F2D469C2F2004999F8DD
:1034C00000100F2907D900278AE0002788E000278D
:1034D00086E0002784E08046B568002D18BFB8F16B
:1034E000000F50D1B1B145F2FC70C2F2004003E0D0
:1034F000013900F104000DD0002DF9D00268002A36
:10350000F6D01368A342F3D1D2F8B020AA42EFD18B
:10351000002765E0C020FCF747FF4FF0000BE0B349
:10352000C0210746FDF7AFF8317B3C6070687860DA
:10353000C7F808B00029C7F80CB04FF0080218BF50
:103540000121C7E909B03069C7F8B8007069C7F848
:10355000BC0038460B05C7E9042BBB614B05C7E926
:10356000073BC7F8B05087F8B51087F86C2000F01B
:10357000A3F838465146FFF7D3FD80B13846FCF733
:1035800042FF00272CE00020B0EBD52FAAD158F83D
:1035900025000028A6D0002722E0002720E0504682
:1035A000FFF742FE20B13846FCF72DFF002717E059
:1035B000D7F8B000002818BFB8F1000F05D00021DF
:1035C000B1EBD02F08BF48F8207099F80000411CDB
:1035D00089F8001045F2FC71C2F2004141F82070F8
:1035E000384601B0BDE8F08FB0B50C46B1F5803F6C
:1035F000054605D32046FEF70BF908B1C0B2B0BDB1
:10360000082C01D8E0B2B0BD1DB12846FFF73CFF41
:10361000B0B104F00F00FEF7EFF80028EED1A4F1EE
:103620000C004FEAB00100200D29E7D8012202FA70
:1036300001F142F22F22114218BF2046C0B2B0BDA4
:103640000820C0B2B0BD0000B0B588B30446481E23
:10365000C0B20D463F2888BFB0BD204600F02CF810
:103660002046FFF711FF2946002808BF0821082D32
:1036700098BF2946D0B1302901D9402116E0202930
:1036800001D9302112E0182901D920210EE0142996
:1036900001D918210AE0102901D9142106E00C29CA
:1036A00001D9102102E0082988BF0C2184F86C1090
:1036B000B0BD000000000000B0B50446FFF7E4FE16
:1036C000054684F8B50010B90020C4E9060020685A
:1036D000FFF7AAFE002808BFB0BD8570E16901634D
:1036E000B0BD0000000000002DE9F04F82B001687D
:1036F000C76BD0E90DA2D1F884304FF6FC74A34318
:1037000043EA8A03C1F88430D1F88430019223F46B
:103710007F0343EA0243C1F8843002EB0A03D1F885
:1037200088406FF38F0444EA8304C1F88840D1F8DD
:103730008840009724F4FE0444EA0744C1F8884016
:1037400003EB4704D1F8A0306FF38F0343EA8403FF
:10375000C1F8A030D1F8A050D0F840B025F4FE0553
:1037600045EA0B45C1F8A050D0F84480D1F8B050DC
:103770006FF38F0508FB0B4408FB0BF845EA840543
:10378000C1F8B050D1F8B060856C26F4FE0646EA68
:103790000546C1F8B060D0F84C9009FB0547D1F858
:1037A000AC406FF38F0409FB05F944EA8704C1F8C4
:1037B000AC40D0E9144606FB0472D1F8F0706FF308
:1037C0008F0747EA8207C1F8F070D1F8F030876DB3
:1037D00023F47C1343EA0743C1F8F03002EB4702BD
:1037E000D1F8C0306FF38F0343EA8202C1F8C020E2
:1037F000D1F8C020C36D22F47C1242EA0342C1F822
:10380000C0204AF60042D1F8C0C0D0F860E0C4F24F
:103810000002019D02EB8A022CF07C5C06FB04FA9C
:10382000009C4CEA0E6C02EB8505C1F8C0C005EBAC
:10383000C406846E06EB8801056701EB890C6343BF
:103840000CEB8A05C266C0E91E1C0EFB04F105EBF9
:10385000C70707EB8303C0F884704DF2FC37466757
:1038600003EB8101C4F20007B942C0F88050C0F8F0
:103870008830C0F890100AD9D0F89C1041F020018F
:10388000C0F89C10032180F8981001210CE0D0F8BA
:1038900090108A4207D2002142F8041BD0F89030E1
:1038A0009A42F9D300E00021084602B0BDE8F08F4B
:1038B000F0B5D1F804C0D1F810E0BCF1000FD1F898
:1038C00008C006D00C684EEA0C05254345F0804C34
:1038D00004E00D684CEA0E0444EA854C856ED0F88D
:1038E0008470D1E907466B438D6944EA0660D1F8DC
:1038F00014E0CC68054307EB830045EA0E0647F861
:1039000023C046EA04434360CB68002B08BFF0BDE8
:1039100041F6A40C083001320023C0F6010C00BFB0
:10392000D71857F8017CC750CF6804331CF80770CC
:10393000BB42F5D3F0BD000010B54FF0000C48B30A
:1039400046F2D661C2F200410A781AB30A7841F20F
:10395000A873C2F20043012A98BF012204E000BF0D
:10396000013A03F1040317D0D3F800C0BCF1000FF3
:10397000F6D0DCF8C0110029F2D081420AD0D1F88B
:1039800000E00468A645EBD1D1F8B010D0F8B04003
:10399000A142E5D1604610BD4FF0000C604610BD5D
:1039A000B0B54EF60001C1F6F17108688A6880185A
:1039B00008BFB0BD40F2DC054C68C2F200450822E9
:1039C000A91C06F0FDF905F112010422204606F0BB
:1039D000F7F9B0BD000000002DE9F041044602F007
:1039E0006BFD04B3054694F8350002281ED140F261
:1039F0000F472068C4F2020740F26F48B842C4F291
:103A0000020817DC6F21C4F20201884223DC3F2147
:103A1000C4F20201884239DC1021C4F2020188425A
:103A200058D0282151E00120BDE8F0818020606558
:103A30000120ABE240451ADC40F23F41C4F20201F2
:103A400088422ADC40F21041C4F20201884241D08F
:103A500040F2284139E09F21C4F20201884225DC6E
:103A60007021C4F20201884234D088212DE040F256
:103A70009F41C4F2020188421FDC40F27041C4F24F
:103A80000201884226D040F288411EE04021C4F263
:103A9000020188421ED0582117E040F24041C4F292
:103AA0000201884216D040F258410EE0A021C4F233
:103AB000020188420ED0B82107E040F2B841C4F2BA
:103AC0000201884206D040F2A041C4F202018842BD
:103AD00040F0EA812668316821F01E02314641F843
:103AE000142B6FF080020B68404502EA03020A6063
:103AF00019DC9F21C4F20201884231DC5721C4F253
:103B00000201884256DC1021C4F20201884200F012
:103B100091802821C4F20201884200F08B8040216C
:103B2000C4F2020184E045F22F41C5F60201884249
:103B30002BDC40F2B741C4F20201884248DC40F27B
:103B40007041C4F20201884274D040F28841C4F24C
:103B5000020188426ED040F2A041C4F2020167E047
:103B600040F22741C4F20201884240DCA021C4F2A5
:103B7000020188425ED0B821C4F20201884259D0C5
:103B800040F21041C4F2020152E045F26B41C5F629
:103B9000020188423CDC45F23041C5F60201884210
:103BA00048D045F24441C5F60201884242D045F270
:103BB00058413BE05821C4F2020188423AD07021BA
:103BC000C4F20201884235D08821C4F202012FE0FC
:103BD00040F2B841C4F2020188422BD045F20841BC
:103BE000C5F60201884225D045F21C411EE040F294
:103BF0002841C4F2020188421CD040F24041C4F284
:103C00000201884216D040F25841C4F202010FE08E
:103C100045F26C41C5F6020188420BD045F2944151
:103C2000C5F60201884205D045F28041C5F6020181
:103C3000884269D1216EB8420A6822F480720A6013
:103C400010DC6F21C4F2020188421CDC3F21C4F267
:103C50000201884232DC1021C4F20201884252D0B3
:103C600028214AE040451ADC40F23F41C4F20201FB
:103C700088422ADC40F21041C4F20201884242D05C
:103C800040F2284139E09F21C4F20201884225DC3C
:103C90007021C4F20201884235D088212DE040F223
:103CA0009F41C4F2020188421FDC40F27041C4F21D
:103CB0000201884227D040F288411EE04021C4F230
:103CC000020188421FD0582117E040F24041C4F25F
:103CD0000201884217D040F258410EE0A021C4F200
:103CE000020188420FD0B82107E040F2B841C4F287
:103CF0000201884207D040F2A041C4F2020188428A
:103D000008BF206800E02068016821F0010101601F
:103D10003068C0070BD002F0CFFB401B0628F7D35A
:103D200020206065032084F8350001202EE1206802
:103D3000B84210DC6F21C4F2020188421CDC3F2132
:103D4000C4F20201884232DC1021C4F2020188422E
:103D500050D028214AE040451ADC40F23F41C4F2ED
:103D6000020188422ADC40F21041C4F2020188427A
:103D700040D040F2284139E09F21C4F2020188423C
:103D800025DC7021C4F20201884233D088212DE065
:103D900040F29F41C4F2020188421FDC40F27041B0
:103DA000C4F20201884225D040F288411EE0402141
:103DB000C4F2020188421DD0582117E040F2404170
:103DC000C4F20201884215D040F258410EE0A02111
:103DD000C4F2020188420DD0B82107E040F2B84198
:103DE000C4F20201884205D040F2A041C4F20201AF
:103DF00088425ED1D4E9161202F01F023F2303FA73
:103E000002F28A6040455EDC9F21C4F202018842D2
:103E100014DC5721C4F20201884226DC1021C4F2CE
:103E20000201884200F0A2802821C4F202018842E7
:103E300000F09C804021C4F2020195E040F227414D
:103E4000C4F2020188421EDCA021C4F202018842B1
:103E500000F08C80B821C4F20201884200F0868014
:103E600040F21041C4F202017EE05821C4F2020186
:103E700088427BD07021C4F20201884276D088212A
:103E8000C4F2020170E040F22841C4F2020188420B
:103E90006CD040F24041C4F20201884266D040F248
:103EA0005841C4F202015FE021686FF00E020E4635
:103EB00019E6D4E9161202F01F02012303FA02F2F6
:103EC0004A604045A0DD45F22F41C5F60201884217
:103ED00016DC40F2B741C4F20201884225DC40F210
:103EE0007041C4F20201884240D040F28841C4F2DD
:103EF000020188423AD040F2A041C4F2020133E00C
:103F000045F26B41C5F6020188421DDC45F23041A5
:103F1000C5F60201884229D045F24441C5F60201A6
:103F2000884223D045F258411CE040F2B841C4F227
:103F3000020188421AD045F20841C5F602018842C2
:103F400014D045F21C410DE045F26C41C5F602016A
:103F500088420BD045F29441C5F60201884205D053
:103F600045F28041C5F6020188420BD1616EA26E16
:103F7000E06E4A6030B1016821F480710160D4E9DB
:103F80001C014160012084F835000020002184F8E4
:103F90003410BDE8F081000080B5D8B190F835103C
:103FA000022919D140F20F420168C4F20202914283
:103FB00016DC6F23C4F20203994226DC3F23C4F2CD
:103FC000020399423CDC1023C4F2020399425AD006
:103FD000282354E0012080BD80214165012080BD5F
:103FE00040F26F43C4F2020399421ADC40F23F43AD
:103FF000C4F2020399422ADC40F21043C4F20203E5
:10400000994240D040F2284339E09F23C4F2020392
:10401000994225DC7023C4F20203994233D08823ED
:104020002DE040F29F43C4F2020399421FDC40F2AC
:104030007043C4F20203994225D040F288431EE047
:104040004023C4F2020399421DD0582317E040F2E6
:104050004043C4F20203994215D040F258430EE0A7
:10406000A023C4F2020399420DD0B82307E040F226
:10407000B843C4F20203994205D040F2A043C4F20F
:104080000203994270D191424FF0040280F835202A
:1040900010DC6F22C4F20202914220DC3F22C4F203
:1040A0000202914236DC1022C4F20202914254D044
:1040B00028224EE040F26F42C4F2020291421ADC22
:1040C00040F23F42C4F2020291422ADC40F2104226
:1040D000C4F20202914240D040F2284239E09F22CD
:1040E000C4F20202914225DC7022C4F20202914223
:1040F00033D088222DE040F29F42C4F20202914266
:104100001FDC40F27042C4F20202914225D040F21C
:1041100088421EE04022C4F2020291421DD0582281
:1041200017E040F24042C4F20202914215D040F240
:1041300058420EE0A022C4F2020291420DD0B822F1
:1041400007E040F2B842C4F20202914205D040F2C8
:10415000A042C4F20202914224D10068016821F019
:1041600001010160002080BD0268136823F00E0386
:10417000136045F25742C5F6020291420A6822F0E6
:1041800001020A6014DC45F22F42C5F60202914298
:104190001DDC45F20842C5F6020291422CD045F2E0
:1041A0001C4225E0086820F001000860002080BD66
:1041B00045F27F42C5F60202914211DC45F25842B7
:1041C000C5F60202914217D045F26C4210E045F26A
:1041D0003042C5F6020291420ED045F2444207E059
:1041E00045F29442C5F60202914205D045F2804262
:1041F000C5F6020291421AD1D0E9181CD0E916E3A3
:104200000A6822F480720A6003F01F01012202FA98
:1042100001F1CEF80410816ECCF80410C16E31B1FA
:104220000A6822F480720A60D0E91C124A600121F7
:1042300080F83510026D002180F834100AB19047E3
:104240000021084680BD0000406D7047000000005E
:104250002DE9F04381B00021009140F22001044695
:10426000C2F2004140F26F49A56DC4F2020908682C
:1042700048F2B511C1F64E312668A0FB01084E4543
:104280002F682A6815DC9F20C4F2020086422BDCCE
:104290005720C4F2020086424FDC1020C4F2020014
:1042A000864278D02820C4F20200864273D0402093
:1042B0006CE045F22F40C5F60200864227DC40F252
:1042C000B740C4F20200864243DC40F27040C4F2C0
:1042D000020086425FD040F28840C4F2020086426B
:1042E00059D040F2A04051E040F22740C4F2020011
:1042F00086423DDCA020C4F2020086424BD0B820AA
:10430000C4F20200864246D040F210403EE045F240
:104310006B40C5F60200864274DC45F23040C5F6BB
:104320000200864200F0818045F24440C5F602005A
:1043300086427AD045F2584072E05820C4F202001A
:10434000864228D07020C4F20200864223D0882002
:104350001CE040F2B840C4F2020086421BD045F295
:104360000840C5F6020086425FD045F21C4057E087
:1043700040F22840C4F2020086420CD040F2404095
:10438000C4F20200864206D040F25840C4F2020055
:10439000864240F0ED84E06D00F01F01082000FA35
:1043A00001F23A4200F0148140F20F40C4F20200E0
:1043B000864213DC6F20C4F20200864200F38E8036
:1043C0003F20C4F20200864200F3CF801020C4F2E6
:1043D0000200864200F0ED802820E5E04E4500F323
:1043E000898040F23F40C4F20200864200F3C4805C
:1043F00040F21040C4F20200864200F0DA8040F23F
:104400002840D1E045F26C40C5F6020086420CD04F
:1044100045F28040C5F60200864206D045F294403F
:10442000C5F60200864240F0A3842068E16D01F0E9
:104430001F010368580727D50420884010EA0207A7
:1044400022D01904686000F18780980600F18C84FE
:1044500040F20F40C4F20200864200F3AB836F20AB
:10446000C4F20200864200F3E6833F20C4F2020059
:10447000864200F350841020C4F20200864200F00D
:104480006D84282000F066BC980742D50220884041
:1044900010EA02073DD01904686000F10E83980607
:1044A00000F1988440F20F40C4F20200864200F30B
:1044B000AF836F20C4F20200864200F311843F20D4
:1044C000C4F20200864200F356841020C4F20200B7
:1044D000864200F07384282000F06CBC9F20C4F258
:1044E0000200864251DC7020C4F20200864260D095
:1044F000882059E040F29F40C4F2020086424BDC23
:1045000040F27040C4F20200864252D040F288402D
:104510004AE0180740F12C8408208840104000F041
:10452000278440F20F40C4F20200864200F32C833D
:104530006F20C4F20200864200F34F833F20C4F292
:104540000200864200F393831020C4F202008642E8
:1045500000F0B1832820A9E3D80300F1B482A16C54
:10456000002940F00C8300F003BC4020C4F202009C
:1045700086421ED0582017E040F24040C4F20200AC
:10458000864216D040F258400EE0A020C4F202004D
:1045900086420ED0B82007E040F2B840C4F20200D4
:1045A000864206D040F2A040C4F20200864240F0AB
:1045B0008E82206804230068184209D020680368AE
:1045C00023F004030360AA60606D40F001006065A1
:1045D000012000FA01F23A4270D040F20F40C4F2DA
:1045E0000200864210DC6F20C4F2020086421CDC0E
:1045F0003F20C4F20200864232DC1020C4F20200E6
:10460000864251D028204AE04E451ADC40F23F4015
:10461000C4F2020086422ADC40F21040C4F20200DA
:10462000864241D040F2284039E09F20C4F2020087
:10463000864225DC7020C4F20200864234D08820F5
:104640002DE040F29F40C4F2020086421FDC40F29F
:104650007040C4F20200864226D040F288401EE03C
:104660004020C4F2020086421ED0582017E040F2DB
:104670004040C4F20200864216D040F258400EE09C
:10468000A020C4F2020086420ED0B82007E040F21B
:10469000B840C4F20200864206D040F2A040C4F204
:1046A0000200864240F016822068406900F08000D7
:1046B00020B1AA60606D40F002006065042000FA3D
:1046C00001F23A4270D040F20F40C4F2020086423A
:1046D00010DC6F20C4F2020086421CDC3F20C4F2D2
:1046E0000200864232DC1020C4F20200864251D021
:1046F00028204AE04E451ADC40F23F40C4F2020056
:1047000086422ADC40F21040C4F20200864241D0C8
:1047100040F2284039E09F20C4F20200864225DCA6
:104720007020C4F20200864234D088202DE040F28E
:104730009F40C4F2020086421FDC40F27040C4F287
:104740000200864226D040F288401EE04020C4F29B
:10475000020086421ED0582017E040F24040C4F2CA
:104760000200864216D040F258400EE0A020C4F26B
:10477000020086420ED0B82007E040F2B840C4F2F2
:104780000200864206D040F2A040C4F202008642F7
:1047900040F0A6812068006800F0020020B1AA6005
:1047A000606D40F004006065102000FA01F13942AC
:1047B0007ED040F20F40C4F20200864210DC6F202F
:1047C000C4F2020086421CDC3F20C4F20200864292
:1047D00032DC1020C4F20200864251D028204AE088
:1047E0004E451ADC40F23F40C4F2020086422ADC09
:1047F00040F21040C4F20200864241D040F228400C
:1048000039E09F20C4F20200864225DC7020C4F209
:104810000200864234D088202DE040F29F40C4F24E
:10482000020086421FDC40F27040C4F20200864261
:1048300026D040F288401EE04020C4F202008642AA
:104840001ED0582017E040F24040C4F202008642D9
:1048500016D040F258400EE0A020C4F2020086427A
:104860000ED0B82007E040F2B840C4F20200864201
:1048700006D040F2A040C4F20200864240F03681E9
:10488000266808223068104212D0A96020680168AA
:104890004903016806D4C90506D4016821F008015E
:1048A000016001E008034FD4216C09B1204688471C
:1048B000E06D202100F01F008140394200F0AE8001
:1048C00040F20F432268C4F202039A4210DC6F23C5
:1048D000C4F202039A421CDC3F23C4F202039A4250
:1048E00036DC1023C4F202039A4255D028234EE04E
:1048F0004A451ADC40F23F43C4F202039A422EDCDE
:1049000040F21043C4F202039A4245D040F22843D9
:104910003DE09F23C4F202039A4229DC7023C4F2D3
:1049200002039A4238D0882331E040F29F43C4F218
:1049300002039A4223DC40F27043C4F202039A421B
:104940002AD040F2884322E0A16C0029AED1AFE723
:104950004023C4F202039A421ED0582317E040F2CB
:104960004043C4F202039A4216D040F258430EE08C
:10497000A023C4F202039A420ED0B82307E040F20B
:10498000B843C4F202039A4206D040F2A043C4F2F4
:1049900002039A4240F0AC802268102312681A4247
:1049A0003CD0A96094F835202168042A0A681DD1FA
:1049B00022F016020A604A6922F080024A61226CE3
:1049C0000AB9A26C1AB10A6822F008020A603F21F3
:1049D00001FA00F0A860012084F83500216D002064
:1049E000002984F8340040F0CA80C1E1500308680F
:1049F0000CD4C0050ED4086820F010000860012017
:104A000084F83500002084F8340003E0000301D46A
:104A1000616C00E0E16B09B120468847606D0028B9
:104A200000F0A681606DC00700F0A580042084F826
:104A3000350040F20F412068C4F20201884210DCC8
:104A40006F21C4F2020188421CDC3F21C4F2020142
:104A500088424FDC1021C4F2020188426FD0282125
:104A600067E048451ADC40F23F41C4F20201884247
:104A700047DC40F21041C4F2020188425FD040F2AC
:104A8000284156E09F21C4F20201884242DC702195
:104A9000C4F20201884252D088214AE040F29F418C
:104AA000C4F2020188423CDC40F27041C4F20201CF
:104AB000884244D040F288413BE0D80376D4616C10
:104AC00000295CD154E1216C002958D150E1082320
:104AD000304670E53068002000287FF4EAADEDE54F
:104AE0003068002000287FF45AAE5DE60422C9E653
:104AF000022353E74021C4F2020188421FD058210B
:104B000017E040F24041C4F20201884217D040F25F
:104B100058410EE0A021C4F2020188420FD0B82112
:104B200007E040F2B841C4F20201884207D040F2E7
:104B3000A041C4F20201884208BF206800E020685A
:104B40004FEA9821026822F00102026000980130C9
:104B50000090884203D820680068C007F6D120681A
:104B60000068C0074FF0030008BF012084F835003B
:104B7000002084F83400E16C002900F0F980204620
:104B8000884701B0BDE8F0834E4532DC40F23F403B
:104B9000C4F20200864271DC40F21040C4F202000E
:104BA000864200F0888040F228407FE0E16B0029D7
:104BB000E5D1DDE04E454BDC40F23F40C4F202005F
:104BC000864200F3AF8040F21040C4F202008642F9
:104BD00000F0C48040F22840BCE09F20C4F20200F4
:104BE000864254DC7020C4F20200864263D08820E2
:104BF0005CE040F29F40C4F2020086424EDC40F28C
:104C00007040C4F20200864255D040F288404DE028
:104C10004E4571DC40F23F40C4F20200864200F390
:104C2000B18040F21040C4F20200864200F0C6801B
:104C300040F22840BEE09F20C4F2020086427ADCA7
:104C40007020C4F20200864200F08880882081E053
:104C500040F29F40C4F20200864273DC40F2704092
:104C6000C4F20200864279D040F2884072E04020CF
:104C7000C4F2020086421ED0582017E040F24040A5
:104C8000C4F20200864216D040F258400EE0A02046
:104C9000C4F2020086420ED0B82007E040F2B840CD
:104CA000C4F20200864206D040F2A040C4F20200E4
:104CB000864240F0948026686FF01C0230681040F5
:104CC0003060012000FA01F16960606584F8350008
:104CD0000020E16C84F8340000297FF450AF47E0F5
:104CE0009F20C4F20200864255DC7020C4F202000C
:104CF000864263D088205DE040F29F40C4F202000B
:104D000086424FDC40F27040C4F20200864255D029
:104D100040F288404EE04020C4F2020086421DD09E
:104D2000582017E040F24040C4F20200864215D0FD
:104D300040F258400EE0A020C4F2020086420DD09E
:104D4000B82007E040F2B840C4F20200864205D025
:104D500040F2A040C4F20200864243D126686FF0C0
:104D60000801306808403060216C00297FF407AFEB
:104D700001B0BDE8F0834020C4F2020086421DD09D
:104D8000582017E040F24040C4F20200864215D09D
:104D900040F258400EE0A020C4F2020086420DD03E
:104DA000B82007E040F2B840C4F20200864205D0C5
:104DB00040F2A040C4F20200864216D126686FF08D
:104DC0001401306808403060012084F8350000206C
:104DD00084F83400E16B00297FF4D1AEC8E76FF0AE
:104DE0000E026BE76FF00401BBE76FF00A01E8E722
:104DF0002DE9F04381B0044601F05EFB002C00F089
:104E0000738140F26F4805462068C4F202084045AD
:104E100015DC9F21C4F2020188422BDC5721C4F229
:104E20000201884251DC1021C4F2020188427AD08A
:104E30002821C4F20201884275D040216EE045F27B
:104E40002F41C5F60201884227DC40F2B741C4F287
:104E50000201884245DC40F27041C4F202018842FE
:104E600061D040F28841C4F2020188425BD040F236
:104E7000A04153E040F22741C4F2020188423FDCE6
:104E8000A021C4F2020188424DD0B821C4F202012F
:104E9000884248D040F2104140E045F26B41C5F6EF
:104EA0000201884200F3908045F23041C5F60201CC
:104EB000884200F09C8045F24441C5F602018842D8
:104EC00000F0958045F258418CE05821C4F202016F
:104ED000884228D07021C4F20201884223D0882160
:104EE0001CE040F2B841C4F2020188421BD045F2F6
:104EF0000841C5F60201884279D045F21C4171E0B3
:104F000040F22841C4F2020188420CD040F24041F4
:104F1000C4F20201884206D040F25841C4F20201B4
:104F2000884240F0118240F20F420221C4F2020294
:104F300084F8351090424FF0000184F8341012DCF0
:104F40006F21C4F20201884220DC3F21C4F2020139
:104F5000884200F391801021C4F20201884200F0DF
:104F6000B0802821A7E040451EDC40F23F41C4F25A
:104F70000201884200F3878040F21041C4F202012E
:104F8000884200F09E8040F2284194E09F21C4F2C4
:104F90000201884200F380807021C4F2020188423D
:104FA00000F08F80882186E040F29F41C4F2020128
:104FB000884278DC40F27041C4F20201884200F07D
:104FC000808040F2884176E045F26C41C5F60201EE
:104FD00088420CD045F28041C5F60201884206D0D5
:104FE00045F29441C5F60201884240F0AD8104F1DA
:104FF000080E022084F8350000209EE80640A1F14A
:10500000800384F83400B3FA83F320685B094029F5
:10501000D4E90579D4E9076C05684FEA83336FF367
:10502000101508BF102345EAD2014AF6F832194399
:10503000CAF2FD7241EADE014CF6CD4341EAD701E6
:10504000024441EAD901CCF6CC4341EAD601A2FBA5
:10505000032341EA1C1101606FF0030000EA930092
:10506000E0652046FCF7FCFBE16D012201F01F0129
:1050700002FA01F141609BE04021C4F20201884242
:105080001FD0582117E040F24041C4F2020188428B
:1050900017D040F258410EE0A021C4F2020188422C
:1050A0000FD0B82107E040F2B841C4F202018842B3
:1050B00007D040F2A041C4F20201884208BF206834
:1050C00000E02068016821F001010160276838686C
:1050D000C0070DD001F0F0F9401B0628F6D32020C0
:1050E0006065032084F83500012001B0BDE8F0833D
:1050F00048F23F0104F108053868CFF61061084016
:105100002ECD0843A1691043E2691843236A054381
:10511000606A2943042841EA020141EA030103D1FC
:10512000D4E90B231143194341F20002C5F60042B2
:105130001268B2F1005F17D36268A2F12903202B35
:1051400006D23F25CCF2C03525FA03F3DB0706D1A2
:10515000A2F14F030022042B38BF012200E00122FC
:10516000002A18BF41F4801139600428796921F0C0
:10517000070141EA000510D1D4E90A1045EA01050A
:1051800058B12046FCF7CCFC38B1402060650120C6
:1051900084F8350001B0BDE8F08320467D61FCF75E
:1051A0005FFBE16D3F2201F01F0102FA01F1816016
:1051B0002068404519DC9F21C4F20201884231DC9D
:1051C0005721C4F20201884256DC1021C4F20201C8
:1051D000884200F091802821C4F20201884200F048
:1051E0008B804021C4F2020184E045F22F41C5F6D4
:1051F000020188422BDC40F2B741C4F2020188422E
:1052000048DC40F27041C4F20201884274D040F29E
:105210008841C4F2020188426ED040F2A041C4F23B
:10522000020167E040F22741C4F20201884240DCFB
:10523000A021C4F2020188425ED0B821C4F202016A
:10524000884259D040F21041C4F2020152E045F2C6
:105250006B41C5F6020188423CDC45F23041C5F69F
:105260000201884248D045F24441C5F60201884215
:1052700042D045F258413BE05821C4F20201884235
:105280003AD07021C4F20201884235D08821C4F29C
:1052900002012FE040F2B841C4F2020188422BD053
:1052A00045F20841C5F60201884225D045F21C416D
:1052B0001EE040F22841C4F2020188421CD040F2B4
:1052C0004041C4F20201884216D040F25841C4F273
:1052D00002010FE045F26C41C5F6020188420BD095
:1052E00045F29441C5F60201884205D045F280415D
:1052F000C5F6020188421FD12046FCF741FBA06899
:10530000802801D10020606004F160036068C7B2AA
:1053100001380ECB07280F60536009D82046FCF7F0
:10532000A7FB04F16C02002307CA03604A6003E094
:1053300000206067C4E91B0000206065012184F83B
:10534000351001B0BDE8F0834020C9E60000000040
:10535000F0B581B0A8B3044690F83400012802D11A
:10536000022001B0F0BD012084F8340094F835002B
:10537000012820D1022084F835000020606540F229
:105380000F462068C4F2020640F26F47B042C4F2F2
:10539000020719DC6F25C4F20205A84225DC3F256F
:1053A000C4F20205A8423BDC1025C4F20205A84263
:1053B0005BD0282553E04FF400606065002084F83E
:1053C0003400012001B0F0BDB8421ADC40F23F4584
:1053D000C4F20205A8422ADC40F21045C4F20205DC
:1053E000A84242D040F2284539E09F25C4F2020588
:1053F000A84225DC7025C4F20205A84235D08825D4
:105400002DE040F29F45C4F20205A8421FDC40F2A5
:105410007045C4F20205A84227D040F288451EE03C
:105420004025C4F20205A8421FD0582517E040F2DB
:105430004045C4F20205A84217D040F258450EE09C
:10544000A025C4F20205A8420FD0B82507E040F21B
:10545000B845C4F20205A84207D040F2A045C4F204
:105460000205A84208BF206800E02068056825F012
:10547000010505602046FCF77BFB2068B04210DC8C
:105480006F21C4F2020188421CDC3F21C4F20201F8
:10549000884232DC1021C4F20201884251D0282116
:1054A0004AE0B8421ADC40F23F41C4F202018842AD
:1054B0002ADC40F21041C4F20201884241D040F29D
:1054C000284139E09F21C4F20201884225DC702185
:1054D000C4F20201884234D088212DE040F29F417D
:1054E000C4F2020188421FDC40F27041C4F20201A2
:1054F000884226D040F288411EE04021C4F20201D9
:1055000088421ED0582117E040F24041C4F2020107
:10551000884216D040F258410EE0A021C4F20201A8
:1055200088420ED0B82107E040F2B841C4F202012F
:10553000884206D040F2A041C4F20201884240F005
:10554000298121680B25226C0B6865F344030B60ED
:105550001AB10A6842F008020A60B84219DC9F21B9
:10556000C4F20201884231DC5721C4F202018842B0
:1055700056DC1021C4F20201884200F091802821FB
:10558000C4F20201884200F08B804021C4F2020183
:1055900084E045F22F41C5F6020188422BDC40F23F
:1055A000B741C4F20201884248DC40F27041C4F2C3
:1055B0000201884274D040F28841C4F2020188425C
:1055C0006ED040F2A041C4F2020167E040F22741F0
:1055D000C4F20201884240DCA021C4F202018842E8
:1055E0005ED0B821C4F20201884259D040F2104185
:1055F000C4F2020152E045F26B41C5F60201884255
:105600003CDC45F23041C5F60201884248D045F203
:105610004441C5F60201884242D045F258413BE080
:105620005821C4F2020188423AD07021C4F202012A
:10563000884235D08821C4F202012FE040F2B841FF
:10564000C4F2020188422BD045F20841C5F602019E
:10565000884225D045F21C411EE040F22841C4F2A8
:10566000020188421CD040F24041C4F2020188424B
:1056700016D040F25841C4F202010FE045F26C41ED
:10568000C5F6020188420BD045F29441C5F60201ED
:10569000884205D045F28041C5F60201884272D1A8
:1056A000216E0A68D20303D50A6842F480720A6048
:1056B000E16E19B10A6842F480720A60B04210DCEF
:1056C0006F21C4F2020188421CDC3F21C4F20201B6
:1056D000884232DC1021C4F20201884252D02821D3
:1056E0004AE0B8421ADC40F23F41C4F2020188426B
:1056F0002ADC40F21041C4F20201884242D040F25A
:10570000284139E09F21C4F20201884225DC702142
:10571000C4F20201884235D088212DE040F29F4139
:10572000C4F2020188421FDC40F27041C4F202015F
:10573000884227D040F288411EE04021C4F2020195
:1057400088421FD0582117E040F24041C4F20201C4
:10575000884217D040F258410EE0A021C4F2020165
:1057600088420FD0B82107E040F2B841C4F20201EC
:10577000884207D040F2A041C4F20201884208BF2B
:10578000206800E02068016841F00101016000200C
:1057900001B0F0BD21680525226C0B68002A65F375
:1057A00043030B603FF4D9AE0A6842F00402D3E62B
:1057B000B0B5044600F080FE40F221110546C2F269
:1057C0000041621C097818BF0C4400BF00F074FE51
:1057D000401BA042FAD3B0BD90F89830013B012B9A
:1057E0000BD80068836D0B420CD0836D0B408B424D
:1057F0000CD1C36D43F0020309E000F19C010120CC
:10580000022221E0C36D43F0010300E00323C365DE
:105810008B0504D5D0F8E0301343C0F8E0304B05D9
:1058200004D5D0F8E4301A43C0F8E4204FF6FF72F4
:10583000436DC3F6CF720A401A4342658A0F4AF697
:1058400014010020C4F200010B681A430A6070477B
:10585000B0B5044690F8980002281AD12068D0F814
:10586000C03013F07C5F19D0D0F8C4309B021AD43A
:10587000D0F8C400C0F3044520462B46FEF718F8C4
:1058800020680121A940C0F8D0100020C4F894106D
:10589000B0BDD4F89C0040F0080008E0D4F89C00AB
:1058A00040F0200003E0D4F89C0040F40070C4F8FD
:1058B0009C000120B0BD0000704700000000000007
:1058C00080B590F89820013A012A0AD80A68002A7F
:1058D000CA680ED00B69072A43EA427E16D18B694B
:1058E00019E0D0F89C1041F00201C0F89C10012092
:1058F00080BD072A18D10A69D1F81CC012048B692F
:1059000042EA0C221A4342F0605217E0D1F808C074
:105910004B6943EA8C73006F496800EBC10240F8A1
:1059200031E00020536080BD8B68D1F810C09B0728
:1059300043EAC2624B6942EA0C421A434968C06EAC
:1059400040F82120002080BD90F898C0BCF1010FE4
:105950000DD19200006842EA0111DDF800C041EA71
:10596000430141EA0C01C0F8801000207047D0F8D4
:105970009C1041F00401C0F89C1001207047000009
:1059800070470000000000007047000000000000A9
:10599000B422402908BFA4220068805800F07F008C
:1059A000704700000000000070B590F89850022D7C
:1059B00011D1402914D10468D4F8A05015F4FE0F79
:1059C0002BD0D4F8A4506D062CD0D4F8A450ED01FF
:1059D00030D4002531E0D0F89C1041F0080125E0DA
:1059E00041290FD10468D4F8B05015F4FE0F14D03B
:1059F000D4F8B4506D0615D0D4F8B450ED0126D4C7
:105A0000002527E0056D8D4207D900F17C04D0F810
:105A100054E04FF0000C0D4626E0D0F89C1041F009
:105A2000200103E0D0F89C1041F48071C0F89C1074
:105A3000012070BDD4F8A050ED0FD4F8A440C4F3F9
:105A4000052404EB050E00F17404456C0BE0D4F85A
:105A5000B050ED0FD4F8B440C4F3052404EB050EA8
:105A600000F17804C56CF44605FB0EF6246854F882
:105A7000265015F08045556054F826E02EF060451C
:105A800008BFCEF38A4504EB860E156054F8265005
:105A900005F00055956054F8264004F00044146168
:105AA000BEF80440D461BEF8064014F00F04D46080
:105AB000DEF8044004F480145461DEF8044004F479
:105AC000001494619EF8074004F07F041462DEF82D
:105AD00004404FEAD47454620ED00EF1080541F62A
